:020000040000fa
:100000000200de021003000000000002100b0000de
:10001000000000021013000000000002101b00008e
:10002000000000021023000000000002102b00005e
:10003000000000021033000000000002103b00002e
:10004000000000021043000000000002104b0000fe
:10005000000000021053000000000002105b0000ce
:10006000000000021063000000000002106b00009e
:10007000000000021073000000000002107b00006e
:10008000000000021083000000000002108b00003e
:10009000000000020ce31200f0b900030200d8e4f3
:1000a00090000278a579018002f0a3d8fcd9fa90db
:1000b00000a6aa82ab839000f6780979018015e446
:1000c00093a3ac82ad838a828b83f0a3aa82ab8395
:1000d0008c828d83d8e9d9e7120306120d0275d000
:1000e0000075813f75188075931e5392fe0200962d
:1000f00079015392fe220010000000000200bb01b3
:1001000002e722c0925392fec082c08389828a8312
:10011000bb0003e08002e493d083d082d09222bb64
:100120000015c0925392fec082c0838a838982f0f8
:10013000d083d082d09222bb0101f722cac0e0e670
:10014000f30908dafad0e0fa22cac0e0e0f208a324
:10015000dafad0e0fa22600c08c6c313c618c61338
:10016000c6d5e0f422700422600d18c6c333c60859
:10017000c633c6d5e0f41822e4735392fed083d080
:10018000822518f8c518c39824fbcef208e520f2a2
:1001900008e9c0e07908e709f208defad0e0f9eff3
:1001a000f208d0e0fed0e0f208eef208e473a818fe
:1001b000e2fe08e208f520e9c0e07908e208f70964
:1001c000dffae208ffd0e0f9e208c0e0e208c0e0b0
:1001d00088185392fe22e584f208e585f222e208af
:1001e000f584e2f585227403800474028000c9c09e
:1001f000e0e518c399f518c912013cd0e0f9227462
:10020000038000c8c0e0e518c398f518c81201497a
:10021000d0e0f8227400f5d374022408f5d253928a
:10022000fe22a2afe433f8c2af5392fe906270e0b8
:10023000a2e740f5e9c333906272f0906270e0d2b9
:10024000e0f0e0a2e740fbe8a2e092af2274fa12ed
:10025000017aa2af33f8c2afed900002f0eca3f048
:10026000a37462f0a37473f0a3e4f0e9a3f0a374a1
:1002700012f0a37442f0eb906272f0ea906271f0b7
:100280007400f5d575d40275d601906270e0d2e1a4
:10029000f0e0a2e740fbe8a2e092af7f010201aeee
:1002a0005392fe906276e05470643070047803805c
:1002b000027807e5c7f988c790ff00e090001af0c0
:1002c00089c7a2e05004788080027800e8f5c6e58e
:1002d0009efce86c70f99062707408f02274fa1257
:1002e000017af9800c8a828b83e029f9a3aa82ab78
:1002f00083ecfeedffee24ff1cef34fffdee4f70ac
:10030000e47f010201ae5392fe900001e090001bd9
:10031000f01202a0e5c7ff75c7007c007d707a006f
:100320007b901202dde924a5fe8fc77f01e5c7f5aa
:10033000088fc77c007d807a007b801202dde92e69
:10034000fe8508c70fefc3940340e2ee7027e59dda
:1003500054186410700890001be0a2e04017900051
:10036000017403f005929000a6e0f582a3e0f58306
:100370000592120178900001e4f012021412060fa7
:1003800012063f12069f80fb74f812017a151815a9
:1003900018a8181201d690620ee0fee4f0906211e7
:1003a000e0f50aa2e450197480f09000237407f07d
:1003b000120582600612058d120178900023e4f088
:1003c000e50aa2e2500b906211e4f0900023f08065
:1003d0006f900023e0f87402687051906216e0ff9d
:1003e00090003a1201ffeff91205698f0890003d65
:1003f00012057712059c1205856004744080027412
:1004000048906211f0e849701012058260061205ea
:100410008d120178900023e4f0ee90620ef0a8189f
:100420001201de051805187f030201ae740668701c
:100430000612058d120178900023e0600302050288
:10044000e50aa2e050d3750832750900750a0078f4
:10045000081201e6790812056990003fe4f0a3f064
:10046000900032e054e0600e24e0606824a0603e1a
:1004700024e0606f8030a3e014601c24fe6013242d
:10048000fe600a24fc601524fe601680191209ea39
:10049000805e1209e580591209e08054120b198020
:1004a0004f120c47804a9000237404f0804aa3e066
:1004b000600e24fa600f24fe601024fe601180e6b6
:1004c00012082b802b120a328026120af380211286
:1004d0000be9801c90003f74c7f0a37406f012066d
:1004e000c7800d90003f7481f0a37407f01207815c
:1004f000900023e064047004746080027440906291
:1005000011f0900023e0f8740168704c750a0290b5
:10051000003de0f8a3e0f9c3e89420e99400500717
:10052000e8ff750a0a80027f2090003a1201ffef6f
:10053000f97a207b621206660518051805188f08df
:1005400012059c120577e50a906211f0efc3942022
:1005500040030204190204097405686003020419c7
:1005600012058d1201780204197a207b6212064b63
:1005700005180518051822c3e09508f0a3e09400bb
:10058000f02290003fe0f8a3e0f9e84922059290bc
:10059000003fe0f582a3e0f58305922290003ae067
:1005a000f9a3e0faa3e0fbe92508f9ea3400fa90a0
:1005b000003ae9f0a3eaf0a3ebf0a322c008c009d7
:1005c0007800880874242508f58274003400f583c7
:1005d000e95392fef008e8c3940540e678008808e5
:1005e00074292508f58274003400f583e9f008e8e1
:1005f000c3940540e9d009d008225392fe90001c14
:100600007402f0a3e4f0900023f079030205bcc06b
:1006100008c00975082175090078081201ea7c00f4
:100620007d007a417b00120d050518051890001c0d
:100630007402f090620f04f0e0a2e750fb80b65322
:10064000f4fed29043fe015392fe22eec0e0120669
:1006500087600c5392fee012011f12067c70f4d0ea
:10066000e0fe5392fe22eec0e0120687600c1200fc
:10067000fe5392fef012067c70f480e3e924010937
:10068000ea3400fa18e8228a828b83e9f8a918e391
:10069000fc09e3fd09e3feecf9edfaeefbe822eede
:1006a000c0e05392fe906206e0f8906202e0fe9095
:1006b0006204e0e8a2e250031205faeea2e0500361
:1006c000120388d0e0fe2274f712017a900033e022
:1006d000700302077114600302076a90001b740123
:1006e000f0900023e0f87030900038e0f8a3e0f9d3
:1006f000e84970059000ac807b90003a7462f0a3ea
:100700007400f0a3e4f0a3e8f0a3e9f090002374f0
:1007100002f09000ac048063740268704d90003465
:10072000e02440f508a3e03400f509e508541f7003
:100730001285080a85090b7405780a120156a90a60
:10074000120222900038e0240354fcf97c627d0000
:1007500074047808120165aa08ab0912024d9000d2
:1007600023e4f09000ac74058011900023740480a1
:100770000a90001b7402f0900023e4f07f04020151
:10078000ae5392fe900033e06403701a90003a7406
:10079000a8f0a37400f0a3e4f0a37406f0a3e4f0bf
:1007a00090002304f02280009000237404f0225370
:1007b00092fe9000a2e4f0a3740ff02274fa1201ea
:1007c0007a15181518a8181201d6eafcebf87a0069
:1007d0007b00088030e86045a3e493fdec6d603950
:1007e000e96d700b05929000a2e0faa3e0fb1853ac
:1007f00092fe9000a2e02efea3e03400ff9000a243
:10080000eef0a3eff09000a2e0f584a3e0f585e41c
:10081000059293fe70bfe860047a007b00a818126e
:1008200001de051805187f010201aec008120bdbbe
:100830007011a3e0f8a3e0700aa3e064027002a3c1
:10084000e0600890002374040208fb900032e0246a
:1008500080600814602a14603780e8e870e5900032
:100860002fe060047801800278009000a4e8f0a3f3
:10087000e4f090002ee060689000a4e04402805c08
:1008800090001ce0640470bb9000a4e4f0a3804fcf
:10089000e8547ff50890001ce0640470a6e508c3e6
:1008a0009406509f741c2508f58274003400f5836b
:1008b000e854806010a3a3a3a3a3a3a3e0640370e0
:1008c0001578018013e582240cf582e5833400f568
:1008d00083e0640360eb78009000a4e8f0a3e4f008
:1008e000900023e06404601490003a74a4f0a374b0
:1008f00000f0a3e4f0a37402120c3ef0d0082274be
:10090000f912017a15181518a8181201d6e9fa90eb
:100910000038120be1701090001ce064046010902d
:100920000036120be1600890002374040209cf9096
:100930000032e0541f600814600d14601580e890c8
:100940000034e06401600579000209d2ea90002ecb
:10095000807d900036e0547ff508900034e070e729
:10096000e508c3940650c0e50890620ef0741c259b
:1009700008f58474003400f585900036e0548060fa
:1009800021ea6004741080027440906211f0ea6001
:100990000474038001e40592a3a3a3a3a3a3a3f07b
:1009a0008026ea6004742080027480906214f0ea69
:1009b000600474038001e4c0e0e584240cf582e562
:1009c000853400f583d0e0f05392fe90620ee4f09f
:1009d0007901a8181201de051805187f020201ae80
:1009e00079000208ff79010208ff5392fe90003659
:1009f000120be17018a3120be17012900034e0f8b2
:100a0000a3e0f9e85480fae9fbea4b6002801ce8b5
:100a1000906200f090001c6009e06402700c7403a6
:100a2000f022e0640370037402f022900023740447
:100a3000f02274f812017a1207af900034e0faa3a2
:100a4000e0f914600814600d14603080367b007a81
:100a50000079018032eafb7a007902120adbe9248c
:100a6000020909ea3400fa89828a83e493f874015e
:100a700093f990003de8f0a3e98019eafb7a007948
:100a80000380047b007a00120adba37b801200fe45
:100a9000a3f0a3e4f090003ae0fca3e0fda3e0fea5
:100aa000ec4d4e900023700474048029e0640460cf
:100ab00025900038e0faa3e0fb90003de0f8a3e0c9
:100ac000f9c3ea98eb99500890003deaf0a3ebf0e7
:100ad0009000237401f07f030201ae1207bc900066
:100ae0003aeaf0a3ebf0a37480f090003ae0f9a3a7
:100af000e0fa22120bdb7010a3120be1700aa3e0e4
:100b000064017002a3e06003020a2b90003a741d96
:100b1000f0a37400120c34f02274f812017a9000e1
:100b20001ce064026014900036120be1700ca312fa
:100b30000be17006900035e060099000237404f02a
:100b4000020bca1207af900034e060707b007a009d
:100b500079021207bc8a088b09ae08af09ee4f6014
:100b6000d9900034e0f88e828f83a3a3a3a3a3e4db
:100b700093c0e0e8fad0e06a70d290001c7404f0f0
:100b8000e8a3f0750a008e828f83a3a3a3a3e49346
:100b9000f8e50ac3985033850a08741e2508f582c3
:100ba00074003400f583e4f07b007a00120bcd6012
:100bb00007a3a3a3e49370f0050a80ca90001df078
:100bc00090001c7403f0f91205bc020ad6790412d5
:100bd00007bc8a828b83e5824583225392fe900074
:100be00034e0f8a3e0f9e8492274f812017a9000a1
:100bf0001ce064047019900032e064817011120be3
:100c0000de700c900038e064017002a3e060079091
:100c100000237404801a900036e0241ef508a3e037
:100c20003400f50990003ae508f0a3e509120c3408
:100c3000f0020ad6f0a3e4f0a304120c3e22f0a3c3
:100c4000e4f0900023042274f912017a15181518a3
:100c5000a8181201d690001ce064047010900032b5
:100c6000e064017008900038120be16007900023e7
:100c7000740480671207af7b007a007902120bcff1
:100c8000600fa3a3a3a3a3e493f890001de06870f2
:100c9000e67b007a02120bcd60d30592900034e01f
:100ca000f8a3e0f9900036e0faa3e0fb85828485a2
:100cb0008385a3a3e493fcea6c7001eb600f0592bb
:100cc000a3a3a3e493fce86c7001e970c4741e2a2a
:100cd000f58274003bf583e85392fef00209d2538b
:100ce00092fe2274fa12017a15181518eafeebff2b
:100cf000a818eef208eff2aa18ab937901120cdff4
:100d000080ee02009374fa12017ae5182406f8e2e4
:100d1000fe08e2ffecf88a828b83800be8f0a3eefa
:100d200024ff1eef34ffffee4f70f17f010201ae92
:100d3000ffffffffffffffffffffffffffffffffc3
:100d4000ffffffffffffffffffffffffffffffffb3
:100d5000ffffffffffffffffffffffffffffffffa3
:100d6000ffffffffffffffffffffffffffffffff93
:100d7000ffffffffffffffffffffffffffffffff83
:100d8000ffffffffffffffffffffffffffffffff73
:100d9000ffffffffffffffffffffffffffffffff63
:100da000ffffffffffffffffffffffffffffffff53
:100db000ffffffffffffffffffffffffffffffff43
:100dc000ffffffffffffffffffffffffffffffff33
:100dd000ffffffffffffffffffffffffffffffff23
:100de000ffffffffffffffffffffffffffffffff13
:100df000ffffffffffffffffffffffffffffffff03
:100e0000fffffffffffffffffffffffffffffffff2
:100e1000ffffffffffffffffffffffffffffffffe2
:100e2000ffffffffffffffffffffffffffffffffd2
:100e3000ffffffffffffffffffffffffffffffffc2
:100e4000ffffffffffffffffffffffffffffffffb2
:100e5000ffffffffffffffffffffffffffffffffa2
:100e6000ffffffffffffffffffffffffffffffff92
:100e7000ffffffffffffffffffffffffffffffff82
:100e8000ffffffffffffffffffffffffffffffff72
:100e9000ffffffffffffffffffffffffffffffff62
:100ea000ffffffffffffffffffffffffffffffff52
:100eb000ffffffffffffffffffffffffffffffff42
:100ec000ffffffffffffffffffffffffffffffff32
:100ed000ffffffffffffffffffffffffffffffff22
:100ee000ffffffffffffffffffffffffffffffff12
:100ef000ffffffffffffffffffffffffffffffff02
:100f000012010002000000205824feff0000010230
:100f1000030109021b0001010480250904000000ef
:100f2000fe01020409210d03e84000010104030948
:100f300004120342006c00750065006700690067d9
:100f400000610016034c006f007700200045006e22
:100f50000065007200670079000a03310032003337
:100f6000003400080344004600550000ffffffff67
:100f7000ffffffffffffffffffffffffffffffff81
:100f8000ffffffffffffffffffffffffffffffff71
:100f9000ffffffffffffffffffffffffffffffff61
:100fa000ffffffffffffffffffffffffffffffff51
:100fb000ffffffffffffffffffffffffffffffff41
:100fc000ffffffffffffffffffffffffffffffff31
:100fd000ffffffffffffffffffffffffffffffff21
:100fe000ffffffffffffffffffffffffffffffff11
:100ff000ffffffffffffffffffffffffffffffff01
:101000000210f70231b7ffffffffff023aa6ffff12
:10101000ffffff023b45ffffffffff023bf9ffff22
:10102000ffffff0227d4ffffffffff023946ffff4c
:10103000ffffff023cdeffffffffff023b9dffffc4
:10104000ffffff023b14ffffffffffffffffffff5c
:10105000ffffff02319dffffffffffffffffffffcd
:10106000ffffffffffffffffffffff023a47ffff0a
:10107000ffffff023c6cffffffffff023a78ffff1c
:10108000ffffff0231bb7582fe75837f7400121172
:1010900012121133b900030210e1e479347802b876
:1010a00000028004f709d8fce490030278857907f0
:1010b0008002f0a3d8fcd9fa900986aa82ab83906b
:1010c000113978c379028015e493a3ac82ad838a89
:1010d000828b83f0a3aa82ab838c828d83d8e9d9db
:1010e000e77582a27583e774021211127582f0759a
:1010f000837f740012111275d00075813f753180a5
:10110000753202753303759f0075931e5392fe026c
:101110001091c09ff59fe473d09f225392fed0831d
:10112000d082c09fe493c0e0740193c0e074029346
:10113000f59f2279015392fe220300000200007bfa
:10114000140102030000fb153efe0e00c3a88ee84a
:10115000b19dcf7f5eb98b9f41efb055f401fa008e
:10116000960064004b0032001e001400d6be898e2b
:10117000000106021213151429417671ffc1fbe824
:101180004c90728be7b3518963ab232302841872ae
:10119000aa612f3b51a8e53749fbc9ca0c18532c4b
:1011a000fd45e300400000fffffffffaffffff00e7
:1011b0000080006200000007000000050006000734
:1011c0000000000100010000010001020203000212
:1011d0000000000000020201000240420f0019005e
:1011e0000000093d0000eafffffffb349b5f800029
:1011f000008000100000000000005f4b694b734b43
:101200007d4b874b914b9b4ba54baf4bb94bc34b86
:10121000cd4bd74be14beb4bf54bff4b094c134cf4
:101220001d4c274c314c3b4c454c4f4c594c634c5e
:101230006d4c774c814c8b4c954c9f4ca94cb34cce
:10124000bd4cc74cd14cdb4ce54cef4cf94c034d3d
:101250000d4d174d214d2b4d354d3f4d494d534da6
:101260005d4d674d714d7b4d854d8f4d994da34d16
:10127000ad4db74dc14dcb4dd54ddf4de94df34d86
:10128000fd4d074e114e1b4e254e2f4e394e434eef
:101290004d4e574e614e6b4e754e7f4e894e934e5e
:1012a0009d4ea74eb14ebb4ec54ecf4ed94ee34ece
:1012b000851c8b1c911c971c9d1ca31c0d1cc91dff
:1012c000ab1d7d1e171e1d1e4517031431197b14ff
:1012d000291ecf1d451d6b1e3b0601ffffff0000b1
:1012e000000080ffffffff0000000001000000047d
:1012f00000000003000000c000000012111ba5ae9a
:101300000212111bbdae0212111bf5ae0212111b0f
:1013100042af0212111b4eaf0212111b73af021229
:10132000111b9baf0212111bb7af0212111b2cb085
:101330000212111b51b00212111baeb00212111b8e
:101340002cb50212111bfdb50212111b54e802123a
:10135000111b6ce80212111bd0e80212111b20e9cc
:101360000212111bf0d10212111b58d20212111bd2
:101370008fd20212111ba9d20212111bd3d2021258
:10138000111bedd20212111b21d30212111b4dd3de
:101390000212111b9ad30212111b33d40212111b19
:1013a00057d40212111be7d40212111b39d50212b5
:1013b000111b53d50212111b68d50212111b9ad5ad
:1013c0000212111bd1d50212111b72d60212111b6f
:1013d000edc10212111b1ec20212111b4cc20212dd
:1013e000111b55c20212111bb1c20212111b71c393
:1013f0000212111bebc30212111b48c40212111b73
:101400006bc40212111bd5c40212111bdac50212e1
:10141000111be5c50212111b0ac60212111b6dc673
:101420000212111bdcc60212111b0ec70212111b85
:10143000807f0012111ba07f0012111bc97f0012b8
:10144000111b23ec0212111b63ec0212111bd4ebd3
:101450000212111bb7ec0212111bceec0212111b6f
:1014600078ea0212111ba5ea0212111b3274001253
:10147000111b74740012111b8b740012111bab74be
:101480000012111bf4740012111b4d750012111b78
:10149000a1760012111bc9770012111b6b78001284
:1014a000111b8f780012111bd1780012111b6b7960
:1014b0000012111bae790012111b057a0012111bcc
:1014c000187a0012111b087b0012111b2c7c0012d1
:1014d000111ba07c0012111b00800112111ba7819f
:1014e0000112111b24820112111b87830112111b8f
:1014f000fc830112111b36840112111b0b85011292
:10150000111b92850112111b86860112111b8887ff
:101510000112111b6f880112111bbc890112111bd2
:10152000368a0112111b9f8a0112111b138b0112a3
:10153000111bc48b0112111b1c8c0112111bc08cbe
:101540000112111b1e8d0112111bb08d0112111bf6
:10155000078e0112111ba28e0112111b4c8f01125a
:10156000111b01900112111bbc910112111b2e9431
:101570000112111b7c940112111b1c950112111bed
:101580006c950112111bba950112111b5a97011289
:10159000111bf4970112111b70980112111bcc99a9
:1015a0000112111b379a0112111b2c9b0112111be6
:1015b0001e9c0112111b5d9d0112111bae9e01129a
:1015c000111b88a00112111b51a30112111bdfa3d3
:1015d0000112111b6da40112111b4ca50112111b4c
:1015e000c1a50112111b3baa0112111bb8ac0112bb
:1015f000111b8fad0112111bc4af0112111bf3b0ef
:101600000112111b32b20112111b49b20112111b3e
:1016100078d60212111bb6d60212111b1ed7021267
:10162000111b4ad70212111b21d80212111bf8d824
:101630000212111be9fe0112111b2dff0112111bd9
:10164000a5ff0112111b23b90112111b41b901128f
:10165000111b5eb90112111b7bb90112111bcbb911
:101660000112111b61ba0112111b2bbc0112111bbb
:101670008dbc0112111bdabc0112111b15bd011228
:10168000111b48bd0112111b93bd0112111bf9bda5
:101690000112111b85be0112111b93be0112111bf9
:1016a000fdbf0112111b2fc20112111b8cc20112ae
:1016b000111bbec20112111bf3c30112111b31c554
:1016c0000112111b4fc50112111b80c50112111b04
:1016d000aac50112111b50c90112111b80c90112a8
:1016e000111bdec90112111ba6ce0112111b05cf61
:1016f0000112111b43cf0112111bcccf0112111b80
:10170000b6d00112111b5cd30112111b78d4011247
:10171000111bedd40112111bfed60112111b68d74b
:101720000112111ba6d70112111bf6d70112111bb2
:1017300043d80112111bd8d80112111b28d901124c
:10174000111b83d90112111b8dd90112111bc6da8d
:101750000112111b3edb0112111bffdb0112111bd9
:1017600093dc0112111b61de0112111b83de0112d9
:10177000111b81e00112111bb9e10112111b42e2a0
:101780000112111b8de20112111b02e30112111b48
:10179000e6e40112111bf7e40112111b01e501122d
:1017a000111bdbe60112111b4be70112111b81e734
:1017b0000112111be5e70112111b81e80112111b37
:1017c00008e90112111b69e90112111b93e90112c9
:1017d000111bcae90112111bffe90112111b1deabd
:1017e0000112111b85ea0112111b93ea0112111b50
:1017f000d2ea0112111b35eb0112111b82e3021216
:10180000111b26e40212111b4ae40212111b95e47b
:101810000212111bd4e40212111bf9ea0212111b6d
:10182000e69a0212111b129b0212111b5e9b0212fe
:10183000111bb89b0212111b349c0212111b819eba
:101840000212111b769f0212111bdda10212111b45
:10185000d4a20212111bb4a30212111b0ba5021277
:10186000111b86a50212111bc7a60212111b98dbc1
:101870000212111bc9db0212111b5bdc0212111bcd
:101880004ddd0212111bed530012111b0a54001200
:10189000111b35540012111ba8540012111bd454f3
:1018a0000012111b08550012111b6f550012111b5d
:1018b00099550012111b00560012111b5e560012a2
:1018c000111b2f570012111ba1570012111b885911
:1018d0000012111b1a5a0012111bf65c0012111b88
:1018e000de600012111b21610012111b74610012d5
:1018f000111b0b620012111bc9630012111b6d64d6
:101900000012111bb2640012111bfe640012111ba5
:1019100066650012111b90650012111be365001231
:10192000111b17660012111b74670012111bb86897
:101930000012111bc9680012111b046a0012111b4e
:101940001a6a0012111b606a0012111b246b00122c
:10195000111b396b0012111b6b6b0012111bcc6c2d
:101960000012111b8a6d0012111bbe6d0012111b9b
:10197000056e0012111ba46e0012111bfb6e0012eb
:10198000111bf76f0012111b65700012111ba9705b
:101990000012111b81710012111ba3730012111b85
:1019a000d3730012111bc97d0012111bd67d0012ca
:1019b000111bf97d0012111b3c7f0012111b497f86
:1019c0000012111b777f0012111b6bc70212111b33
:1019d000dbc70212111b08c80212111b52c80212e7
:1019e000111b1dc90212111bc0ca0212111b1acbf6
:1019f0000212111b28cb0212111b33cc0212111b35
:101a00009ccc0212111b4ce90212111b7ae9021242
:101a1000111baae90212111befdd0212111b7ade63
:101a20000212111bb0de0212111b21df0212111b68
:101a3000c5df0212111bd8df0212111b3ed90212a0
:101a4000111b54d90212111b00800212111b1580a8
:101a50000212111b04810212111b1c810212111ba4
:101a60002b810212111b41810212111b4d810212a6
:101a7000111b8c810212111bcf810212111b2a82b1
:101a80000212111b58820212111bbc820212111b7e
:101a9000d8820212111b14830212111b2c83021212
:101aa000111bbf830212111b33840212111b7b8492
:101ab0000212111bb4840212111b34850212111b75
:101ac0006f850212111b9e850212111bf7850212ef
:101ad000111b3f860212111b66860212111bb38670
:101ae0000212111b0e870212111b11870212111b09
:101af00067870212111bb8870212111bf0870212ae
:101b0000111b28880212111b5f880212111b878883
:101b10000212111b90880212111bad880212111bb8
:101b2000d8880212111b01890212111b418902126d
:101b3000111b6e890212111bba890212111bf38943
:101b40000212111b7f8a0212111b2d8b0212111b14
:101b50007c8b0212111bdc8b0212111be78b021211
:101b6000111b118c0212111b1f8c0212111bbc8c39
:101b70000212111b468d0212111b948d0212111bb1
:101b8000ac8d0212111bca8d0212111bec8d0212b8
:101b9000111b0d8e0212111b298e0212111b9f8e1a
:101ba0000212111be28e0212111b5d8f0212111b19
:101bb000738f0212111bf78f0212111b2690021253
:101bc000111b35900212111b7d900212111b8c907b
:101bd0000212111ba4900212111bd0900212111bb1
:101be00000910212111b31910212111b4491021239
:101bf000111b7c910212111be2910212111b109217
:101c00000212111b3e920212111b4a920212111b68
:101c100050920212111b31940212111bba9402123b
:101c2000111b23950212111b59950212111b9e952f
:101c30000212111be2950212111b26960212111bb1
:101c4000a5960212111b20970212111b7a970212fd
:101c5000111bfa970212111b42980212111bf498e1
:101c60000212111bb4990212111ba49a0212111b29
:101c7000a79a0212111bbc9a0212111bd19a0212ce
:101c8000111b31e00212111b7de00212111b93e0c7
:101c90000212111ba9e00212111bbfe00212111b5c
:101ca000e0e00212111bf6e00212111b0ce102121d
:101cb000111b29b60212111b48b60212111b8fb656
:101cc0000212111bd0b60212111beeb60212111b2a
:101cd0006ab70212111bd7b70212111b0fb80212fa
:101ce000111b6db80212111b88b80212111bcbb860
:101cf0000212111b29b90212111b40b90212111b49
:101d000062b90212111b8db90212111bacb9021279
:101d1000111bd8b90212111b11ba0212111b38bac9
:101d20000212111b6bba0212111b7aba0212111b9a
:101d300083ba0212111bf9ba0212111b21bc021242
:101d4000111bdbcc0212111bb9cd0212111b9cce50
:101d50000212111b2ecf0212111b91cf0212111b66
:101d6000decf0212111b26d00212111b47d0021225
:101d7000111b68d00212111b80d00212111b98d0c7
:101d80000212111be8d00212111b3bd10212111bcf
:101d90008fd10212111bc2e60212111befe60212d2
:101da000111b0dec0112111b6af60112111b1df81b
:101db0000112111b26e50212111b94e50212111be0
:101dc000b8e50212111b0ce60212111b61e60212a9
:101dd000111b9fe60212111bb8e60212111be3a6ab
:101de0000212111b00a70212111b1ba80212111bc9
:101df0007ca80212111b27a90212111ba6aa02120b
:101e0000111b29ab0212111b70ab0212111bd7abb5
:101e10000212111b32ac0212111b8bac0212111bed
:101e200001ad0212111b79ad0212111b18ae021284
:101e3000111bb7f80112111b0ffb0112111b47fbfd
:101e40000112111b63fb0112111baafb0112111bd2
:101e5000c4fb0112111bf0fb0112111b0ffc01123c
:101e6000111b37fc0112111b7efc0112111b9bfc84
:101e70000112111b60fd0112111b94fd0112111bb7
:101e8000a5fd0112111bdbe10212111b42e202123d
:101e9000111ba2e20212111ba4e20212111bbae2f0
:101ea0000212111b07e30212111be7e90212111bb8
:101eb00005ea0212111b40bc0212111b19bd0212cd
:101ec000111bfcbd0212111b04be0212111b0cbe21
:101ed0000212111b65be0212111b06bf0212111b5a
:101ee00005c00212111b38c00212111bffc00212e2
:101ef000111b5dc10212111b86100012111b69eb30
:101f00000212111b6fec0212111be6ec02e066706c
:101f10001008a3e066700a08a3e066700408a3e056
:101f20006622c3e7960809e7960809e7960809e7d5
:101f300096a2d265d03322c3e09608a3e09608a308
:101f4000e09608a3e096a2d265d03322c021c3e078
:101f500096f52108a3e096422108a3e096422108c5
:101f6000a3e0964221a2d265d033e5217001d3d0ff
:101f70002122c3e09608a3e09608a3e09608a3e018
:101f80009622c021c3e096f52108a3e096422108dd
:101f9000a3e096422108a3e09645217001d3d02109
:101fa00022bb0102e722c0925392fec082c0838905
:101fb000828a83bb0003e08002e493d083d082d086
:101fc0009222bb0015c0925392fec082c0838a83c6
:101fd0008982f0d083d082d09222bb0101f72208ff
:101fe0000808eac0e0ebc0e086f0e7a4fa1809862a
:101ff000f0e7a42afa180986f0e7a42afa18098655
:10200000f0e7a42afa1986f0e7a4fbe5f02afa190a
:102010000886f0e7a42bfbe5f03afa190886f0e70a
:10202000a42bfbe5f03afa18180986f0e7a4c5f0ee
:102030002bfbe43afa1908e7c5f0c6a426f6e5f04a
:102040003bfbe43afa1886f0e7a4f6e5f00826f63a
:10205000e43b08f6e43a08f6d0e0fbd0e0fa22e4ec
:10206000cfc0e0e4cec0e0e4cdc0e0e4ccc0e07599
:10207000f020c3e633f608e633f608e633f608e662
:1020800033f6181818ec33fced33fdee33feef3366
:10209000ffc3ec9709ed9709ee9709ef9719191906
:1020a000400fffec97fc09ed97fd09ee97fe19191b
:1020b00006d5f0beecf709edf709eef709eff719d1
:1020c0001919d0e0fcd0e0fdd0e0fed0e0ff2212f4
:1020d000213718181812205f1221261919192212f7
:1020e0002126191919080808e618181820e7e0121f
:1020f000205f12213718181822090909e719191940
:1021000020e7dc080808e618181820e70302205f1b
:1021100012213718181812205f12213718181812b8
:10212000212619191922e4c397f709e497f709e45e
:1021300097f709e497f722e4c396f608e496f608c1
:10214000e496f608e496f6226017080808c6a2e7a7
:1021500013c618c613c618c613c618c613c6d5e0cc
:10216000e9226016080808c6c313c618c613c618a5
:10217000c613c618c613c6d5e0ea227009080808b7
:10218000226016181818c6c333c608c633c608c658
:1021900033c608c633c6d5e0ea22e627f60809e6c4
:1021a00037f60809e637f60809e637f622e026f69c
:1021b00008a3e036f608a3e036f608a3e036f622d8
:1021c000e026f008a3e036f008a3e036f008a3e02c
:1021d00036f022c3e697f60809e697f60809e6976f
:1021e000f60809e697f622c3e0c696f608a3e0c60d
:1021f00096f608a3e0c696f608a3e0c696f622c3b4
:10220000e096f008a3e096f008a3e096f008a3e0bb
:1022100096f022e056f608a3e056f608a3e056f63c
:1022200008a3e056f622e056f008a3e056f008a313
:10223000e056f008a3e056f022e647f60809e64724
:10224000f60809e647f60809e647f622e046f008f0
:10225000a3e046f008a3e046f008a3e046f022e041
:1022600066f608a3e066f608a3e066f608a3e06653
:10227000f622e066f008a3e066f008a3e066f00846
:10228000a3e066f022e0f608a3e0f608a3e0f60873
:10229000a3e0f622e493f608740193f6087402931f
:1022a000f608740393f622e6f008a3e6f008a3e626
:1022b000f008a3e6f022e0faa3e0fba3e0fca3e031
:1022c000fd22eaf0a3ebf0a3ecf0a3edf022cac0ec
:1022d000e0e6f0a308dafad0e0fa22cac0e0e0a310
:1022e0000592f0a30592daf6d0e0ca22cac0e0e473
:1022f00093a30592f0a30592daf5d0e0ca22539297
:10230000fefae9fb7921e7f0a309dafae8f0a3eb9a
:10231000f9f0a3ecf0a3edf0a3eef0a3eff0a3e54a
:1023200020f0a3e5f0f0a3e592f0a3e584f0a3e5a7
:1023300085f0a3e581f0a3e531f0a3e532f0a3e554
:1023400033f0a3d0e0fad0e0f0a3caf0eac0e0e0b6
:10235000c0e07a007b00225392fecac0e0ebc0e0ee
:102360007921e0f7a309dafae0f8a3e0f9a3e0fca9
:10237000a3e0fda3e0fea3e0ffa3e0f520a3e0f5ca
:10238000f0a3e0c0e0a3e0f584a3e0f585a3d0e0ee
:10239000f592d0e0fbd0e0fae0f581a3e0f531a3bf
:1023a000e0f532a3e0f533a3d0e0d0e0e0c0e0a355
:1023b000e0c0e0ea4b70027a0122c3e498f8e499a5
:1023c000f91223fb8026c3e49afae49bfbe920e799
:1023d000e91223fbe498f8e499f922c3e498f8e4bd
:1023e00099f91223fbe498f8e499f9c3e49afae422
:1023f0009bfb22eb20e7cfe920e7e0b90010bb0010
:1024000008e88af084f8aaf022e4fbc8fa22eb700c
:10241000227b10c833c8c933c9335007c39ac3db02
:10242000f280069a50012adbeac833f4c8c933f4b3
:10243000c9fa2275f008e4c833c8c933c933c99a48
:10244000c99b5004c92ac93bd5f0ecfbc833f4c87a
:10245000e4c9fa22600d08c6a2e713c618c613c65f
:10246000d5e0f322600c08c6c313c618c613c6d540
:10247000e0f422700422600d18c6c333c608c633c8
:10248000c6d5e0f41822253210af08f53240021507
:10249000338008f53240021533d2af22c0d0253246
:1024a00010af08f532500205338008f532500205ae
:1024b00033d2afd0d0222532f58210af08f53240aa
:1024c0000215338008f53240021533d2af853383cd
:1024d00022c5822532c582c583353310af07f53357
:1024e0008582328007f533858232d2afc5832225bb
:1024f00032f582e43533f583222532f584e4353331
:10250000f58522e473c0e0e8c0e0e58124fcf8e64c
:10251000a2e7d0e0f8d0e0225392fe2532c582c077
:10252000e0e53334ffc583c0e0e532c3958224f88b
:1025300010af088583338582328008858333858296
:1025400032d2afcef0a3e520f0a37821e608f0a3c5
:10255000defaeff0a3e58124faf8e608f0a3e60836
:10256000f0a3e608f0a30808e608f0a3e608f0a345
:1025700015811581d0e0fed0e0f815811581158117
:10258000e8c0e0eec0e0225392fe2532c582c0e0f2
:10259000e53334ffc583c0e0e532c3958224f910ea
:1025a000af08858333858232800885833385823204
:1025b000d2afcef0a3e520f0a37821e608f0a3dea9
:1025c000faeff0a3e58124fbf8e608f0a3e608f0b3
:1025d000a30808e608f0a3e608f0a315811581d04a
:1025e000e0fed0e0f815811581e8c0e0eec0e02201
:1025f0005392fe853383853282e0a3fee0a3f5206b
:102600007821e0a3f608dffae0a3ffe0a3c0e0e052
:10261000a3c0e0e0a3c0e0e0a3c0e0e0a3c0e010fe
:10262000af08858232858333800885823285833383
:10263000d2afd083d0825392fe0211185392fe85fe
:102640003383853282e0a3fee0a3f5207821e0a366
:10265000f608dffae0a3ffe0a3c0e0e0a3c0e0e0fb
:10266000a3c0e0e0a3c0e010af08858232858333c9
:102670008008858232858333d2afd083d082539253
:10268000fe22c0925392fec0d02532c582c0e0e542
:102690003334ffc583c0e0e532c3958224f210af26
:1026a000088583338582328008858333858232d2e0
:1026b000afc8f0a3e9f0a3eaf0a3ebf0a37921e718
:1026c00009f0a3d8faecf0a3edf0a3eef0a3eff03d
:1026d000a3d0e0f0a3d0e0f0a3d0e0f0a3e520f099
:1026e000a3e5f0f0a3d0e0f0225392fe853383857a
:1026f0003282e0c0e0a3e0f9a3e0faa3e0fba37814
:1027000021e0f608a3dffae0fca3e0fda3e0fea3ce
:10271000e0ffa3e0c0e0a3e0c0e0a3e0f5d0a3e0c9
:10272000f520a3e0a3f5f0e0a3c0e010af08858397
:10273000338582328008858333858232d2afd0e000
:10274000d082d083f592d0e0f8d0e032e584f0a3d7
:10275000e585f022e0a3f584e0f585227404800687
:10276000740280027401c0e0f4041224b6d0e012b6
:1027700022ce227404800a740380067402800274dc
:1027800001c0e0f4041224b6d0e01222db22d08390
:10279000d082e9c0e0e493a3c386f0c5f095f0f9d8
:1027a00008e493a386f0c5f095f0700be493a3c3ff
:1027b000994005e9048002a3e475f002a42582f59e
:1027c00082e5f03583f583d0e0f9e493a3c0e0e43b
:1027d00093c0e022c0e074f1122682759800e5a84b
:1027e000f8c2af9004c6e0d2e1f0753400e8a2e789
:1027f00092af1213377f010226e9c082c083539241
:10280000fe906059e0f8900497e028f0906058e05e
:10281000f8900498e028f090605a12283390605e97
:1028200012283390605ce0f890049ae028f0d0839e
:10283000d08222e0f8900499e028f022c082c08380
:102840005392fe900497e4f0a3f0a3f0a380de740b
:10285000f712258779001219a39003e912305bea79
:10286000c398f8eb99f9e82404fee93400ff9003db
:10287000f4e0fca3e0fdc3ee9cef9d402e9003f23c
:10288000e0fca3e0fd9003f6e02af8a3e03bf9e8c2
:10289000c39cf8e99df99003e9123046a3ecf0a33c
:1028a000edf09003f4ecf0a3ed80289003e91230f2
:1028b0006c9003f4c3e098f0a3e099f09003f41255
:1028c000305b9003eb1230469003f0e0700474022a
:1028d000800114f07ae77b031237a102312674f7e6
:1028e000122587e9600924fe601c1460198030906d
:1028f00003eee0a2e350099003f1e0602214801e91
:1029000054fb440880189003eee0a2e2500c9003c0
:10291000f1e064086009e004800454f74404f09096
:1029200003efe070089003ed74fff0804890600ab8
:10293000122d2c703d90618fe0c0e09003f1e0f823
:102940007408c398f8d0e0b800028004c313d8fc20
:10295000f52174ff6521700990600ae4f0a30480fa
:1029600010e5212401f8e43400f990600ae8f0a3ae
:10297000e9f012284f02312674f712258774fe12ef
:1029800024b612274ce924fc600624fe6029800d41
:102990009004b0e06401705f12170f805a90040c2d
:1029a000e064017012900406e4f07b09123105fa2c
:1029b00079001219eb8040900406e070089004043e
:1029c00074fff0803279001219a38a218b22a8218a
:1029d000a922900408e028faa3e039fb90618fe077
:1029e000541ff8ea28f8eb3400f99004001230463e
:1029f0007afe7b031237a102311874f7122587740f
:102a0000fe1224b612274c90045512305be82410b5
:102a1000fce93400fd90605ce060088c828d83e00e
:102a2000d2e1f0e8242efae93400fbe82430f58402
:102a3000e93400f58590605ae0700690605ee060d1
:102a4000318c828d83e0d2e1f0e40592f0a3f0e8ce
:102a50002420f582e9122d08122eaf74037821127a
:102a600024738a828b83e521f0a3e522f0790002aa
:102a70003118e8241cf582e9122d11fea3e0ff8530
:102a80008482858583e02ef0a3e03ff08a828b83e9
:102a90000592e0faa3e0fbc30592e09aa3e09b5005
:102aa000cc88828983a3a3a3a3a3a3a385828485bf
:102ab00083858c828d83e0a2e150047408800274c7
:102ac0003e0592f07b02888289830592a3a3a3a38b
:102ad000a3a3122d1e809874f512258774fe12246c
:102ae000b612274c900455e0fea3e0ff8e848f853c
:102af0000592a3a3a3a3a3a3a3a3e0fc7003022caa
:102b0000dcee242cf582ef122d0812305b8e828fc2
:102b100083a3a3a3a3a3a38582218583228e828f6f
:102b200083a3a3a3a3a3a3a3aa82ab83ee243212fd
:102b30002d0e687003a3e069701b74026c700302b1
:102b40002c7d74016c607374096c60348a828b8391
:102b50007422f0801dec146061147003022c7d243b
:102b6000fa602a14601a146009147003022cbc0263
:102b70002cdc7b02852182852283122d1e022cde15
:102b8000906008e0a2e65003022cdc80e5ee2437da
:102b9000122d01801388828983a3a3a3e0640370ac
:102ba00003022cdc88828983122d2c70e88a828ba8
:102bb00083e0641370bc74168098ee2453122d15b4
:102bc000ee244afcef3400fdea24fff523eb34ff4a
:102bd000f524e523687003e524697063ee244bf562
:102be00082ef122d328e828f83a3a312306c8c82df
:102bf0008d83e0c333f8e433f9e82403080808e9d7
:102c0000340012303d90049fe4f0a3f0a3f0a3f051
:102c1000900485e0a2e04003022cdc8c828d83e0ee
:102c2000f875f0e2a4c8aaf075f004a42af9e82423
:102c3000c0f8e93437f9906064123046022cdceabf
:102c4000687002eb696003022cdc752309752400af
:102c50007823122760ee2419122cf412249c90047d
:102c600085e0a2e05007eefaeffb12165be4059256
:102c7000f07b088521828522830592805ce824010f
:102c800008e93400f9ee245a122d0e687003a3e00f
:102c90006970497521057522007821122760ee249c
:102ca00055fcef3400fdee2422122cf412249cee8d
:102cb000faeffb121709e40592f08020eefaeffb21
:102cc00012133de40592f00592900485e0a2e050d5
:102cd0000b7b07852182852283122d247900853282
:102ce000828533835392fe122754740212249c7ff0
:102cf0000402263cfaef3400fb121f017402222466
:102d00001cf582ef1235c5221235c5059222f582d7
:102d1000ef123630221235c2e0faa3e0fb22122d68
:102d200024790122e0fa79001219eb2212305fe8cf
:102d300049221235c5122d392212305fe8c333f80b
:102d4000e933f92274f812258774fe1224b612278b
:102d50004c900455e0f584a3e0f585122ad7e9707c
:102d6000481229fae97042e584242cf582e585129f
:102d70002d112401f0a3e03400f0906008e0c0e0e1
:102d8000e5842434f582e585122d04d0e0f0e58455
:102d9000241cf582e585122d320592a3a3e028f0cc
:102da000a3e039f0059212304c85328285338312cc
:102db0002754740212249c7f0102263c74f71225ca
:102dc0008774fe1224b612274c9004a4ea241cf542
:102dd00084eb123035f8a3e0f9e8c333f8e9331295
:102de0002e9dacf08522f0a42cfc8521f0e9a42cca
:102df000f90592e028f8a3e039f98a828b83a3a32e
:102e0000858284858385e80592f0a3e9f090049f8c
:102e1000e0faa3e0fb900487e0f521a3e0f522eac5
:102e20008521f0a4caacf08522f0a42cfc8521f009
:102e3000eba42cfbe8c39af8e99bf9e824ff18e916
:102e400034fff9858284858385e8f0a3e9f0900456
:102e5000a1e0f8a3e0122e9d122e8d7a207b4e1257
:102e600023fb882189220592e09521f0a3e0952299
:102e7000f09004a612305b900487122eafe88521f3
:102e8000f0a4c8122e8de8123026023117aaf08560
:102e900022f0a42afa8521f0e9a42af922f9900463
:102ea00087e0f521a3e0f522e88521f0a4c822e01f
:102eb000f521a3e0f5222274f712258774fe12246f
:102ec000b612274c900455e0fea3e0ffee2410f567
:102ed00084ef123035a2e35008c2e3f005920230cd
:102ee000208e828f830592a3a385822185832290e1
:102ef0006062e0601079101219a385218285228317
:102f0000eaf0a3ebf0122ad7e9600302302312297a
:102f1000fae96003023023906008e0c0e0ee243458
:102f2000122d01d0e0f09061d5e0f89061d7e06813
:102f300005926005e0d2e28003e0c2e2f0059290e3
:102f400004a1e024c0faa3e03437fb906062e060a3
:102f50000e1239cb9004a61235ab12302680121215
:102f600039b59004a6122d35906064e028f0a3e0f6
:102f700039f0ee2429122d0e9004a3f0ee241e1237
:102f80002d01122d2c60498e828f83a3a3a3a3a3ae
:102f9000a3a3a3e0703aee2430122d15ea4b703053
:102fa000ee2437122d15ea4b7026e8240108e93487
:102fb00000f99004871230468521828522831230e1
:102fc0005b9004a4123046eefaeffb122dbc804455
:102fd0009004877401f0a3e4f0ee122cff12305b32
:102fe000e8c333f8e93312306585218285228305f1
:102ff0009290049fe0f8a3e0f90592e0c398f8a34b
:10300000e099f9e824ff18e934fff9852182852247
:1030100083123046123058ee242c122d0112306cdf
:1030200012304c0231182440f8e93438f9906064c9
:10303000e8f0a3e9223400f5850592e022f98e82ba
:103040008f83a3a3a3a3e8f0a3e9f022900455e0a3
:10305000faa3e0fb1237a12290048712305f22e02e
:10306000f8a3e0f922f9852182852283e028f0a3e4
:10307000e039f02274f712258774fe1224b6122765
:103080004c803dc2e5f01230f3e0f808089004ae41
:10309000e028f0123105c0e005921230f3d0e0f0e4
:1030a0009004aee004f0a3e004f0a3e004f0900488
:1030b000b2e0700c7401f07b007a0079001219eb19
:1030c0009004afe0f890605ae06860259004aee0ac
:1030d00004547ff52174802521f874603400f912be
:1030e0003105a2e7888289830592e05096d2e58077
:1030f0009480259004aee0547ff8748028f58274a3
:10310000601235c522900455e02406f584a3e0340e
:1031100000f5850592e022f08532828533831227ff
:1031200054740212249c7f0202263c74f5122587f7
:1031300074fe1224b612274c892105929004551270
:103140003577858284858385a3a3a3a3a3a3e0a267
:10315000e740479004b1e0f8906054e0c398f5224e
:103160009004b1e02522f0ae82af838012ee2437c6
:10317000faef3400fb121631ea4b60031218118586
:10318000222374ff2523f5220470e2e521a2e64004
:10319000097900eefaeffb121787022cdec0e0740b
:1031a000f11226828535c675a70075a100795012e7
:1031b00019c17f010226e975bf0032c0e0c0d07599
:1031c000d008c092c082c084c083c085c0f085355d
:1031d000c6e591fe759b00f4f591eea2e050031256
:1031e0003074eea2e55004f912312beea2e7502024
:1031f000e5a8f8c2af5392fe9004c6e0d2e01239bf
:1032000035e594a2e24009759403e594a2e250faf0
:10321000eea2e640030232a55392fe906061e0f90f
:103220009004afe4f09004b1f0900455122d188a88
:10323000828b83a3a3a3a3a3a3e024046010146040
:103240000814700f1228de8054122978804f12164d
:1032500055804a906060e064806032e0c0e0ea241b
:1032600011f582eb122d04d0e0f0906060e0c0e038
:10327000900455e0242af584a3e0123035fa7460f6
:103280002af5827404122d04d0e00592f090048592
:10329000e0a2e05005122eb78003122d441227fa47
:1032a0001216438004a2e750031237e0d0f0d08515
:1032b000d083d084d082d092d0d0d0e03274f712b4
:1032c000258774fe1224b612274c900455e0fca307
:1032d000e0fd123058ec2427f582ed122d04ec2489
:1032e00029f584ed3400f5857401687001e97017e3
:1032f0000592e0f80592e028fac39425400474dbb7
:103300002afaea05928025e0f521e88521f0a4f863
:10331000aaf08521f0e9a42af90592e0fae82af852
:10332000e93400f97a257b001223fbeaf074075a8e
:10333000f87401b800028004c333d8fcc0e0ea137b
:103340001313541ff8ec28f8ed3400f9e82422f5a3
:1033500082e9122d04d0e0f80592e058702a800529
:10336000e0cac39afaec24e3f582ed122d11f8ead3
:10337000c39850ec8a21ec2521f8ed3400f9e824bb
:10338000bef582e9122d11faec242af582ed122df8
:1033900004ea02311774f612258774fe1224b6125d
:1033a000274c900407e0906001f09009b91222b612
:1033b0009061951222c212179390040ce0fe7401e2
:1033c0006e9004057040e05402f97a0d7b041216e9
:1033d00079900405e0a2e050097a917b04752140c0
:1033e00080077a8b7b04752100a2e150047e8080e7
:1033f000027e0075230678231227647c0d7d04e588
:10340000214e44018064e0a2e050087a917b047868
:103410004080067a8b7b0478000592900432122754
:103420007f7c137d048e2174bd2521f582740912e1
:103430002d08e048f912167f740112249cee6005f5
:1034400074026e702e900405e0a2e050087a917b21
:1034500004784080067a8b7b0478000592900452b1
:1034600012277f7c337d04e84404f912167f74012f
:1034700012249c900405e0a2e0e433f9121673755f
:10348000910090618274c0f0853282853383122767
:1034900054740212249c7f0302263cc082c08353d2
:1034a00092fe9003f0e004f064037002e4f0e02484
:1034b00025906000f09009b91222b6906195122211
:1034c000c29003eee05420f9121673121793900382
:1034d000eee0a2e15004d2f08002c2f0a2f0e433a8
:1034e00090600cf09003eee0a2e1503575d90da28a
:1034f000e55004784080027800e84403f5d9e0a262
:10350000e550067a917b0480047a8b7b047906125d
:103510001649740675d9001470fae5e170fc75e17e
:103520009575910090618274c102282d74f812255e
:103530008774fe1224b612274c1235b01222b690b0
:1035400061951222c21235e3f584ef3400f58585ca
:1035500084828585831235ca2410122d0ea2e25072
:10356000111235750592a3a3e02402f89061d5e00d
:1035700028f0022da90592e0f582a3e0f5832274dc
:10358000f81225871235b01222b69061951222c228
:103590001235e3122d011235ca122cff1235ab245d
:1035a000fcf8e934ff12303d022db7122d39e82224
:1035b000900455e0fea3e0ff121793ee241212359b
:1035c000c222f582ef3400f5832212305fee2435fb
:1035d0001235c2e8f0a3e9f07900eefaeffb12171a
:1035e00087ee22ee243412362d906008f0ee241679
:1035f00012362d906005f0ee241712362d906006dd
:10360000f0ee241812362d906007f0906060748000
:10361000f01232bdee242a12362d906000f0759122
:10362000009004bbe0906182f0ee243722f582ef37
:103630003400f583e02274f412258774fe1224b658
:1036400012274ceafcebfd7e007f007a5c7b048c49
:10365000828d83a3a3858221858322800ce5232488
:1036600004f8e52434001230658a828b83e0f58407
:10367000a3e0f585e58445857003023779a884a920
:103680008588828983a3a38521848522850592e08c
:10369000f523a3e0f5240592e0c39523f523a3e0e9
:1036a0009524f524c3e5239404e52412391e4039fa
:1036b0008c828d831230468c828d83a3a3a3a38535
:1036c000828485838512305bc3e52398e524995075
:1036d0000d858482858583e523f0a3e524f08a8225
:1036e0008b83ecf0a3ed023789c3e52394fde52439
:1036f00094ffa2d265d03340478c828d83a3a3a3cd
:10370000a3a3a3e0a2e7500302365d88828983a3c6
:10371000a3a3a3a3a3e0a2e7502688828983e0f5b0
:1037200023a3e0f5248a828b83e523f0a3e524f02c
:1037300088828983eef0a3eff0e8fee9ff023669a4
:1037400088828983a3a3a3a3858284858385c3e418
:103750009523fae49524fbe0f523a3e0f524c3eade
:103760009523eb9524500b858482858583eaf0a30d
:10377000ebf0e8fae9fb0236698a828b83ecf0a36e
:10378000edf08c828d83e4f0a3f0eefaeffb85324e
:1037900082853383122754740212249c7f050226eb
:1037a0003c74f712258774fe1224b612274cea4b9c
:1037b000602ba2afe433fec2af1236368a828b830f
:1037c0008010aa82ab838582848583851235751229
:1037d0003636e582458370eaeea2e092af023118f8
:1037e00074f512258779001219a38a238b2479771f
:1037f0001219c19061b1e4f0e070f87401f0e06476
:103800000170f890045c12305b900455123046e869
:10381000497012123926e594a2e250037594001201
:10382000187d022cef88828983122d1890045cea9f
:10383000f0a3ebf088828983a3a3122eaf8882893c
:1038400083a3a3a3a3e02521faa3e03522fbea2466
:10385000fdfeeb34ffff88828983a3a3a3a3a3a368
:10386000e024046012146005146007804712339549
:10387000805212349b804de521c39523e522952487
:10388000c312391e5029e5232401f521e524340013
:10389000f522c3e5219ee5229f400ae5212401fe91
:1038a000e5223400ff9003e9e521f0a3e522f012c0
:1038b00017998010900485e0a2e0500512352c8005
:1038c0000312357faa21ab2279301219b5eefaef37
:1038d000fb79401219b579541219c1e521c395231a
:1038e000f8e5229524f9c3e89401e912391e500d38
:1038f0001217abe5e170fc75e12102381f900369f6
:10390000e0a2e04013aa21ab221219af90049b124f
:1039100022c212392602381f1217ab02381f940038
:10392000a2d265d03322e5a8f8c2af9004c6e0c2a7
:10393000e012393522f0753400e8a2e792af220098
:10394000853487c2af22c0e0c0d075d010c092c00d
:1039500082c083c0f074fc1224865392fe9004c788
:10396000e0601712166d900369e05411700375c67c
:10397000879004c7e4f0c2c78026c2c7853282851b
:103980003383aa82ab831217a5e9640170129004f5
:10399000c77401f08532828533831222b612187102
:1039a000753400740412249cd0f0d083d082d0925d
:1039b000d0d0d0e03275c3007420c39afa744e9b05
:1039c000fbeaf5a2ebf5a35392fe22c02175c301d9
:1039d000e5a2f521e5a375c300f9e5212420f8e966
:1039e000344ef9e8c39af8e99bf9e8f5a2e9f5a3a2
:1039f000d0215392fe22c082c08374fc122486e53b
:103a0000a8f8c2afe5958532828533835392fef0e4
:103a1000e596c0e074011224efd0e0f0e597c0e035
:103a200074021224efd0e0f0e8a2e792af74031220
:103a300024efe4f08532828533831222b6740412b7
:103a4000249cd083d08222c0e074f11226821239e5
:103a5000f690060c1222c2e58955ab900610f0e5ef
:103a600080900613f07b007a0079061219eb7589b5
:103a700000c2c57f010226e9c0e074f1122682125d
:103a800039f690060c1222c2e58a558d900611f087
:103a9000e590900614f07b017a0079061219eb7517
:103aa0008a00c2eb80cdc0e074f01226829061a93a
:103ab000e4f090061ae0640f7012e5c7f890036a0c
:103ac000e0f5c790ff1ce0f4f5ae88c7e5bbf9e56b
:103ad000bafae9fb90061ae0c333f8e433f9741b31
:103ae00028f582740639f583eaf0a3ebf090061a04
:103af000e02410fb7a0079061219ebe5a8f8c2afb2
:103b00009004c6e0c2e2f0753400e8a2e792af7f0d
:103b1000020226e9c0e0c0d075d008c092c082c0c1
:103b200083c0f0e5d1f875d100c2c0a2e350097b93
:103b3000037a0079041219ebd0f0d083d082d092ae
:103b4000d0d0d0e032c0e0c0d075d018c092c02133
:103b5000c022c082c083c0f05392fe9007f9123c8d
:103b60005e602b9007b4e0700c7401f07b007a006b
:103b700079041219ebee9007f9f0e5c1c0e074fb8f
:103b80002521f58274073400f583d0e0800be5c46d
:103b9000a2e650069007b37401f0023c4dc0e0c0ad
:103ba000d075d018c092c021c022c082c083c0f09e
:103bb000c2e95392fe9007b6e0fa9007b5e09a5436
:103bc0003ff860258a2174b72521f5827407123cdd
:103bd000d29007b6f089c19007f7e06870197b02b0
:103be0007a0079041219eb800ee5a8f8c2af9004b0
:103bf000c6e0c2e3123cc88054c0e0c0d075d01803
:103c0000c092c021c022c082c083c0f05392fe90f7
:103c10000883123c5e602a90083ee0700b7401f04d
:103c20007b00fa79041219ebee900883f0e5f9c0f5
:103c3000e074852521f58274083400f583d0e08096
:103c40000be5fba2e6500690083d7401f0d0f0d0e1
:103c500083d082d022d021d092d0d0d0e032e0f5f3
:103c60002174012521543ffea3e06e22c0e0c0d0a4
:103c700075d018c092c021c022c082c083c0f0c2db
:103c8000ea5392fe900840e0fa90083fe09a543fd1
:103c9000f860258a2174412521f5827408123cd2ee
:103ca000900840f089f9900881e06870197b027ae9
:103cb0000179041219eb800ee5a8f8c2af9004c692
:103cc000e0c2e4123cc88085f0753400e8a2e792b7
:103cd000af223400f583e0f974012a543f22c0e09a
:103ce00074f0122682906206e0f89008dbe048f05b
:103cf000906202e0543ff52175220074047821128d
:103d000024739008dbe04521f0a3e04522f09062a7
:103d100004e0543ef52175220074097821122473c1
:103d20009008dce04522f09008dbe054046007e0f6
:103d300054fbf0121e3b9008dce054016013e05489
:103d4000fef09008eae060097b037a007907121917
:103d5000eb121e659008dce05420600de054dff0ab
:103d60007b027a0079071219eb758b00c2e87f029b
:103d70000226e9033f0000030004280d980890077d
:103d8000900194011b0195111b08f00939821f0e47
:103d9000a4fecd82210622fb381818162118f0ef58
:103da0003818f2ed3828f2eb3868f003392a1fe7ab
:103db0003f08f00428ba3868f0393c08f1053c881f
:103dc000f1173ca8f10e3ce09f2c1f0128104a2956
:103dd0001fd63f15d0033827d00938009004289ffc
:103de0003f0128154101980128014a25d01f3804b8
:103df0001f831f0ea4fecd0422053814212028079e
:103e0000a0083f0628681527d0e939202807d0f2f6
:103e100038832178f10238042188f1083d0628a171
:103e20004001f004288438042807a005284d1528ef
:103e3000f1163c68f1143d77cf1240599202d80f29
:103e40003912d00739699222d00439799242d004cc
:103e5000380528ef151e3fc09f04286c3f08f1234a
:103e60003c88f1203d094028f1103d4540f7c759f5
:103e7000f2083d9303131183e1b9f00f3c23e00de9
:103e80003f09d8ea38f9c30b3f68f1033d59f2f214
:103e90003c09d8f9390528bd150528f01501900110
:103ea00028214a051f48f00c3c08f10a3868f10344
:103eb0003c98f106390c960528f9150228843f47ed
:103ec000a00c960528f315531f0528e31507288c29
:103ed000ed0528ec1501280195711b01280ce4055e
:103ee00028e515511f88f10b3808f1073868f109ea
:103ef000390128214201f00b3947d0093835210614
:103f00003f28f1033838f10339351f341f04280cda
:103f1000e047d0033903280ce80528c815571f28a7
:103f2000f00638561f811f021f38f0063930215b1a
:103f30009005283b15fd3f88f1033d0428f7150542
:103f400028811547d0133808f10f392c470cf00c95
:103f500038c403b4125c110c3e04f00a38c103806b
:103f60002801a0411b063f3021043f07284ced4c9f
:103f70001b5b9047d0173827d00328e8390ea4fee2
:103f8000cd02220d39002208381021002914e00347
:103f900028dd3c4c1bf13f05289e15ee3f461812cc
:103fa00021033f0528021588f13039052811150134
:103fb00028fb41302100291be00a3d0428f61505a5
:103fc000280715f6c35192166a3b906b080428ed3a
:103fd000150428fe150bf0fb3917d004382d1f01ee
:103fe00028c43f0328214701f0083903283147013d
:103ff000f00439a2958090033fc29500920328b641
:1040000015201b54900128b33f08f10539052111f3
:10401000900128214a38f103390021023f30211054
:10402000216a030428c2156b033141224128f1099a
:104030003d02f00239f29101f00b39ff28f19108ad
:104040003f02f00239529201f00339ff28f193f751
:10405000cb1b06023907a4b20c073d47d003286edc
:104060003824900328753f1690b6080428b115a689
:10407000030428ae153be0f7ce28f1703c01280779
:10408000a0f090a00668f1323d149030f005393868
:10409000f103285e38073f50f003285a3958f103de
:1040a00028573838f104380328ab15033f03288913
:1040b0001503287515012807d0033907a1563f427b
:1040c0004130f00c3907a112d0033807d84e388799
:1040d000a0c14041d04a38f7ce483f38f1033822da
:1040e000d0443807d8423907a1403f78f112384709
:1040f000d02d3800f0033860f00639c14011d007e8
:104100003887a0113f10f0033820f0ab3977cf0b80
:104110003f00f0033810f0a539414181d004390344
:10412000285015093f03286c1568f10539414141b4
:10413000d0023907b810f0063903283115012807d5
:10414000d0033807d8123907a1103f40f00228fced
:10415000390328141507d8f838083fa103834031e4
:1041600012310511d0023907a14bf0063c04281d7d
:104170001504282e15fa3f042818151bf0fd3d38ac
:10418000f103380328a115f7cd0328214701f005d5
:10419000390328314701f0033807a2f7ce224082c5
:1041a000d00a3806030428141506937606261196bd
:1041b0000404280e1571034112002871c021070460
:1041c00038e7cf4198043f17d00439519807282188
:1041d0004817d00538f295202800901d3f07d204db
:1041e00038c2950092183f07d10438d29500941335
:1041f0003f07d40438e29500980e3f809028f10ada
:104200003d3190a10631f0063903a4b2950228aae7
:104210001500a1a2950228a615201b28f1633d08d0
:10422000f10a39012807d00739072851411128c15f
:104230004a012807a017d20539e3cf8ad0023813e4
:10424000a007d20539b3cf4ad0023843a083d01e8d
:104250003931031112310521d0073931990728214d
:1042600048002915e0133f529502287c154540036c
:10427000d10d39429502287615281f21990728214a
:104280004803d20438629502286d1573cf8348081d
:10429000f1093977cf17d0063907d203390ad1028d
:1042a0003887a0349007d2073807d80338309054a5
:1042b0003f07a8023ff7c718f15a3927d04c3931c8
:1042c0004011d0493987d0073917d0453907d20373
:1042d000390ad1413805f04b39414001f048385096
:1042e000903b3f68f1153878f13938149017d03d7c
:1042f0003907d23d3987d003383490393f07d13759
:104300003911900128214a409003286e15253f4716
:10431000d01c38249007d30c3911900128214a87ea
:10432000d008385144002911e0043a514c02387742
:10433000cf17d01b3987d003383490193f07d317d4
:1043400039c14021d01438073f17d00f3907d303a4
:10435000383090023f009044900a3f249017d005d7
:104360003907d305393490033fa09f44900221c1ff
:1043700090511b8121342124f0083927d004390cb5
:104380009cfd2bae3f10904490b7cf34f00e3953c4
:10439000210328e195711b541f0f28cc9506282175
:1043a00041f1c081111c09143f0190511b0728f1f4
:1043b0009f711b802114f00128863854f0fd2b0ad0
:1043c000380128ad3f541f032864151028cced0395
:1043d000286d1576217821501f0128a29a2170019d
:1043e000b2218001b221802ce303286015742101e1
:1043f00028ace408f1073c88f1033d022897150337
:10440000282115011f0128349d03285015201f0065
:104410002168f0093d069058f0033907283641021b
:10442000289315fa3f0728504078f10439331f329a
:104430001f0421500000dc01287c3828f1103d8346
:1044400040f7cb31031112310521d0033903d103d9
:104450003900d8103807a41b901a90163f00d801d5
:1044600028683998f107394b700128e2412b080080
:10447000288e3f102807a04b701bf0fc2bed3c4a08
:1044800070224128f1303d02f00239f29112e0b27f
:104490000cfc2be23c419031061111ff2be29f32c4
:1044a00004520022111a042a043240002862c01863
:1044b000f1033927d00d3922f0093907280141b11c
:1044c00009002921e0093a0aa1073f42f00339fa1d
:1044d000ce033f62f0f93818f1253977cf0ad1229f
:1044e0003887a0203f02f00239529212e0b20cfc51
:1044f0002bb33c68f1123d38f1153887d0133901e0
:1045000028314201f00f38402807a0072891423196
:10451000c0c1a00728914a063f02280190710621d8
:10452000121a04ff2bf29fb2084be0a60302280cdc
:104530001526030228091568f1293cfbf0273c6287
:1045400090467002280115d2370428609662904682
:1045500070062d0128f915c23778f11839d04000be
:10456000d81538dbf0133c829046700128ed15d247
:1045700037764400d40338060e023f060d41700121
:1045800028e315417086120128df153290b20c0520
:104590003d46700128d915fb3f08f10639417211db
:1045a00028c14a012807a0ef28f7cf28f11e3d8334
:1045b000403090a00631031112310521d003398219
:1045c00095043f30f0043972950028cc1553c84348
:1045d000d0023823a007d4023803a130f0023903f7
:1045e000a2834892950028be1506900bf00538016d
:1045f00028ab15591ffb3f0ea4fecd012204390242
:10460000286a15fa3f551f1121031f249008f10f46
:10461000390ad1033987d02438314011d0213905e6
:10462000f02139414001f01e3850901b3f48f107fe
:104630003828f1033858f1063987d0143877cf1469
:1046400090113f78f1053911900128214a093f98ce
:10465000f10939829500288a15281f5490033f00dc
:104660009044900ea4fecd0322043902283415fa9a
:104670003f13212c1801210321741ff1900000f138
:10468000370190511b0728f19f711b8021322107b0
:1046900028914231c00728914abf28f7cf28f10658
:1046a0003c88f1043d92955e15281f44f03838147b
:1046b000f00a3854f0fb2b8e3801280ce40128f660
:1046c00015fc2b023f01289015009027d0283902b5
:1046d000d8083838f12439329001289215e2371978
:1046e0003f19e089f2043c38f11a39599238f10344
:1046f000390128861512409103002951e2120e1249
:10470000d0f038012886150128b9151240012891ea
:10471000153199072821482c18fe2b553f012810e8
:104720004a0028a915fb2b2b3ff09f043fd09f0286
:104730003fb09f0028d0152c1ff23f28f1053c68a0
:10474000f1033d1490053f2090023f1090449041aa
:10475000980728214838f1fe2b0a380028b515fea5
:104760002b063f217011e021800200012821410722
:10477000282148217811e021880200f7c7761571b9
:10478000033112a10501d4023907a8042864963127
:10479000150238f7c70428c4f6fb3c0200fe28f7d0
:1047a000cf641551417111a10501d80339012807c2
:1047b000a064911f150338fe28f7cfc4f1fb3c021b
:1047c00000f7c753155141022807a00ad40339fd49
:1047d00028f7cf5111a10501d4023907a8c49104cb
:1047e00028659607150238f7c7563124f2fb3c02bc
:1047f000000028db150028ec15412d160c0200f7ef
:10480000c73415d032d332234268f109394141907f
:104810004041d0043850000306023f0303314202f6
:104820002807a00ad404395100fd28f7cf13064405
:1048300092042865960028b9150028ca155631ff3c
:1048400028e19f4070060c023813068ea081006498
:10485000e044f5f83c0029f4e2a4f2ed3c03f00258
:104860003807a8d32fd02f02009bf0023c0200078c
:10487000a12de0020098f10938102807d00339086b
:10488000f1043831990728214808f10c390128072b
:10489000d00938072851411128c042010c033807bc
:1048a0002850491190082807d005380628b148f744
:1048b00028f7cf042807d005380628a148fb28f799
:1048c000cf3021291f0200311fff28f19f411b30eb
:1048d0001f3121020002210121032153230938063f
:1048e00028d14001d112384198072821480b3f5464
:1048f000230c385021f1910000f137741ff1900022
:1049000000f13768f0023c2b1f0190511b812107f9
:1049100028f19f711b80210728914231c0072891ff
:104920004abf28f7cf322134210200082807d007d8
:10493000390628b14001f00438082807a002000415
:10494000280d98fe2bf43f402807d00d390ea4fe09
:10495000cd012204390028bf15fa3f661b11210042
:10496000291be002000728a64a0ea4fecd0122045e
:10497000390028b115fa3f01283142b10941e0055b
:104980003a08384bf00c38ea3d0728a142611be792
:104990003f0728914271cf0728914af73f07289196
:1049a0004281a20728914ada3f0ea4fecd022204da
:1049b0003900289115fa3f4618122100291be01be7
:1049c000f00639581f0628e0400128004a02001767
:1049d000d00a393122063817a04198072821480308
:1049e0003f0728a6480200124038f1093802d807cc
:1049f000399103002941e2120e120d1248020047bc
:104a0000a07b280c9c10215215ff2b5e15b7cf02fe
:104a10000059f203396391083f69f20339e39204c4
:104a20003f79f203394396020004280d98fa2b14bb
:104a30003f02d407389103002901e2117006286172
:104a400048020088f10a3c012831410728814ab117
:104a5000460328314fa1460f3f0728894a28f1060f
:104a60003d31440328314f5140053f5528519503ae
:104a700028314f81110328214f0200e3f3033cf159
:104a800090033f23e051920628614a0628434802da
:104a9000007b21772141900000f137702175217a48
:104aa000218cee0415521f801f02004c1b001f4773
:104ab000d0033827d009390ea4fecd002203390bcc
:104ac00015f73f1021020004280d9838f1fe2b271e
:104ad00038fe2b3c3fd23202180119210601d41aac
:104ae000381218162162f003392a1f2d3f12f215d1
:104af0003822f22838fe2bef1568f0063c61900151
:104b000028114afe2bb8153021280304280d98f9e6
:104b10002b373f01d114381421202807d00d3878c5
:104b2000f1123904231038714401f0023981440034
:104b30002911e0714c083f202807a0053f01d2054c
:104b400038152127a0d22f020011d00638102104d9
:104b5000280d98fd2bf33ff2ce5200121bf43f00bc
:104b600001000002000000e11a0000000100000046
:104b7000000b1b00000002000000001d1b000300d2
:104b80000324000000ff1a000200040400000005d6
:104b90001b00000005000000004d1b000000060087
:104ba000000000b31b0005000726000000651b0085
:104bb00000000800000000ef1b0002000982000056
:104bc00000471b0007000a2a000000f51b00070031
:104bd0000b2a000000fb1b0000000c00000000017d
:104be0001c0002000d220000003b1b0003000e22ef
:104bf000020000411b00000100000000005f1b00dc
:104c000000010100000000e31b00000102000000a1
:104c100000531b0003010384000000711b0002010c
:104c200004040000006b1b00020105040000005991
:104c30001b0001010602000000111b000301078494
:104c4000000000171b0004020024080000bf1b0026
:104c500004020144000000991a000202020400004c
:104c6000009f1a00030203220800008d1a000202ae
:104c70000422000000931a00010300020000007be0
:104c80001a0001030102000000e91b0009030242af
:104c9000440400751a0001030302000000f91a0021
:104ca00001030402000000e71a000203058200006d
:104cb00000ed1a0001030602000000f31a000103d0
:104cc00007020000006f1a0002030882000000457e
:104cd0001a0008040042440800811a000604014238
:104ce000840000a51a0006040242840000b11a00e4
:104cf00005040342040000ab1a0003040442000050
:104d000000b71a0004040542080000c31a00040496
:104d10000642080000db1a000104070200000087b9
:104d20001a0003040842000000bd1a0006040942ec
:104d3000840000c91a0002040a22000000cf1a00f1
:104d400002040b82000000d51a00020500220000b8
:104d500000351b0001050102000000c51b00010514
:104d60000202000000d11b0003050322020000cb59
:104d70001b0005050462000000d71b0000050500ac
:104d8000000000ad1b00010506080000007d1b00af
:104d900002060022000000771b000206012200002c
:104da00000891b00010602020000008f1b000f0695
:104db000032a444400a11b0000060400000000a7d1
:104dc0001b0008060544440000951b00030606224c
:104dd0000200009b1b0005060744020000291b007f
:104de000050608440200002f1b000206098200008d
:104df00000231b0007060a2a000000831b0003078c
:104e00000022020000191c000607012602000025ee
:104e10001c00030702220200001f1c0002070322dd
:104e20000000002b1c0002070422000000311c00bf
:104e300003070522020000371c00030706220200b8
:104e4000003d1c0002070722000000431c0006076b
:104e50000822222200551c00020709820000005b84
:104e60001c0003070a22020000491c0003070b2252
:104e70000800004f1c0001070c02000000b91b00d5
:104e800005070d22420000611c00030800220200f9
:104e900000511a0001080102000000571a00000822
:104ea00002000000005d1a0000080300000000631b
:104eb0001a0000080400000000691a000108050833
:104ec0000000004b1a0001090002000000671c00ee
:104ed000040901060000006d1c0001090208000021
:104ee00000731c0000090300000000791c00000092
:104ef0000000000000071c00000001000000000787
:104f00001c000600020a000000071c000200030447
:104f1000000000071c0003000424000000071c0020
:104f200005000522220200071c0001000602000005
:104f300000071c0005000786000000071c000c008d
:104f40000844442402071c00020009040000000772
:104f50001c0002000a04000000071c0002000b04f1
:104f6000000000071c0000000c00000000071c00ef
:104f700003000d84000000071c0002000e04000066
:104f800000071c0000010000000000071c000001d9
:104f90000100000000071c000001020000000007e3
:104fa0001c0002010304000000071c00030104842c
:104fb000000000071c0000010500000000071c00a5
:104fc00002010604000000071c00000107000000a9
:104fd00000071c0002020004000000071c0007027a
:104fe0000144840000071c00050202440800000779
:104ff0001c0000020300000000071c000002040067
:10500000000000071c0003030042000000071c0012
:1050100002030132000000071c00030302420000eb
:1050200000071c0003030342000000071c000203ea
:105030000482000000071c00030305420000000773
:105040001c0003030642000000071c0001030702c6
:10505000000000071c0001030802000000071c00fc
:1050600003040042000000071c000304014200008a
:1050700000071c0003040242000000071c00030498
:105080000342000000071c00030404420000000764
:105090001c0003040542000000071c000304064234
:1050a000000000071c0002040704000000071c00a9
:1050b00003040842000000071c000304094200002a
:1050c00000071c0003040a42000000071c00030440
:1050d0000b42000000071c0003050042000000070f
:1050e0001c0000050100000000071c00020502046e
:1050f000000000071c0000050300000000071c0062
:1051000002050404000000071c0001050502000060
:1051100000071c0000050600000000071c00000638
:105120000000000000071c00020601040000000748
:105130001c0002060204000000071c0003060324f2
:10514000000000071c0002060404000000071c0009
:1051500003060524000000071c00020606040000e8
:1051600000071c0002060704000000071c000206de
:105170000804000000071c000206090400000007e4
:105180001c0002060a04000000071c0002070004bd
:10519000000000071c0002070104000000071c00bb
:1051a00002070204000000071c00020703040000bd
:1051b00000071c0002070404000000071c0002078f
:1051c0000504000000071c00020706040000000799
:1051d0001c0004070724020000071c000207080443
:1051e000000000071c0004070924080000071c0039
:1051f00003070a84000000071c0001070b020000df
:1052000000071c0000070c00000000071c0002073c
:105210000d04000000071c0000080000000000074b
:105220001c0000080100000000071c000208020426
:10523000000000071c0000080300000000071c001d
:1052400001080408000000071c0001080508000010
:1052500000071c0000090000000000071c000209f4
:105260000104000000071c000209020400000007fe
:105270001c0002090304000000071c800c0000440d
:10528000442402071c8001000108000000071c8064
:1052900002000222000000071c800200032200001e
:1052a00000071c8004000444000000071c8000006c
:1052b0000500000000071c800301008400000007b7
:1052c0001c8007020022440800071c8006020142dd
:1052d000240000071c8003020224000000071c8039
:1052e000100300222a4424071c80060301224400e4
:1052f00000071c8002030282000000071c800203da
:105300000382000000071c80030304420000000722
:105310001c8003040042000000071c8005040142b9
:10532000040000071c8006040242840000071c8061
:1053300007040342240800071c80040404420800f8
:1053400000071c8005040542820000071c8002043f
:105350000682000000071c800305002208000007e9
:105360001c8003050142000000071c800505026245
:10537000000000071c8001050302000000071c80dc
:1053800004050422220000071c800b0600232a8249
:1053900000071c8002060122000000071c8007078e
:1053a0000026220000071c80010701020000000700
:1053b0001c8003070252000000071c80040900063d
:1053c000000000071c000000000000000000004773
:1053d0000a0f650a08750a057f0a09910a0ca90acd
:1053e00007b70a0bcd0a0ee90a06f50a0474f7128c
:1053f00025189004d1e0f5217900800774ff25215c
:10540000522109e52170f5026a5b74f6122518e94c
:105410009004d37006e054fbf08017e04404125966
:105420007e122760eafcebfd7ad57b04126d6d12cb
:10543000249c02597974f712251874fe1224b612ae
:10544000274ce975f075a4f8a9f012549924691253
:1054500060201255faea4b703de584246712602003
:10546000e4f0a3f0900365e028faa3e039fbea2416
:1054700069f582eb1260247431f0a37419f01254b0
:10548000992467fce5853400fde584246ffae58501
:105490003400fb121637026a4d900365e028f5844c
:1054a000a3e039f585e5842274f612251879007594
:1054b0002101752200e978211224739004d1e0556e
:1054c00021600709e9c3940840e57408697002790e
:1054d000ff025979c021e9faa2e050057521038045
:1054e00003752100a2e15004780c80027800e842a4
:1054f00021eaa2e25004781080027800e84521f900
:10550000d0215392fe02111874f512251874fe1260
:1055100024b612274c8921740d1224efe0f8a3e081
:10552000f9752300802f852382ae82e82ef582e96b
:10553000126024ec2ef584ed3400f5850592e0f53b
:10554000220592e06522c0e0ea2ef582eb1260248b
:10555000d0e0f00523e523c3952140ca853282853a
:105560003383122754740212249c7f030225f074a3
:10557000f71225187521008017852182ae82ec2e46
:10558000f582ed1269eaf8ea2e1269e768f0052162
:10559000e521c39940e3026a5b74f612251874fe94
:1055a0001224b612274c8a848b8575210875220037
:1055b00078211227607ae57b04126d6d12249c78a5
:1055c000211227607c007d007aed7b04125cc412fe
:1055d000249c7521e575220478211227607ce57de5
:1055e00004aa84ab85126cc612249c9004e5125563
:1055f000fa02596b853282853383e0faa3e0fb22fd
:1056000074f412251874fe1224b612274c8a848b67
:1056100085740e1224efe0f8a3e0f974101224ef61
:10562000e0f521a3e0f5229004e5ecf0a3edf0a372
:10563000e8f0a3e9f075230c7524007823122760a5
:105640007c007d007ae97b04125cc412249c7821e2
:105650001227607ce57d04aa84ab85026ca974f4f2
:1056600012251874fe1224b612274ceafeebff74c2
:105670000e1224efe0f521a3e0f5228c238d24788f
:10568000231227607910900361e024021268b1aa06
:1056900021ab221218a1740212249c7821122760d7
:1056a000ac21ad22126cc212249c900489e0a2e0cd
:1056b00050067c917d0480047c8b7d04900485e001
:1056c000a2e050047a0080027a067906e5212afadf
:1056d000e5223400fb1218a7900485e0a2e05005f3
:1056e00075230680037523007906900363e075f047
:1056f000e4a4faabf00592900453e02af582a3e00b
:105700003bf5830592a3a3a3a3a3a3a3a3a3ac8266
:10571000ad83e5212523fae5223400fb1218a77892
:1057200021122760ac21ad22eefaeffb026ca974c6
:10573000f612251874fe1224b612274ceafeebff6f
:10574000740c1224ef125cee75210375220078218f
:105750001227607ae57b04126d6d12249c75210d71
:1057600078211227607c007d007ae87b04125cc4fb
:1057700012249c7521e575220478211227607ce5ae
:105780007d04126cc212249c7521037522007821bd
:105790001227607ce57d04aa84ab85126d6d026ed4
:1057a0006374f612251874fe1224b612274c127078
:1057b00047640a7521107522000592782160030262
:1057c000585c122760900361e024421260d21224d8
:1057d0009c7521e5752204782112276012688c12cd
:1057e000249c7521107522007821122760125cd646
:1057f0007ae57b04121efb740212249c8b22ea457c
:105800002260117904eefaeffb1218e3126037e41c
:10581000f00258fb126c77eefaeffb12194f75216c
:105820000875220078211227601259161260d212d0
:10583000249c1259068a218b220592782112276016
:10584000125a10126cc612249c12593d1227601273
:10585000592012249c126037740b80b41227609078
:105860000361e024321260d212249c7521e5752276
:10587000047821122760900361e0243212689212aa
:10588000249c75211075220078211227601268abc4
:105890007ae57b04121efb740212249c8b22ea45db
:1058a000226003025803752108752200782112270f
:1058b000601259161260d212249c0592900361e086
:1058c0002453125cca7821122760125a10aa21ab05
:1058d00022126cc612249c12593d122760125920c4
:1058e00012249c1260377406f07c007d00059290b3
:1058f0000363e0f9eefaeffb121769853282853314
:10590000835392fe806b0592900361e024531269e9
:10591000efaa82ab8322126c7b900361e0244a22bf
:105920007c007d00900361e02af8a3e03400f9e8f0
:105930002453fae93400fb121f07740222126c96fa
:10594000f52195e0f5220592782122126db51259c4
:105950007e1227608a828b83a30a126d6b12249cad
:105960007c067d00aa84ab8512160d8532828533b4
:1059700083122754740212249c7f020225f0f075d2
:10598000211075220078212274f612251874fe1257
:1059900024b612274c12704764047521107522003a
:1059a000059278217021122760900361e024221271
:1059b00060d212249c125a10eefaeffb12194f1209
:1059c00060377405f08046122760900361e024126e
:1059d0001260d212249c12705c64097026059290a9
:1059e0000361e02422f521a3e03400f5227821129e
:1059f0002760900361e0243212689212249c12689e
:105a00008080c17408f0eefaeffb1218110258fb07
:105a1000900361e024421268b12274f012251874d8
:105a2000fe1224b612274c74fa122486853282851f
:105a30003383eaf0a3ebf08532848533850592e069
:105a40002409125ccaa3a3a3a3e0f974fc5970143f
:105a5000852182852283a3a3a3a3a3ae82af83e083
:105a600054fc6010790a853282853383e0fa12187b
:105a7000e3025cbf12607f1260750592f07a0053fa
:105a800092fe90618fe0c0e01260282442f582e926
:105a9000126024d0e0f00aeac3941040e2752306b5
:105aa0007524007823122760ac21ad22900361e0b9
:105ab000240c1260d212249c900361e0240b12612a
:105ac00018740205921260b6c0e012603bd0e0127a
:105ad0006016c0e0126037a3d0e0f07e108521820e
