:020000040000fa
:100000000200de021003000000000002100b0000de
:10001000000000021013000000000002101b00008e
:10002000000000021023000000000002102b00005e
:10003000000000021033000000000002103b00002e
:10004000000000021043000000000002104b0000fe
:10005000000000021053000000000002105b0000ce
:10006000000000021063000000000002106b00009e
:10007000000000021073000000000002107b00006e
:10008000000000021083000000000002108b00003e
:10009000000000020cf41200f0b900030200d8e4e2
:1000a00090000278a579018002f0a3d8fcd9fa90db
:1000b00000a6aa82ab839000f6780979018015e446
:1000c00093a3ac82ad838a828b83f0a3aa82ab8395
:1000d0008c828d83d8e9d9e7120306120d1375d0ef
:1000e0000075813f75188075931e5392fe0200962d
:1000f00079015392fe220010000000000200bb01b3
:1001000002e722c0925392fec082c08389828a8312
:10011000bb0003e08002e493d083d082d09222bb64
:100120000015c0925392fec082c0838a838982f0f8
:10013000d083d082d09222bb0101f722cac0e0e670
:10014000f30908dafad0e0fa22cac0e0e0f208a324
:10015000dafad0e0fa22600c08c6c313c618c61338
:10016000c6d5e0f422700422600d18c6c333c60859
:10017000c633c6d5e0f41822e4735392fed083d080
:10018000822518f8c518c39824fbcef208e520f2a2
:1001900008e9c0e07908e709f208defad0e0f9eff3
:1001a000f208d0e0fed0e0f208eef208e473a818fe
:1001b000e2fe08e208f520e9c0e07908e208f70964
:1001c000dffae208ffd0e0f9e208c0e0e208c0e0b0
:1001d00088185392fe22e584f208e585f222e208af
:1001e000f584e2f585227403800474028000c9c09e
:1001f000e0e518c399f518c912013cd0e0f9227462
:10020000038000c8c0e0e518c398f518c81201497a
:10021000d0e0f8227400f5d374022408f5d253928a
:10022000fe22a2afe433f8c2af5392fe906270e0b8
:10023000a2e740f5e9c333906272f0906270e0d2b9
:10024000e0f0e0a2e740fbe8a2e092af2274fa12ed
:10025000017aa2af33f8c2afed900002f0eca3f048
:10026000a37462f0a37473f0a3e4f0e9a3f0a374a1
:1002700012f0a37442f0eb906272f0ea906271f0b7
:100280007400f5d575d40275d601906270e0d2e1a4
:10029000f0e0a2e740fbe8a2e092af7f010201aeee
:1002a0005392fe906276e05470643070047803805c
:1002b000027807e5c7f988c790ff00e090001af0c0
:1002c00089c7a2e05004788080027800e8f5c6e58e
:1002d0009efce86c70f99062707408f02274fa1257
:1002e000017af9800c8a828b83e029f9a3aa82ab78
:1002f00083ecfeedffee24ff1cef34fffdee4f70ac
:10030000e47f010201ae5392fe900001e090001bd9
:10031000f01202a0e5c7ff75c7007c007d707a006f
:100320007b901202dde924a5fe8fc77f01e5c7f5aa
:10033000088fc77c007d807a007b801202dde92e69
:10034000fe8508c70fefc3940340e2ee7027e59dda
:1003500054186410700890001be0a2e04017900051
:10036000017403f005929000a6e0f582a3e0f58306
:100370000592120178900001e4f012021412062096
:1003800012065075c90890001be0a2e1400675c92d
:10039000a875c9581206b080ed74f812017a1518c4
:1003a0001518a8181201d690620ee0fee4f09062d3
:1003b00011e0f50aa2e450197480f090002374074c
:1003c000f0120593600612059e120178900023e456
:1003d000f0e50aa2e2500b906211e4f0900023f0e5
:1003e000806f900023e0f87402687051906216e00c
:1003f000ff90003a1201ffeff912057a8f08900082
:100400003d1205881205ad12059660047440800205
:100410007448906211f0e84970101205936006125a
:10042000059e120178900023e4f0ee90620ef0a891
:10043000181201de051805187f030201ae74066864
:10044000700612059e120178900023e060030205f9
:1004500013e50aa2e050d3750832750900750a0049
:1004600078081201e6790812057a90003fe4f0a3bb
:10047000f0900032e054e0600e24e0606824a06058
:100480003e24e0606f8030a3e014601c24fe601303
:1004900024fe600a24fc601524fe601680191209ef
:1004a000fb805e1209f680591209f18054120b2a62
:1004b000804f120c58804a9000237404f0804aa3a5
:1004c000e0600e24fa600f24fe601024fe601180ac
:1004d000e612083c802b120a438026120b0480216e
:1004e000120bfa801c90003f74d8f0a37406f0122f
:1004f00006d8800d90003f7492f0a37407f01207a5
:1005000092900023e0640470047460800274409050
:100510006211f0900023e0f8740168704c750a02d3
:1005200090003de0f8a3e0f9c3e89420e99400507e
:1005300007e8ff750a0a80027f2090003a1201ff47
:10054000eff97a207b621206770518051805188fd7
:10055000081205ad120588e50a906211f0efc39408
:1005600020400302042a02041a740568600302048e
:100570002a12059e12017802042a7a207b62120652
:100580005c05180518051822c3e09508f0a3e0944f
:1005900000f02290003fe0f8a3e0f9e8492205923c
:1005a00090003fe0f582a3e0f58305922290003aa7
:1005b000e0f9a3e0faa3e0fbe92508f9ea3400fa40
:1005c00090003ae9f0a3eaf0a3ebf0a322c008c040
:1005d000097800880874242508f58274003400f531
:1005e00083e95392fef008e8c3940540e67800885a
:1005f0000874292508f58274003400f583e9f008b1
:10060000e8c3940540e9d009d008225392fe900037
:100610001c7402f0a3e4f0900023f079030205cdee
:10062000c008c00975082175090078081201ea7c24
:10063000007d007a417b00120d1605180518900008
:100640001c7402f090620f04f0e0a2e750fb80b649
:1006500053f4fed29043fe015392fe22eec0e0120c
:100660000698600c5392fee012011f12068d70f482
:10067000d0e0fe5392fe22eec0e0120698600c120b
:1006800000fe5392fef012068d70f480e3e924011f
:1006900009ea3400fa18e8228a828b83e9f8a9185b
:1006a000e3fc09e3fd09e3feecf9edfaeefbe822d9
:1006b000eec0e05392fe906206e0f8906202e0fe27
:1006c000906204e0e8a2e2500312060beea2e050b2
:1006d00003120399d0e0fe2274f712017a900033de
:1006e000e0700302078214600302077b90001b7412
:1006f00001f0900023e0f87030900038e0f8a3e0bb
:10070000f9e84970059000ac807b90003a7462f083
:10071000a37400f0a3e4f0a3e8f0a3e9f0900023b1
:100720007402f09000ac048063740268704d900015
:1007300034e02440f508a3e03400f509e508541f2f
:10074000701285080a85090b7405780a120156a9ea
:100750000a120222900038e0240354fcf97c627de6
:100760000074047808120165aa08ab0912024d90c2
:100770000023e4f09000ac74058011900023740411
:10078000800a90001b7402f0900023e4f07f0402c2
:1007900001ae5392fe900033e06403701a90003a69
:1007a00074a8f0a37400f0a3e4f0a37406f0a3e42b
:1007b000f090002304f02280009000237404f022c3
:1007c0005392fe9000a2e4f0a3740ff02274fa1288
:1007d000017a15181518a8181201d6eafcebf87a58
:1007e000007b00088030e86045a3e493fdec6d6079
:1007f00039e96d700b05929000a2e0faa3e0fb18b6
:100800005392fe9000a2e02efea3e03400ff900081
:10081000a2eef0a3eff09000a2e0f584a3e0f5854e
:10082000e4059293fe70bfe860047a007b00a8188c
:100830001201de051805187f010201aec008120b77
:10084000ec7011a3e0f8a3e0700aa3e06402700268
:10085000a3e06008900023740402090c900032e0c9
:100860002480600814602a14603780e8e870e590fe
:10087000002fe060047801800278009000a4e8f086
:10088000a3e4f090002ee060689000a4e0440280b1
:100890005c90001ce0640470bb9000a4e4f0a380b2
:1008a0004fe8547ff50890001ce0640470a6e5084a
:1008b000c39406509f741c2508f58274003400f51b
:1008c00083e854806010a3a3a3a3a3a3a3e06403bd
:1008d000701578018013e582240cf582e5833400dd
:1008e000f583e0640360eb78009000a4e8f0a3e4f3
:1008f000f0900023e06404601490003a74a4f0a324
:100900007400f0a3e4f0a37402120c4ff0d008229c
:1009100074f912017a15181518a8181201d6e9faf7
:10092000900038120bf2701090001ce0640460100c
:10093000900036120bf2600890002374040209e064
:10094000900032e0541f600814600d14601580e8b8
:10095000900034e06401600579000209e3ea900048
:100960002e807d900036e0547ff508900034e070d2
:10097000e7e508c3940650c0e50890620ef0741cc9
:100980002508f58474003400f585900036e0548025
:100990006021ea6004741080027440906211f0eaf1
:1009a000600474038001e40592a3a3a3a3a3a3a3fb
:1009b000f08026ea6004742080027480906214f053
:1009c000ea600474038001e4c0e0e584240cf5824d
:1009d000e5853400f583d0e0f05392fe90620ee49a
:1009e000f07901a8181201de051805187f0202012e
:1009f000ae790002091079010209105392fe9000ad
:100a000036120bf27018a3120bf27012900034e041
:100a1000f8a3e0f9e85480fae9fbea4b6002801c95
:100a2000e8906200f090001c6009e06402700c74b1
:100a300003f022e0640370037402f0229000237438
:100a400004f02274f812017a1207c0900034e0fa20
:100a5000a3e0f914600814600d14603080367b0048
:100a60007a0079018032eafb7a007902120aece915
:100a700024020909ea3400fa89828a83e493f8742b
:100a80000193f990003de8f0a3e98019eafb7a00b0
:100a9000790380047b007a00120aeca37b801200a9
:100aa000fea3f0a3e4f090003ae0fca3e0fda3e095
:100ab000feec4d4e900023700474048029e0640421
:100ac0006025900038e0faa3e0fb90003de0f8a339
:100ad000e0f9c3ea98eb99500890003deaf0a3ebe7
:100ae000f09000237401f07f030201ae1207cd9055
:100af000003aeaf0a3ebf0a37480f090003ae0f93a
:100b0000a3e0fa22120bec7010a3120bf2700aa3ee
:100b1000e064017002a3e06003020a3c90003a74b2
:100b20001df0a37400120c45f02274f812017a90a3
:100b3000001ce064026014900036120bf2700ca3eb
:100b4000120bf27006900035e060099000237404e7
:100b5000f0020bdb1207c0900034e060707b007a7b
:100b60000079021207cd8a088b09ae08af09ee4f53
:100b700060d9900034e0f88e828f83a3a3a3a3a34f
:100b8000e493c0e0e8fad0e06a70d290001c7404ec
:100b9000f0e8a3f0750a008e828f83a3a3a3a3e4d9
:100ba00093f8e50ac3985033850a08741e2508f5a2
:100bb0008274003400f583e4f07b007a00120bdecf
:100bc0006007a3a3a3e49370f0050a80ca90001df8
:100bd000f090001c7403f0f91205cd020ae77904c5
:100be0001207cd8a828b83e5824583225392fe9041
:100bf0000034e0f8a3e0f9e8492274f812017a9091
:100c0000001ce064047019900032e06481701112dd
:100c10000bef700c900038e064017002a3e06007f5
:100c20009000237404801a900036e0241ef508a377
:100c3000e03400f50990003ae508f0a3e509120c4c
:100c400045f0020ae7f0a3e4f0a304120c4f22f0ef
:100c5000a3e4f0900023042274f912017a15181508
:100c600018a8181201d690001ce0640470109000bf
:100c700032e064017008900038120bf260079000b7
:100c800023740480671207c07b007a007902120b7c
:100c9000e0600fa3a3a3a3a3e493f890001de06872
:100ca00070e67b007a02120bde60d305929000346e
:100cb000e0f8a3e0f9900036e0faa3e0fb85828437
:100cc000858385a3a3e493fcea6c7001eb600f05b8
:100cd00092a3a3a3e493fce86c7001e970c4741eb2
:100ce0002af58274003bf583e85392fef00209e393
:100cf0005392fe2274fa12017a15181518eafeebc7
:100d0000ffa818eef208eff2aa18ab937901120cc3
:100d1000f080ee02009374fa12017ae5182406f8c6
:100d2000e2fe08e2ffecf88a828b83800be8f0a3f6
:100d3000ee24ff1eef34ffffee4f70f17f01020142
:100d4000aeffffffffffffffffffffffffffffff04
:100d5000ffffffffffffffffffffffffffffffffa3
:100d6000ffffffffffffffffffffffffffffffff93
:100d7000ffffffffffffffffffffffffffffffff83
:100d8000ffffffffffffffffffffffffffffffff73
:100d9000ffffffffffffffffffffffffffffffff63
:100da000ffffffffffffffffffffffffffffffff53
:100db000ffffffffffffffffffffffffffffffff43
:100dc000ffffffffffffffffffffffffffffffff33
:100dd000ffffffffffffffffffffffffffffffff23
:100de000ffffffffffffffffffffffffffffffff13
:100df000ffffffffffffffffffffffffffffffff03
:100e0000fffffffffffffffffffffffffffffffff2
:100e1000ffffffffffffffffffffffffffffffffe2
:100e2000ffffffffffffffffffffffffffffffffd2
:100e3000ffffffffffffffffffffffffffffffffc2
:100e4000ffffffffffffffffffffffffffffffffb2
:100e5000ffffffffffffffffffffffffffffffffa2
:100e6000ffffffffffffffffffffffffffffffff92
:100e7000ffffffffffffffffffffffffffffffff82
:100e8000ffffffffffffffffffffffffffffffff72
:100e9000ffffffffffffffffffffffffffffffff62
:100ea000ffffffffffffffffffffffffffffffff52
:100eb000ffffffffffffffffffffffffffffffff42
:100ec000ffffffffffffffffffffffffffffffff32
:100ed000ffffffffffffffffffffffffffffffff22
:100ee000ffffffffffffffffffffffffffffffff12
:100ef000ffffffffffffffffffffffffffffffff02
:100f000012010002000000205824feff0000010230
:100f1000030109021b0001010480250904000000ef
:100f2000fe01020409210d03e84000010104030948
:100f300004120342006c00750065006700690067d9
:100f400000610016034c006f007700200045006e22
:100f50000065007200670079000a03310032003337
:100f6000003400080344004600550000ffffffff67
:100f7000ffffffffffffffffffffffffffffffff81
:100f8000ffffffffffffffffffffffffffffffff71
:100f9000ffffffffffffffffffffffffffffffff61
:100fa000ffffffffffffffffffffffffffffffff51
:100fb000ffffffffffffffffffffffffffffffff41
:100fc000ffffffffffffffffffffffffffffffff31
:100fd000ffffffffffffffffffffffffffffffff21
:100fe000ffffffffffffffffffffffffffffffff11
:100ff000ffffffffffffffffffffffffffffffff01
:101000000210f702307bffffffffff023937ffffbf
:10101000ffffff0239d6ffffffffff023a8affff03
:10102000ffffff022774ffffffffff0237daffff1a
:10103000ffffff023b6fffffffffff023a2effffa4
:10104000ffffff0239a5ffffffffffffffffffffcd
:10105000ffffff023064ffffffffffffffffffff07
:10106000ffffffffffffffffffffff0238d8ffff7b
:10107000ffffff023afdffffffffff023909fffffd
:10108000ffffff02307f7582fc7583ff7401121130
:1010900012121133b900030210e1e479347802b876
:1010a00000028004f709d8fce4900302786c790709
:1010b0008002f0a3d8fcd9fa90096daa82ab839084
:1010c000113978bb79028015e493a3ac82ad838a91
:1010d000828b83f0a3aa82ab838c828d83d8e9d9db
:1010e000e775824775837f74001211127582a375ac
:1010f00083e3740212111275d00075813f7531803f
:10110000753202753303759f0075931e5392fe026c
:101110001091c09ff59fe473d09f225392fed0831d
:10112000d082c09fe493c0e0740193c0e074029346
:10113000f59f2279015392fe220300000200006d08
:10114000140102030000ed153efe0e00f401fa004a
:10115000960064004b0032001e001400d6be898e3b
:10116000000106021213151429417671ffc1fbe834
:101170004c90728be7b3518963ab232302841872be
:10118000aa612f3b51a8e53749fbc9ca0c18532c5b
:10119000fd45e300400000fffffffffaffffff00f7
:1011a0000080006200000007000000050006000744
:1011b0000000000100010000010001020203000222
:1011c0000000000000020201000240420f0019006e
:1011d0000000093d0000eafffffffb349b5f800039
:1011e00000800010000000000000da49e449ee49e8
:1011f000f849024a0c4a164a204a2a4a344a3e4ac8
:10120000484a524a5c4a664a704a7a4a844a8e4a36
:10121000984aa24aac4ab64ac04aca4ad44ade4aa6
:10122000e84af24afc4a064b104b1a4b244b2e4b11
:10123000384b424b4c4b564b604b6a4b744b7e4b7e
:10124000884b924b9c4ba64bb04bba4bc44bce4bee
:10125000d84be24bec4bf64b004c0a4c144c1e4c5a
:10126000284c324c3c4c464c504c5a4c644c6e4cc6
:10127000784c824c8c4c964ca04caa4cb44cbe4c36
:10128000c84cd24cdc4ce64cf04cfa4c044d0e4da4
:10129000184d224d2c4d364dc3a88ee8b19dcf7f01
:1012a0005eb98b9f41efb0554d1c531c591c5f1c00
:1012b000651c6b1ced1b8b1d6d1d3f1ed91ddf1d9d
:1012c0003117f51317196d14eb1d911d0d1d2d1ef2
:1012d000230601ffffff0000000080ffffffff006b
:1012e000000000010000000400000003000000c036
:1012f00000000012111b70a20212111b88a2021220
:10130000111bc0a20212111b0da30212111b19a363
:101310000212111b3ea30212111b66a30212111b23
:1013200082a30212111bf7a30212111b1ca40212aa
:10133000111b79a40212111b35a90212111b06aa56
:101340000212111b07e00212111b1fe00212111bf7
:101350006ee00212111b0acb0212111b72cb021299
:10136000111ba9cb0212111bc3cb0212111bedcb17
:101370000212111b07cc0212111b3bcc0212111bd3
:1013800067cc0212111bb4cc0212111b4dcd0212fc
:10139000111b71cd0212111b01ce0212111b53ce73
:1013a0000212111b6dce0212111b82ce0212111bf2
:1013b000b4ce0212111bebce0212111b8ccf021203
:1013c000111ba2bb0212111bd3bb0212111b01bcc9
:1013d0000212111b0abc0212111b66bc0212111b65
:1013e00026bd0212111ba0bd0212111bfdbd02126f
:1013f000111b20be0212111b8abe0212111b8fbfcd
:101400000212111b9abf0212111bbfbf0212111b45
:1014100022c00212111b91c00212111bc3c0021282
:10142000111b2ae10212111b4ae10212111b73e186
:101430000212111b03e30212111b3ae30212111be9
:101440006ce20212111b46e30212111b5de3021251
:10145000111b7bff0112111ba8ff0112111b53f37b
:101460000112111b95f30112111bacf30112111b98
:10147000ccf30112111b15f40112111b6ef40112b1
:10148000111bbcf50112111bc0f60112111b67f7ed
:101490000112111b8bf70112111bcdf70112111b49
:1014a0005df80112111ba0f80112111bf7f80112cf
:1014b000111b0af90112111bf0f90112111b09fb92
:1014c0000112111b7dfb0112111b00800112111b67
:1014d000a3810112111b20820112111b83830112af
:1014e000111bf8830112111b32840112111bf384aa
:1014f0000112111b7a850112111b6c860112111b3e
:1015000070870112111b57880112111ba489011247
:10151000111b1e8a0112111b878a0112111bfb8ae3
:101520000112111bac8b0112111b048c0112111b37
:10153000a88c0112111b068d0112111b988d01122e
:10154000111bef8d0112111b8a8e0112111b348f9a
:101550000112111be98f0112111ba4910112111b21
:1015600016940112111b64940112111b04950112af
:10157000111b54950112111ba2950112111b4297c8
:101580000112111bdc970112111b58980112111b3b
:10159000b4990112111b1f9a0112111b149b011205
:1015a000111b069c0112111b399d0112111b8a9ef1
:1015b0000112111b64a00112111b2da30112111b9a
:1015c000bba30112111b49a40112111b28a5011272
:1015d000111b9da50112111b17aa0112111b94ac1e
:1015e0000112111b6bad0112111ba0af0112111bd7
:1015f000cfb00112111b0eb20112111b25b2011244
:10160000111bb5fc0112111bf3fc0112111b5bfd38
:101610000112111b87fd0112111b5efe0112111b2d
:1016200035ff0112111b5dde0212111ba1de021239
:10163000111b19df0212111b03b90112111b21b971
:101640000112111b3eb90112111b5bb90112111bd2
:10165000d4b90112111b6dba0112111bb1ba0112da
:10166000111b13bb0112111b46bb0112111b81bbc5
:101670000112111bb4bb0112111bf6bb0112111b8d
:1016800068bc0112111bf4bc0112111b02bd011236
:10169000111b02c00112111b60c00112111b92c06c
:1016a0000112111bc2c10112111be0c20112111b58
:1016b0001dc30112111b4ec30112111b78c301126d
:1016c000111b45c60112111b75c60112111bbdc6a7
:1016d0000112111b70cb0112111be4cb0112111b63
:1016e0002dcc0112111bb7cc0112111b98cd011288
:1016f000111b40d00112111b7cd10112111bf5d11d
:101700000112111bb4d30112111b1ed40112111ba3
:101710005cd40112111bb4d40112111b02d50112a9
:10172000111b97d50112111be3d50112111b25d6f0
:101730000112111b2fd60112111b68d70112111ba8
:10174000ccd70112111b9fd80112111b3cd90112d9
:10175000111ba9da0112111bcbda0112111beddcee
:101760000112111be8dd0112111b5ade0112111bbf
:101770007cde0112111b50e00112111b61e001120d
:10178000111b6be00112111bdbe10112111b43e283
:101790000112111b79e20112111be2e20112111b6d
:1017a00095e30112111b20e40112111b81e40112c7
:1017b000111babe40112111be6e40112111b1be526
:1017c0000112111b51e50112111bb9e50112111b88
:1017d000c7e50112111b02e60112111b7ee6011280
:1017e000111bd8dc0212111b5fdd0212111b83ddfd
:1017f0000212111bcedd0212111b0bde0212111b95
:1018000005e20212111b56e70112111b82e70112b9
:10181000111bcee70112111b28e80112111ba4e8cd
:101820000112111bf1ea0112111be6eb0112111b4f
:101830004dee0112111b44ef0112111b24f0011295
:10184000111b7bf10112111bf6f10112111b37f371
:101850000112111becd10212111b1dd20212111b1d
:10186000afd20212111ba1d30212111b015200129e
:10187000111b1e520012111b49520012111bbc52a7
:101880000012111be8520012111b1c530012111bf5
:1018900083530012111bad530012111b145400127c
:1018a000111b72540012111b43550012111bb55528
:1018b0000012111b9e570012111b30580012111bf1
:1018c000e45a0012111bcc5e0012111b0f5f0012b4
:1018d000111b625f0012111bf95f0012111bb7612f
:1018e0000012111b5b620012111ba0620012111b7f
:1018f000ec620012111b54630012111b7e63001274
:10190000111bd1630012111b05640012111b6265cb
:101910000012111ba6660012111bb7660012111be4
:10192000f2670012111b08680012111b4e680012aa
:10193000111b12690012111b27690012111b596932
:101940000012111bba6a0012111b786b0012111bd6
:10195000ac6b0012111bf36b0012111b926c001286
:10196000111be96c0012111be56d0012111b536e67
:101970000012111b926e0012111b6a6f0012111bd4
:1019800083710012111bb3710012111b35d60212a4
:10199000111b42d60212111b65d60212111ba8d7c9
:1019a0000212111bb5d70212111be4d70212111b30
:1019b00020c10212111b90c10212111bbdc10212e3
:1019c000111b07c20212111bd2c20212111b7fc4cb
:1019d0000212111bd9c40212111be7c40212111bff
:1019e000f2c50212111b0cc60212111b70df02128b
:1019f000111b9adf0212111bcadf0212111b43d402
:101a00000212111bd8d40212111b0dd50212111b88
:101a10007ed50212111b22d60212111b92cf021286
:101a2000111ba8cf0212111b00800212111b15807e
:101a30000212111b3d810212111b55810212111b52
:101a400064810212111b7a810212111b868102121b
:101a5000111bc6810212111bf1810212111b4c8253
:101a60000212111b7a820212111bde820212111b5a
:101a7000fa820212111b36830212111b4e830212cc
:101a8000111be1830212111b55840212111b9d844c
:101a90000212111bd6840212111b56850212111b51
:101aa00091850212111bba850212111b19860212ae
:101ab000111b61860212111b88860212111bd5862a
:101ac0000212111b30870212111b3a870212111bde
:101ad00090870212111be1870212111b1988021252
:101ae000111b51880212111b88880212111bb08829
:101af0000212111bb9880212111bd6880212111b87
:101b000001890212111b2a890212111b6a89021211
:101b1000111b97890212111be3890212111b1c8ae7
:101b20000212111ba88a0212111b568b0212111be2
:101b3000a58b0212111b058c0212111b108c0212b4
:101b4000111b338c0212111b418c0212111bd88cf9
:101b50000212111b528d0212111ba08d0212111bb9
:101b6000b88d0212111bd68d0212111bf88d0212b4
:101b7000111b198e0212111b358e0212111bab8e16
:101b80000212111bee8e0212111b698f0212111b21
:101b9000828f0212111b06900212111b3590021245
:101ba000111b44900212111b8c900212111b9b906e
:101bb0000212111bb3900212111bdc900212111bb6
:101bc0000c910212111b3d910212111b5091021235
:101bd000111b88910212111bf1910212111b1f920d
:101be0000212111b4d920212111b59920212111b6b
:101bf0005f920212111b11940212111b9a9402128d
:101c0000111b03950212111b39950212111b7e95af
:101c10000212111bc2950212111b06960212111b11
:101c200085960212111b00970212111b6c9702126b
:101c3000111bec970212111b34980212111be6982b
:101c40000212111bbe990212111bebd70212111bbb
:101c500037d80212111b4dd80212111b63d8021281
:101c6000111b79d80212111b9ad80212111bb0d87d
:101c70000212111bc6d80212111b32aa0212111b2a
:101c800051aa0212111b98aa0212111bd9aa021200
:101c9000111bf7aa0212111b73ab0212111be0ab4e
:101ca0000212111b18ac0212111b76ac0212111b8e
:101cb00091ac0212111bd4ac0212111b32ad0212f4
:101cc000111b49ad0212111b6bad0212111b96ad17
:101cd0000212111bb5ad0212111be1ad0212111b54
:101ce0001aae0212111b41ae0212111b74ae021287
:101cf000111b83ae0212111b8cae0212111b02af1c
:101d00000212111b2ab00212111b58c60212111b1b
:101d100025c70212111b08c80212111b9ac8021211
:101d2000111bf0c80212111b3cc90212111b5dc924
:101d30000212111b7ec90212111b96c90212111b3d
:101d4000aec90212111bfec90212111b55ca0212a2
:101d5000111ba9ca0212111bab7e0012111bd87ee7
:101d60000012111b12720012111b627c0012111b57
:101d7000117e0012111b3cdb0212111baadb0212a6
:101d8000111bcedb0212111b22dc0212111b77dcad
:101d90000212111bb5dc0212111bcedc0212111b48
:101da000ae9a0212111bcb9a0212111be69b021271
:101db000111b479c0212111bf29c0212111b719ef7
:101dc0000212111bf49e0212111b3b9f0212111be7
:101dd000a29f0212111bfd9f0212111b56a002129c
:101de000111bcca00212111b44a10212111be3a172
:101df0000212111bf6b50212111b43b80212111b7d
:101e00007bb80212111b97b80212111bd5b802122f
:101e1000111befb80212111b1bb90212111b3ab9a8
:101e20000212111b62b90212111ba9b90212111b75
:101e3000c6b90212111b32ba0212111b66ba021283
:101e4000111b77ba0212111b95d90212111bfcd972
:101e50000212111b5cda0212111b5eda0212111b54
:101e600074da0212111bc1da0212111b99e002127c
:101e7000111bb7e00212111b49b00212111b22b153
:101e80000212111b05b20212111b0db20212111b1c
:101e900015b20212111b6eb20212111b0fb3021205
:101ea000111b0eb40212111b41b40212111b08b512
:101eb0000212111b66b50212111b86100012111bb3
:101ec0009ae10212111bbbe20212111b75e302e040
:101ed00066701008a3e066700a08a3e06670040844
:101ee000a3e06622c3e7960809e7960809e7960883
:101ef00009e796a2d265d03322c3e09608a3e09604
:101f000008a3e09608a3e096a2d265d03322c021b0
:101f1000c3e096f52108a3e096422108a3e096428b
:101f20002108a3e0964221a2d265d033e5217001b9
:101f3000d3d02122c021c3e096f52108a3e0964228
:101f40002108a3e096422108a3e09645217001d321
:101f5000d02122bb0102e722c0925392fec082c070
:101f60008389828a83bb0003e08002e493d083d01c
:101f700082d09222bb0015c0925392fec082c083d1
:101f80008a838982f0d083d082d09222bb0101f76c
:101f900022080808eac0e0ebc0e086f0e7a4fa18df
:101fa0000986f0e7a42afa180986f0e7a42afa18a5
:101fb0000986f0e7a42afa1986f0e7a4fbe5f02adf
:101fc000fa190886f0e7a42bfbe5f03afa1908861f
:101fd000f0e7a42bfbe5f03afa18180986f0e7a41d
:101fe000c5f02bfbe43afa1908e7c5f0c6a426f6bb
:101ff000e5f03bfbe43afa1886f0e7a4f6e5f008d2
:1020000026f6e43b08f6e43a08f6d0e0fbd0e0fa26
:1020100022e4cfc0e0e4cec0e0e4cdc0e0e4ccc038
:10202000e075f020c3e633f608e633f608e633f64b
:1020300008e633f6181818ec33fced33fdee33feea
:10204000ef33ffc3ec9709ed9709ee9709ef971966
:102050001919400fffec97fc09ed97fd09ee97fe6b
:10206000191906d5f0beecf709edf709eef709efff
:10207000f7191919d0e0fcd0e0fdd0e0fed0e0ff68
:10208000221220e91818181220111220d819191933
:10209000221220d8191919080808e618181820e77c
:1020a000e01220111220e918181822090909e7196d
:1020b000191920e7dc080808e618181820e70302b9
:1020c00020111220e91818181220111220e91818ee
:1020d000181220d819191922e4c397f709e497f7c1
:1020e00009e497f709e497f722e4c396f608e49623
:1020f000f608e496f608e496f6226017080808c683
:10210000a2e713c618c613c618c613c618c613c648
:10211000d5e0e9226016080808c6c313c618c6131e
:10212000c618c613c618c613c6d5e0ea2270090839
:102130000808226016181818c6c333c608c633c666
:1021400008c633c608c633c6d5e0ea22e627f60835
:1021500009e637f60809e637f60809e637f622e019
:1021600026f608a3e036f608a3e036f608a3e03624
:10217000f622e026f008a3e036f008a3e036f008e7
:10218000a3e036f022c3e697f60809e697f60809b9
:10219000e697f60809e697f622c3e0c696f608a386
:1021a000e0c696f608a3e0c696f608a3e0c696f643
:1021b00022c3e096f008a3e096f008a3e096f008aa
:1021c000a3e096f022e056f608a3e056f608a3e056
:1021d00056f608a3e056f622e056f008a3e056f0c3
:1021e00008a3e056f008a3e056f022e647f60809f7
:1021f000e647f60809e647f60809e647f622e0460c
:10220000f008a3e046f008a3e046f008a3e046f09b
:1022100022e066f008a3e066f008a3e066f008a3f9
:10222000e066f022e0f608a3e0f608a3e0f608a3d3
:10223000e0f622e493f608740193f608740293f62c
:1022400008740393f622e6f008a3e6f008a3e6f08c
:1022500008a3e6f022e0faa3e0fba3e0fca3e0fd84
:1022600022eaf0a3ebf0a3ecf0a3edf022cac0e069
:10227000e6f0a308dafad0e0fa22cac0e0e0a3054b
:1022800092f0a30592daf6d0e0ca22cac0e0e49345
:10229000a30592f0a30592daf5d0e0ca225392fe8c
:1022a000fae9fb7921e7f0a309dafae8f0a3ebf900
:1022b000f0a3ecf0a3edf0a3eef0a3eff0a3e52084
:1022c000f0a3e5f0f0a3e592f0a3e584f0a3e585a3
:1022d000f0a3e581f0a3e531f0a3e532f0a3e53307
:1022e000f0a3d0e0fad0e0f0a3caf0eac0e0e0c08a
:1022f000e07a007b00225392fecac0e0ebc0e07996
:1023000021e0f7a309dafae0f8a3e0f9a3e0fca3df
:10231000e0fda3e0fea3e0ffa3e0f520a3e0f5f0dd
:10232000a3e0c0e0a3e0f584a3e0f585a3d0e0f549
:1023300092d0e0fbd0e0fae0f581a3e0f531a3e034
:10234000f532a3e0f533a3d0e0d0e0e0c0e0a3e0b5
:10235000c0e0ea4b70027a0122c3e498f8e499f9ec
:1023600012239a8026c3e49afae49bfbe920e7e96a
:1023700012239ae498f8e499f922c3e498f8e499ce
:10238000f912239ae498f8e499f9c3e49afae49be1
:10239000fb22eb20e7cfe920e7e0b90010bb000803
:1023a000e88af084f8aaf022e4fbc8fa22eb702253
:1023b0007b10c833c8c933c9335007c39ac3dbf293
:1023c00080069a50012adbeac833f4c8c933f4c93d
:1023d000fa2275f008e4c833c8c933c933c99ac9a9
:1023e0009b5004c92ac93bd5f0ecfbc833f4c8e4c0
:1023f000c9fa22600d08c6a2e713c618c613c6d5cf
:10240000e0f322600c08c6c313c618c613c6d5e095
:10241000f422700422600d18c6c333c608c633c642
:10242000d5e0f41822253210af08f53240021533fa
:102430008008f53240021533d2af22c0d0253210c9
:10244000af08f532500205338008f53250020533eb
:10245000d2afd0d0222532f58210af08f53240023b
:1024600015338008f53240021533d2af853383220d
:10247000c5822532c582c583353310af07f5338554
:1024800082328007f533858232d2afc5832225326e
:10249000f582e43533f583222532f584e43533f5ce
:1024a0008522e473c0e0e8c0e0e58124fcf8e6a200
:1024b000e7d0e0f8d0e0225392fe2532c582c0e09a
:1024c000e53334ffc583c0e0e532c3958224f810bc
:1024d000af088583338582328008858333858232d5
:1024e000d2afcef0a3e520f0a37821e608f0a3de7a
:1024f000faeff0a3e58124faf8e608f0a3e608f085
:10250000a3e608f0a30808e608f0a3e608f0a31580
:10251000811581d0e0fed0e0f8158115811581e8a4
:10252000c0e0eec0e0225392fe2532c582c0e0e555
:102530003334ffc583c0e0e532c3958224f910af80
:10254000088583338582328008858333858232d241
:10255000afcef0a3e520f0a37821e608f0a3defae1
:10256000eff0a3e58124fbf8e608f0a3e608f0a36a
:102570000808e608f0a3e608f0a315811581d0e06d
:10258000fed0e0f815811581e8c0e0eec0e02253ee
:1025900092fe853383853282e0a3fee0a3f52078a6
:1025a00021e0a3f608dffae0a3ffe0a3c0e0e0a388
:1025b000c0e0e0a3c0e0e0a3c0e0e0a3c0e010af53
:1025c000088582328583338008858232858333d2c1
:1025d000afd083d0825392fe0211185392fe8533fe
:1025e00083853282e0a3fee0a3f5207821e0a3f604
:1025f00008dffae0a3ffe0a3c0e0e0a3c0e0e0a3af
:10260000c0e0e0a3c0e010af08858232858333804c
:1026100008858232858333d2afd083d0825392fe35
:1026200022c0925392fec0d02532c582c0e0e5336d
:1026300034ffc583c0e0e532c3958224f210af08b1
:102640008583338582328008858333858232d2af99
:10265000c8f0a3e9f0a3eaf0a3ebf0a37921e7091e
:10266000f0a3d8faecf0a3edf0a3eef0a3eff0a303
:10267000d0e0f0a3d0e0f0a3d0e0f0a3e520f0a3f9
:10268000e5f0f0a3d0e0f0225392fe85338385324b
:1026900082e0c0e0a3e0f9a3e0faa3e0fba3782185
:1026a000e0f608a3dffae0fca3e0fda3e0fea3e070
:1026b000ffa3e0c0e0a3e0c0e0a3e0f5d0a3e0f515
:1026c00020a3e0a3f5f0e0a3c0e010af08858333ba
:1026d0008582328008858333858232d2afd0e0d0c4
:1026e00082d083f592d0e0f8d0e032e584f0a3e523
:1026f00085f022e0a3f584e0f58522740480067459
:102700000280027401c0e0f404122455d0e01222c9
:102710006d227404800a74038006740280027401be
:10272000c0e0f404122455d0e012227a22d083d0e3
:1027300082e9c0e0e493a3c386f0c5f095f0f90800
:10274000e493a386f0c5f095f0700be493a3c399ce
:102750004005e9048002a3e475f002a42582f58215
:10276000e5f03583f583d0e0f9e493a3c0e0e4938a
:10277000c0e022ffc0e074f1122621759800e5a8a0
:10278000f8c2af9004aee0d2e1f0753400e8a2e701
:1027900092af12132f7f01022688c082c08353920a
:1027a000fe906059e0f890047fe028f0906058e0d7
:1027b000f8900480e028f090605a1227d390605e71
:1027c0001227d390605ce0f8900482e028f0d08378
:1027d000d08222e0f8900481e028f022c082c083f9
:1027e0005392fe90047fe4f0a3f0a3f0a380de7484
:1027f000f7122526e97a00600d24fe602114601e80
:1028000024fd603580329003dce0a2e3500a90039f
:10281000dfe0602514f0802154fb440880f790032a
:10282000dce0a2e2500c9003dfe06408600be004ff
:1028300080e354f7440480dd0a9003dde0700890e3
:1028400003db74fff0806b90600a122f38703d90ac
:10285000618fe0c0e09003dfe0f87408c398f8d01f
:10286000e0b800028004c313d8fcf52174ff652191
:10287000700990600ae4f0a3048010e5212401f8b7
:10288000e43400f990600ae8f0a3e9f0eaa2e0502d
:102890000e9003e0122db59003d7122f11800b90ec
:1028a00003dee070047402800114f07ad57b031219
:1028b0003509022f4d74f712252674fe1224551285
:1028c00026ebe924fc600624fe6029800d90049824
:1028d000e06401705f1216fb805a9003f4e064011b
:1028e00070129003eee4f07b09122fe4fa790012e3
:1028f00019d180409003eee070089003ec74fff073
:10290000803279001219898a218b22a821a922906c
:1029100003f0e028faa3e039fb90618fe0541ff840
:10292000ea28f8eb3400f99003e812347d7ae67b6c
:1029300003123509022f3f74f712252674fe122464
:10294000551226eb90043d122db5e82410fce93415
:1029500000fd90605ce060088c828d83e0d2e1f045
:10296000e8242efae93400fbe82430f584e9123734
:102970009290605ae0700690605ee060318c828dcb
:1029800083e0d2e1f0e40592f0a3f0e82420f582a0
:10299000e9122c101235ac740378211224128a82a9
:1029a0008b83e521f0a3e522f07900022f3fe82494
:1029b0001cf582e91232601237c18a828b8305923c
:1029c000e0faa3e0fbc30592e09aa3e09b50da880b
:1029d000828983a3a3a3a3a3a3a3858284858385dc
:1029e0008c828d83e0a2e1500474088002743e055d
:1029f00092f07b02888289830592a3a3a3a3a3a359
:102a0000122c2980a674f512252674fe1224551264
:102a100026eb122bfc8e848f850592a3a3a3a3a380
:102a2000a3a3a3e0fc7003022be4ee242cf582efb9
:102a3000122c10122db58e828f83a3a3a3a3a3a360
:102a40008582218583228e828f83a3a3a3a3a3a340
:102a5000a3aa82ab83ee2432122c16687003a3e083
:102a600069701b74026c7003022b9374016c6073a9
:102a700074096c60348a828b837422f0801dec149c
:102a80006061147003022b9324fa602a14601a14f4
:102a90006009147003022bce022be47b0285218295
:102aa000852283122c29022be6906008e0a2e650d2
:102ab00003022be480e5ee243712325d8013888216
:102ac0008983a3a3a3e064037003022be4888289b3
:102ad00083122f3870e88a828b83e0641370bc7491
:102ae000168098ee2453122c16faa3e0fbee244a2b
:102af000fcef3400fdea24fff523eb34fff524e579
:102b000023687003e524697049ee244b122ca78ecc
:102b1000828f83a3a3122f33900487e4f0a3f0a342
:102b2000f0a3f090046de0a2e04003022be48c825d
:102b30008d83e0f875f0e2a4c8aaf075f004a42a29
:102b4000f9e824c0f8e93437f990606412347d0262
:102b50002be4ea687002eb696003022be475230939
:102b600075240078231226ffee2419122c05122456
:102b70003b90046de0a2e05007eefaeffb12164d19
:102b8000e40592f07b088521828522830592122c30
:102b90001d8051e8240108e93400f9ee245a122c72
:102ba00016687003a3e069703b75210575220078f3
:102bb000211226ffee2455fcef3400fdee242212f4
:102bc0002c0512243beefaeffb1216f58012eefafa
:102bd000effb1213357b07852182852283122c1d82
:102be000e40592f079008532828533835392fe1298
:102bf00026f3740212243b7f040225db90043de09f
:102c0000fea3e0ff22faef3400fb121ec37402227f
:102c1000123498059222f582ef12350322122c21ec
:102c200022e0fa79001219d122122c2179012274a2
:102c3000f812252674fe1224551226eb90043de06e
:102c4000f584a3e0f585122a05e97048122937e9d1
:102c50007042e584242cf582e585122c192401f0bc
:102c6000a3e03400f0906008e0c0e0e5842434f58f
:102c700082e585123260d0e0f0e584241cf582e51f
:102c800085122caa0592a3a3e028f0a3e039f00551
:102c900092122f278532828533831226f374021213
:102ca000243b7f010225dbf582ef123498122cb110
:102cb00022122db9e8c333f8e933f92274f712254b
:102cc0002674fe1224551226eb90048cea241cf57f
:102cd00084eb1237920592e0f8a3e0f9e8c333f8e9
:102ce000e933122da0acf08522f0a42cfc8521f054
:102cf000e9a42cf90592e028f8a3e039f98a828b3f
:102d000083a3a3858284858385e80592f0a3e9f0f7
:102d1000900487e0faa3e0fb90046fe0f521a3e0c4
:102d2000f522ea8521f0a4caacf08522f0a42cfc9f
:102d30008521f0eba42cfbe8c39af8e99bf9e82481
:102d4000ff18e934fff9858284858385e8f0a3e9db
:102d5000f0900489e0f8a3e0122da0122d907a20c3
:102d60007b4e12239a882189220592e09521f0a3b7
:102d7000e09522f090048e122db590046f1235acc0
:102d8000e88521f0a4c8122d90e8122f18022f3eda
:102d9000aaf08522f0a42afa8521f0e9a42af922d2
:102da000f990046fe0f521a3e0f522e88521f0a475
:102db000c82290046f122db922e0f8a3e0f9227422
:102dc000f712252674fe1224551226eb122bfc8ec8
:102dd000828f83a3a3858221858322906062e06035
:102de000107910121989852182852283eaf0a3ebdc
:102df000f0122a05e96003022f0f122937e9600358
:102e0000022f0f906008e0c0e0ee243412325dd053
:102e1000e0f0ee241012378f9061d5e0f89061d782
:102e2000e0688584828585836005e0d2e28003e0e6
:102e3000c2e2f0900489e024c0faa3e03437fb90aa
:102e40006062e0600e12385c90048e123483122fa0
:102e500018800f12384690048e122cad90606412c8
:102e60002f11f0ee2429122c1690048bf0ee241e64
:102e700012325d122f3860458e828f83a3a3a3a3e5
:102e8000a3a3a3a3e07036ee24301237b6702eee63
:102e900024371237b67026e8240108e93400f99087
:102ea000046f12347d852182852283122db5900412
:102eb0008c12347deefaeffb122cbc804390046f31
:102ec0007401f0a3e4f0ee241c122ca78521828566
:102ed0002283122f338521828522830592900487d5
:102ee000e0f8a3e0f90592e0c398f8a3e099f9e8c7
:102ef00024ff18e934fff985218285228312347d6d
:102f0000122db2ee242c12325d122f33122f278095
:102f10002ee028f0a3e039222440f8e93438f99073
:102f20006064e8f0a3e92290043de0faa3e0fb121c
:102f3000350922122f11f022122db9e84922f0850d
:102f400032828533831226f3740212243b7f0202fd
:102f500025db74f712252674fe1224551226eb8009
:102f60003dc2e5f0122fd2e0f80808900496e02860
:102f7000f0122fe4c0e00592122fd2d0e0f09004be
:102f800096e004f0a3e004f0a3e004f090049ae0db
:102f9000700c7401f07b007a0079001219d1900452
:102fa00097e0f890605ae0686025900496e0045439
:102fb0007ff52174802521f874603400f9122fe424
:102fc000a2e7888289830592e05096d2e580940238
:102fd0002f3f900496e0547ff8748028f582746047
:102fe0001234982290043de024061237842274f5ae
:102ff00012252674fe1224551226eb892105929083
:10300000043de0f582a3e0f583858284858385a372
:10301000a3a3a3a3a3e0a2e74047900499e0f890fc
:103020006054e0c398f522900499e02522f0ae8226
:10303000af838012ee2437faef3400fb121623ea36
:103040004b60031217f785222374ff2523f5220412
:1030500070e2e521a2e640097900eefaeffb1217d3
:103060006d022be6c0e074f11226218535c675a7e6
:103070000079501219a77f0102268875bf0032c05f
:10308000e0c0d075d008c092c082c084c083c08523
:10309000c0f08535c6e591fe759b00f4f591eea272
:1030a000e05003122f52eea2e55004f9122feeee7b
:1030b000a2e7501ae5a8f8c2af5392fe9004aee022
:1030c000d2e01237ace594a2e2400375940374c0d9
:1030d0005e700302316d5392fe90043d1237b97059
:1030e0000302316deea2e65007906061e0f98002c4
:1030f0007906900497e4f0900499f08a828b83a378
:10310000a3a3a3a3a3e02404601014600814700f09
:103110001227ef80501228b5804b12164780469038
:103120006060e06480602ee0c0e0ea2411f582eb8c
:10313000123260d0e0f0906060e0c0e090043de0ca
:10314000242a123780fa74482af5827404123260f5
:10315000d0e00592f090046de0a2e05005122dbf82
:103160008003122c2f12279a1216358005eea2e743
:1031700050031235b4d0f0d085d083d084d082d023
:1031800092d0d0d0e03274f712252674fe12245566
:103190001226eb90043de0fca3e0fd122db2ec24de
:1031a00027f582ed123260ec2429f584ed12379276
:1031b0007401687001e970170592e0f80592e02843
:1031c000fac39425400474db2afaea05928025e0cc
:1031d000f521e88521f0a4f8aaf08521f0e9a42ad8
:1031e000f90592e0fae82af8e93400f97a257b003b
:1031f00012239aeaf074075af87401b800028004a6
:10320000c333d8fcc0e0ea131313541ff8ec28f8ba
:10321000ed3400f9e82422f582e9123260d0e0f8ba
:103220000592e058702a8005e0cac39afaec24e3bc
:10323000f582ed122c19f8eac39850ec8a21ec259e
:1032400021f8ed3400f9e824bef582e9122c19fad0
:10325000ec242af582ed123260ea022f3ef582ef6d
:103260001234982274f612252674fe122455122662
:10327000eb9003efe0906001f090099012225590de
:1032800061951222611217799003f4e0fe74016ec9
:103290009003ed7040e05402f97af57b0312166b4f
:1032a0009003ede0a2e050097a797b04752140801b
:1032b000077a737b04752100a2e150047e808002ae
:1032c0007e0075230678231227037cf57d03e52114
:1032d0004e44018064e0a2e050087a797b04784093
:1032e00080067a737b047800059290041a12271ed8
:1032f0007cfb7d038e2174942521f5827409122ca8
:1033000010e048f9121671740112243bee60057446
:10331000026e702e9003ede0a2e050087a797b04f3
:10332000784080067a737b047800059290043a1204
:10333000271e7c1b7d04e84404f9121671740112e7
:10334000243b9003ede0a2e0e433f9121665759199
:103350000090618274c0f08532828533831226f337
:10336000740212243b7f030225dbc082c083539288
:10337000fe9003dee004f064037002e4f0e0242534
:10338000906000f090099012225590619512226190
:103390009003dce05420f91216651217799003dcd3
:1033a000e0a2e15004d2f08002c2f0a2f0e4339037
:1033b000600cf09003dce0a2e1503575d90da2e578
:1033c0005004784080027800e84403f5d9e0a2e593
:1033d00050067a797b0480047a737b04790612168e
:1033e0003b740675d9001470fae5e170fc75e1953f
:1033f00075910090618274c00227cd74f812252661
:1034000074fe1224551226eb123488122255906154
:10341000951222611234b612378f85848285858396
:1034200012349d2410122c16a2e250170592e0f5da
:1034300082a3e0f5830592a3a3e02402f89061d56e
:10344000e028f0022c9474f81225261234881222f7
:10345000559061951222611234b612325d12349d7c
:10346000241c12325d12348324fcf8e934fff98ef7
:10347000828f83a3a3a3a312347d022ca2e8f0a31e
:10348000e9f022122cb1e822122bfc121779ee245b
:103490001212349522f582ef3400f58322122db9f1
:1034a000ee2435123495e8f0a3e9f07900eefaef56
:1034b000fb12176dee22ee2434123500906008f0f6
:1034c000ee2416123500906005f0ee241712350038
:1034d000906006f0ee2418123500906007f09060be
:1034e000607480f0123186ee242a1235009060005c
:1034f000f07591009004a3e0906182f0ee243722f1
:10350000f582ef3400f583e02274f712252674fe6d
:103510001224551226ebea4b700302359ea2afe44b
:1035200033fcc2af900444e0f584a3e0f585a884a1
:10353000a985e84960158a828b83a3a3122bff1209
:1035400035a19521ef9522548060148a828b83e502
:1035500084f0a3e585f0900444eaf0a3eb80398879
:103560008289831237974522602488848985a8211f
:10357000a9221235a1c39521ef9522548060e08adb
:10358000828b8312347d85848285858380cb88827b
:103590008983123776e4f0a3f0eca2e092af022f19
:1035a0003f88828983a3a31235acee22e0f521a3e4
:1035b000e0f5222274f512252674fe1224551226f7
:1035c000eb79001219898a218b22ac21ad2290045b
:1035d0003de4f0a3f09004441237b970030236a022
:1035e00090043d123776122db590044412347d8a32
:1035f000848b850592a3a38584828585830592802b
:10360000118a828b83a3a3a3a31237c185848285e9
:103610008583123797c39ce5229dc312376e5013e2
:103620008a828b83a3a3a3a3a3a3e0a2e740d28ca7
:10363000218d228a828b83a3a3a3a3e0fca3e0fdb8
:10364000e5212cfee5223dffe849607088828983f0
:10365000a3a3122db5e8c39ef523e99ff524c3e586
:1036600023940312376c50548a828b83a3a3a3a3a1
:10367000a3a3e0a2e7503de8c39521f523e99522f5
:10368000f524c3e523940412376c50280592e02cee
:10369000f0a3e03df012350990043d122f38701c64
:1036a00012379de594a2e2500375940079771219c0
:1036b000a7023760e824fdfee934ffffaa21ab2210
:1036c000793012199beefaeffb794012199b79546d
:1036d0001219a7122fe42404601214600514600765
:1036e000800f123264801c12336a801712177f8099
:1036f00012059290046de0a2e050051233fb8003a6
:1037000012344679001219898a238b24e521c39546
:1037100023f8e5229524f9c3e89405e912376e50a1
:1037200022121791e5e170fc75e12190043de0243f
:10373000041237802521faa3e03522fb79401219c3
:103740009b801d900369e0a2e04012aa21ab2212e7
:10375000199590048312226112379d8003121791ec
:10376000121863853282853383022befe52494009f
:10377000a2d265d03322eaf0a3ebf08a828b8322b7
:1037800012378422f584a3e01237920592e022f5e5
:1037900084ef3400f585221235ace52122e5a8f846
:1037a000c2af9004aee0c2e01237ac22f075340034
:1037b000e8a2e792af22123495e0faa3e0fbea4bcd
:1037c00022122bff858482858583e02ef0a3e03fc3
:1037d000f0220000853487c2af22c0e0c0d075d08f
:1037e00010c092c082c083c0f074fc122425539292
:1037f000fe9004afe0601712165f900369e0541169
:10380000700375c6879004afe4f0c2c78026c2c7b4
:10381000853282853383aa82ab8312178be96401d8
:1038200070129004af7401f08532828533831222c6
:1038300055121857740412243bd0f0d083d082d094
:1038400092d0d0d0e03275c3007420c39afa744e7f
:103850009bfbeaf5a2ebf5a35392fe22c02175c3b0
:1038600001e5a2f521e5a375c300f9e5212420f8bf
:10387000e9344ef9e8c39af8e99bf9e8f5a2e9f5cd
:10388000a3d0215392fe22c082c08374fc1224254f
:10389000e5a8f8c2afe5958532828533835392fe61
:1038a000f0e596c0e0740112248ed0e0f0e597c0f8
:1038b000e0740212248ed0e0f0e8a2e792af740325
:1038c00012248ee4f08532828533831222557404eb
:1038d00012243bd083d08222c0e074f11226211240
:1038e00038879005f4122261e58955ab9005f8f010
:1038f000e5809005fbf07b007a0079061219d175fe
:103900008900c2c57f01022688c0e074f112262119
:103910001238879005f4122261e58a558d9005f9d9
:10392000f0e5909005fcf07b017a0079061219d140
:10393000758a00c2eb80cdc0e074f0122621906140
:10394000a9e4f0900602e0640f7012e5c7f8900356
:103950006ae0f5c790ff1ce0f4f5ae88c7e5bbf957
:10396000e5bafae9fb900602e0c333f8e433f974f0
:103970000328f582740639f583eaf0a3ebf090068c
:1039800002e02410fb7a0079061219d1e5a8f8c2ea
:10399000af9004aee0c2e2f0753400e8a2e792af67
:1039a0007f02022688c0e0c0d075d008c092c082d5
:1039b000c083c0f0e5d1f875d100c2c0a2e35009c0
:1039c0007b037a0079041219d1d0f0d083d082d051
:1039d00092d0d0d0e032c0e0c0d075d018c092c034
:1039e00021c022c082c083c0f05392fe9007e11232
:1039f0003aef602b90079ce0700c7401f07b007a2a
:103a00000079041219d1ee9007e1f0e5c1c0e0742d
:103a1000e32521f58274073400f583d0e0800be5bf
:103a2000c4a2e6500690079b7401f0023adec0e0a3
:103a3000c0d075d018c092c021c022c082c083c03f
:103a4000f0c2e95392fe90079ee0fa90079de09a3b
:103a5000543ff860258a21749f2521f5827407124e
:103a60003b6390079ef089c19007dfe06870197b87
:103a7000027a0079041219d1800ee5a8f8c2af903d
:103a800004aee0c2e3123b598054c0e0c0d075d010
:103a900018c092c021c022c082c083c0f05392fee1
:103aa00090086b123aef602a900826e0700b7401c0
:103ab000f07b00fa79041219d1ee90086bf0e5f969
:103ac000c0e0746d2521f58274083400f583d0e0e0
:103ad000800be5fba2e650069008257401f0d0f0bb
:103ae000d083d082d022d021d092d0d0d0e032e08a
:103af000f52174012521543ffea3e06e22c0e0c0f1
:103b0000d075d018c092c021c022c082c083c0f03e
:103b1000c2ea5392fe900828e0fa900827e09a54ef
:103b20003ff860258a2174292521f5827408123b0b
:103b300063900828f089f9900869e06870197b02a1
:103b40007a0179041219d1800ee5a8f8c2af900469
:103b5000aee0c2e4123b598085f0753400e8a2e77c
:103b600092af223400f583e0f974012a543f22c059
:103b7000e074f0122621906206e0f89008c3e04855
:103b8000f0906202e0543ff5217522007404782120
:103b90001224129008c3e04521f0a3e04522f090e2
:103ba0006204e0543ef52175220074097821122444
:103bb000129008c4e04522f09008c3e05404600766
:103bc000e054fbf0121dfd9008c3e0f8a3e0f9e813
:103bd0004960119008d2e0700b7401f0fb7a007913
:103be000071219d1758b00c2e87f02022688033fb5
:103bf0000000030004280d98089007900194011b11
:103c00000195111b08f00939821f0ea4fecd8221f7
:103c10000622fb381818162118f0ef3818f2ed3884
:103c200028f2eb3868f003392a1fe73f08f0042830
:103c3000ba3868f0393c08f1053c88f1173ca8f126
:103c40000e3ce09f2c1f0128104a291fd63f15d09b
:103c5000033827d00938009004289f3f01281541d8
:103c600001980128014a25d01f38041f831f0ea484
:103c7000fecd042205381421202807a0083f06287d
:103c8000681527d0e939202807d0f238832178f148
:103c90000238042188f1083d0628a14001f00428db
:103ca0008438042807a005284d1528f1163c68f132
:103cb000143d77cf1240599202d80f3912d00739ec
:103cc000699222d00439799242d004380528ef1540
:103cd0001e3fc09f04286c3f08f1233c88f1203d23
:103ce000094028f1103d4540f7c759f2083d9303bc
:103cf000131183e1b9f00f3c23e00d3f09d8ea38f6
:103d0000f9c30b3f68f1033d59f2f23c09d8f93988
:103d10000528bd150528f01501900128214a051f29
:103d200048f00c3c08f10a3868f1033c98f1063978
:103d30000c960528f9150228843f47a00c96052803
:103d4000f315531f0528e31507288ced0528ec15fe
:103d500001280195711b01280ce40528e515511f68
:103d600088f10b3808f1073868f109390128214238
:103d700001f00b3947d009383521063f28f10338c7
:103d800038f10339351f341f04280ce047d00339bc
:103d900003280ce80528c815571f28f00638561fb9
:103da000811f021f38f0063930215b9005283b1532
:103db000fd3f88f1033d0428f7150528811547d0fc
:103dc000133808f10f392c470cf00c38c403b41227
:103dd0005c110c3e04f00a38c103802801a0411b8d
:103de000063f3021043f07284ced4c1b5b9047d029
:103df000173827d00328e8390ea4fecd02220d394a
:103e0000002208381021002914e00328dd3c4c1b57
:103e1000f13f05289e15ee3f46181221033f052865
:103e2000021588f13039052811150128fb41302190
:103e300000291be00a3d0428f61505280715f6c3de
:103e40005192166a3b906b080428ed150428fe1564
:103e50000bf0fb3917d004382d1f0128c43f03286d
:103e6000214701f008390328314701f00439a295b0
:103e70008090033fc29500920328b615201b5490f2
:103e80000128b33f08f10539052111900128214a85
:103e900038f103390021023f302110216a03042840
:103ea000c2156b033141224128f1093d02f002396c
:103eb000f29101f00b39ff28f191083f02f002392d
:103ec000529201f00339ff28f193f7cb1b06023918
:103ed00007a4b20c073d47d003286e38249003286e
:103ee000753f1690b6080428b115a6030428ae1530
:103ef0003be0f7ce28f1703c012807a0f090a00627
:103f000068f1323d149030f0053938f103285e38fd
:103f1000073f50f003285a3958f10328573838f131
:103f200004380328ab15033f0328891503287515aa
:103f3000012807d0033907a1563f424130f00c3920
:103f400007a112d0033807d84e3887a0c14041d00e
:103f50004a38f7ce483f38f1033822d0443807d8e2
:103f6000423907a1403f78f1123847d02d3800f090
:103f7000033860f00639c14011d0073887a0113fdf
:103f800010f0033820f0ab3977cf0b3f00f0033847
:103f900010f0a539414181d0043903285015093f5b
:103fa00003286c1568f10539414141d0023907b841
:103fb00010f0063903283115012807d0033807d837
:103fc000123907a1103f40f00228fc3903281415cc
:103fd00007d8f838083fa10383403112310511d0ca
:103fe000023907a14bf0063c04281d1504282e15a4
:103ff000fa3f042818151bf0fd3d38f1033803285b
:10400000a115f7cd0328214701f0053903283147d1
:1040100001f0033807a2f7ce224082d00a38060307
:1040200004281415069376062611960404280e1506
:1040300071034112002871c021070438e7cf41986d
:10404000043f17d0043951980728214817d0053864
:10405000f295202800901d3f07d20438c2950092a7
:10406000183f07d10438d2950094133f07d4043881
:10407000e29500980e3f809028f10a3d3190a1060c
:1040800031f0063903a4b2950228aa1500a1a29521
:104090000228a615201b28f1633d08f10a390128e2
:1040a00007d00739072851411128c14a012807a024
:1040b00017d20539e3cf8ad0023813a007d20539c9
:1040c000b3cf4ad0023843a083d01e393103111236
:1040d000310521d00739319907282148002915e0f9
:1040e000133f529502287c15454003d10d39429566
:1040f00002287615281f21990728214803d2043861
:10410000629502286d1573cf834808f1093977cf7e
:1041100017d0063907d203390ad1023887a0349064
:1041200007d2073807d803383090543f07a8023f1a
:10413000f7c718f15a3927d04c39314011d04939d5
:1041400087d0073917d0453907d203390ad141380a
:1041500005f04b39414001f0483850903b3f68f141
:10416000153878f13938149017d03d3907d23d39d8
:1041700087d003383490393f07d13739119001285f
:10418000214a409003286e15253f47d01c382490c3
:1041900007d30c3911900128214a87d0083851449f
:1041a000002911e0043a514c023877cf17d01b395f
:1041b00087d003383490193f07d31739c14021d035
:1041c0001438073f17d00f3907d303383090023f18
:1041d000009044900a3f249017d0053907d3053941
:1041e0003490033fa09f44900221c190511b812134
:1041f000342124f0083927d004390c9cfd2bae3f24
:1042000010904490b7cf34f00e3953210328e19534
:10421000711b541f0f28cc9506282141f1c0811134
:104220001c09143f0190511b0728f19f711b80212d
:1042300014f00128863854f0fd2b0a380128ad3fd0
:10424000541f032864151028cced03286d15762122
:104250007821501f0128a29a217001b2218001b259
:1042600021802ce30328601574210128ace408f1b7
:10427000073c88f1033d0228971503282115011feb
:104280000128349d03285015201f002168f0093da6
:10429000069058f003390728364102289315fa3f53
:1042a0000728504078f10439331f321f0421500091
:1042b00000dc01287c3828f1103d8340f7cb310326
:1042c0001112310521d0033903d1033900d8103838
:1042d00007a41b901a90163f00d80128683998f15e
:1042e00007394b700128e2412b0800288e3f102827
:1042f00007a04b701bf0fc2bed3c4a70224128f1cb
:10430000303d02f00239f29112e0b20cfc2be23c9b
:10431000419031061111ff2be29f3204520022110d
:104320001a042a043240002862c018f1033927d049
:104330000d3922f0093907280141b109002921e08e
:10434000093a0aa1073f42f00339face033f62f06f
:10435000f93818f1253977cf0ad1223887a0203fc4
:1043600002f00239529212e0b20cfc2bb33c68f11d
:10437000123d38f1153887d013390128314201f048
:104380000f38402807a00728914231c0c1a0072854
:10439000914a063f02280190710621121a04ff2b50
:1043a000f29fb2084be0a60302280c152603022850
:1043b000091568f1293cfbf0273c62904670022801
:1043c0000115d2370428609662904670062d0128a8
:1043d000f915c23778f11839d04000d81538dbf01c
:1043e000133c829046700128ed15d237764400d4f4
:1043f0000338060e023f060d41700128e315417097
:1044000086120128df153290b20c053d4670012856
:10441000d915fb3f08f1063941721128c14a01281c
:1044200007a0ef28f7cf28f11e3d83403090a0066b
:1044300031031112310521d003398295043f30f048
:10444000043972950028cc1553c843d0023823a0f4
:1044500007d4023803a130f0023903a283489295b1
:104460000028be1506900bf005380128ab15591f22
:10447000fb3f0ea4fecd0122043902286a15fa3f43
:10448000551f1121031f249008f10f390ad1033958
:1044900087d02438314011d0213905f021394140ed
:1044a00001f01e3850901b3f48f1073828f10338bf
:1044b00058f1063987d0143877cf1490113f78f12e
:1044c000053911900128214a093f98f1093982954f
:1044d00000288a15281f5490033f009044900ea492
:1044e000fecd0322043902283415fa3f13212c187b
:1044f00001210321741ff1900000f1370190511b3d
:104500000728f19f711b802132210728914231c079
:104510000728914abf28f7cf28f1063c88f1043dcf
:1045200092955e15281f44f0383814f00a3854f07c
:10453000fb2b8e3801280ce40128f615fc2b023fda
:1045400001289015009027d0283902d8083838f172
:104550002439329001289215e237193f19e089f287
:10456000043c38f11a39599238f10339012886157b
:1045700012409103002951e2120e12d0f0380128a6
:1045800086150128b915124001289115319907287f
:1045900021482c18fe2b553f0128104a0028a91548
:1045a000fb2b2b3ff09f043fd09f023fb09f002882
:1045b000d0152c1ff23f28f1053c68f1033d149003
:1045c000053f2090023f10904490419807282148d1
:1045d00038f1fe2b0a380028b515fe2b063f217056
:1045e00011e021800200012821410728214821787b
:1045f00011e021880200f7c7761571033112a10579
:1046000001d4023907a80428649631150238f7c787
:104610000428c4f6fb3c0200fe28f7cf6415514184
:104620007111a10501d80339012807a064911f1554
:104630000338fe28f7cfc4f1fb3c0200f7c753153f
:104640005141022807a00ad40339fd28f7cf5111a0
:10465000a10501d4023907a8c4910428659607155d
:104660000238f7c7563124f2fb3c02000028db1564
:104670000028ec15412d160c0200f7c73415d03276
:10468000d332234268f109394141904041d0043886
:1046900050000306023f03033142022807a00ad458
:1046a00004395100fd28f7cf13064492042865967b
:1046b0000028b9150028ca155631ff28e19f40701f
:1046c000060c023813068ea0810064e044f5f83c25
:1046d0000029f4e2a4f2ed3c03f0023807a8d32f3e
:1046e000d02f02009bf0023c020007a12de0020047
:1046f00098f10938102807d0033908f104383199a6
:104700000728214808f10c39012807d00938072863
:1047100051411128c042010c03380728504911901b
:10472000082807d005380628b148f728f7cf04280d
:1047300007d005380628a148fb28f7cf3021291fcc
:104740000200311fff28f19f411b301f3121020061
:10475000022101210321532309380628d14001d128
:1047600012384198072821480b3f54230c38502118
:10477000f1910000f137741ff1900000f13768f0fb
:10478000023c2b1f0190511b81210728f19f711bb7
:1047900080210728914231c00728914abf28f7cfce
:1047a000322134210200082807d007390628b140f9
:1047b00001f00438082807a0020004280d98fe2bf9
:1047c000f43f402807d00d390ea4fecd0122043954
:1047d0000028bf15fa3f661b112100291be00200cb
:1047e0000728a64a0ea4fecd012204390028b115df
:1047f000fa3f01283142b10941e0053a08384bf04f
:104800000c38ea3d0728a142611be73f0728914287
:1048100071cf0728914af73f0728914281a20728c4
:10482000914ada3f0ea4fecd0222043900289115e8
:10483000fa3f4618122100291be01bf00639581fc9
:104840000628e0400128004a020017d00a39312228
:10485000063817a0419807282148033f0728a64893
:104860000200124038f1093802d8073991030029b3
:1048700041e2120e120d1248020047a07b280c9c48
:1048800010215215ff2b5e15b7cf020059f20339e4
:104890006391083f69f20339e392043f79f20339e7
:1048a0004396020004280d98fa2b143f02d40738cf
:1048b0009103002901e2117006286148020088f185
:1048c0000a3c012831410728814ab1460328314f6b
:1048d000a1460f3f0728894a28f1063d31440328a5
:1048e000314f5140053f552851950328314f8111d3
:1048f0000328214f0200e3f3033cf190033f23e040
:1049000051920628614a0628434802007b217721fc
:1049100041900000f137702175217a218cee041549
:10492000521f801f02004c1b001f47d0033827d0a6
:1049300009390ea4fecd002203390b15f73f1021d3
:10494000020004280d9838f1fe2b2738fe2b3c3f3f
:10495000d23202180119210601d41a381218162170
:1049600062f003392a1f2d3f12f2153822f228383f
:10497000fe2bef1568f0063c61900128114afe2bd2
:10498000b8153021280304280d98f92b373f01d1a1
:1049900014381421202807d00d3878f11239042357
:1049a0001038714401f002398144002911e0714c42
:1049b000083f202807a0053f01d20538152127a070
:1049c000d22f020011d00638102104280d98fd2b9b
:1049d000f33ff2ce5200121bf43f00010000020030
:1049e0000000c11a0000000100000000eb1a0000e6
:1049f000000200000000fd1a000300032400000074
:104a0000df1a0002000404000000e51a000000059f
:104a1000000000002d1b0000000600000000931b9a
:104a20000005000726000000451b000000080000ec
:104a30000000cf1b0002000982000000271b0007b6
:104a4000000a2a000000d51b0007000b2a00000006
:104a5000db1b0000000c00000000e11b0002000d49
:104a6000220000001b1b0003000e22020000211b7d
:104a700000000100000000003f1b000001010000d9
:104a80000000c31b0000010200000000331b0003f4
:104a9000010384000000511b000201040400000017
:104aa0004b1b0002010504000000391b0001010638
:104ab00002000000f11a0003010784000000f71a49
:104ac00000040200240800009f1b000402014400af
:104ad0000000791a00020202040000007f1a00039d
:104ae0000203220800006d1a0002020422000000e6
:104af000731a00010300020000005b1a00010301a9
:104b000002000000c91b0009030242440400551ab8
:104b10000001030302000000d91a0001030402008f
:104b20000000c71a0002030582000000cd1a000130
:104b3000030602000000d31a000103070200000070
:104b40004f1a0002030882000000251a0008040022
:104b500042440800611a0006040142840000851adc
:104b60000006040242840000911a00050403420476
:104b700000008b1a0003040442000000971a00048e
:104b8000040542080000a31a0004040642080000bd
:104b9000bb1a0001040702000000671a00030408a2
:104ba000420000009d1a0006040942840000a91a70
:104bb0000002040a22000000af1a0002040b820067
:104bc0000000b51a0002050022000000151b0001bc
:104bd000050102000000a51b000105020200000003
:104be000b11b0003050322020000ab1b00050504f6
:104bf00062000000b71b00000505000000008d1bcf
:104c000000010506080000005d1b000206002200ee
:104c10000000571b0002060122000000691b000172
:104c20000602020000006f1b000f06032a44440026
:104c3000811b0000060400000000871b0008060519
:104c400044440000751b00030606220200007b1b83
:104c50000005060744020000091b0005060844027f
:104c600000000f1b0002060982000000031b000762
:104c7000060a2a000000631b00030700220200004e
:104c8000f91b0006070126020000051c00030702ad
:104c900022020000ff1b00020703220000000b1c81
:104ca0000002070422000000111c00030705220275
:104cb0000000171c00030706220200001d1c000252
:104cc000070722000000231c0006070822222200fa
:104cd000351c00020709820000003b1c0003070a84
:104ce00022020000291c0003070b220800002f1cd1
:104cf0000001070c03000000991b0005070d22426c
:104d00000000411c0003080022020000311a0001cb
:104d1000080102000000371a00000802000000002d
:104d20003d1a0000080300000000431a00000804b8
:104d300000000000491a00010805080000002b1ab5
:104d40000000000000000000e71b00000001000060
:104d50000000e71b000600020a000000e71b00023b
:104d6000000304000000e71b00030004240000000f
:104d7000e71b0005000522220200e71b00010006d8
:104d800002000000e71b0005000786000000e71b8b
:104d9000000c000844442402e71b00020009040040
:104da0000000e71b0002000a04000000e71b0002ed
:104db000000b04000000e71b0000000c00000000d6
:104dc000e71b0003000d84000000e71b0002000e3b
:104dd00004000000e71b0000010000000000e71bca
:104de0000000010100000000e71b000001020000bc
:104df0000000e71b0002010304000000e71b0003a2
:104e0000010484000000e71b000001050000000011
:104e1000e71b0002010604000000e71b0000010779
:104e200000000000e71b0002020004000000e71b76
:104e30000007020144840000e71b00050202440849
:104e40000000e71b0000020300000000e71b000059
:104e5000020400000000e71b000303004200000002
:104e6000e71b0002030132000000e71b00030302fe
:104e700042000000e71b0003030342000000e71ba1
:104e80000002030482000000e71b00030305420048
:104e90000000e71b0003030642000000e71b0001bf
:104ea000030702000000e71b0001030802000000e6
:104eb000e71b0003040042000000e71b000304019d
:104ec00042000000e71b0003040242000000e71b51
:104ed0000003040342000000e71b00030404420037
:104ee0000000e71b0003040542000000e71b00036d
:104ef000040642000000e71b000204070400000053
:104f0000e71b0003040842000000e71b000304093c
:104f100042000000e71b0003040a42000000e71bf8
:104f20000003040b42000000e71b000305004200e1
:104f30000000e71b0000050100000000e71b000265
:104f4000050204000000e71b00000503000000004c
:104f5000e71b0002050404000000e71b0001050533
:104f600002000000e71b0000050600000000e71b30
:104f70000000060000000000e71b0002060104001c
:104f80000000e71b0002060204000000e71b00030c
:104f9000060324000000e71b0002060404000000d2
:104fa000e71b0003060524000000e71b00020606bd
:104fb00004000000e71b0002060704000000e71bd6
:104fc0000002060804000000e71b000206090400b6
:104fd0000000e71b0002060a04000000e71b0002b5
:104fe000070004000000e71b0002070104000000a6
:104ff000e71b0002070204000000e71b0002070392
:1050000004000000e71b0002070404000000e71b87
:105010000002070504000000e71b00020706040069
:105020000000e71b0004070724020000e71b000242
:10503000070804000000e71b00040709240800001b
:10504000e71b0003070a84000000e71b0001070bb1
:1050500002000000e71b0000070c00000000e71b37
:105060000002070d04000000e71b0000080000001c
:105070000000e71b0000080100000000e71b000221
:10508000080204000000e71b000008030000000005
:10509000e71b0001080408000000e71b00010805e9
:1050a00008000000e71b800c000044442402e71bba
:1050b0008001000108000000e71b800200022200be
:1050c0000000e71b8002000322000000e71b8004b1
:1050d000000444000000e71b80030100840000007e
:1050e000e71b8007020022440800e71b800602013c
:1050f00042240000e71b8003020224000000e71b9b
:1051000080100300222a4424e71b80060301224466
:105110000000e71b8002030282000000e71b800200
:10512000030382000000e71b800303044200000029
:10513000e71b8003040042000000e71b8005040118
:1051400042040000e71b8006040242840000e71bc3
:105150008007040342240800e71b8004040442087b
:105160000000e71b8005040542820000e71b800267
:10517000040682000000e71b8003050022080000ef
:10518000e71b8003050142000000e71b80050502c4
:1051900062000000e71b8001050302000000e71b1e
:1051a0008004050422220000e71b800b0600232a4e
:1051b0008200e71b8002060122000000e71b800737
:1051c000070026220000e71b800107010200000003
:1051d000e71b8003070252000000e71b00000000ed
:1051e0000000000000001e0a0f3c0a084c0a055689
:1051f0000a09680a0c800a078e0a0ba40a0ec00a64
:105200000674f71224b79004b9e0f52179008007fd
:1052100074ff2521522109e52170f502684974f6d1
:105220001224b7e99004bb7006e054fbf08017e04d
:1052300044041257941226ffeafcebfd7abd7b046e
:10524000126b5b12243b02578f74f71224b774fe63
:105250001224551226ebe975f075a4f8a9f0125244
:10526000ad2469125e0512540eea4b703de58424ac
:1052700067125e05e4f0a3f0900365e028faa3e06e
:1052800039fbea2469f582eb125e097417f0a37406
:1052900019f01252ad2467fce5853400fde5842445
:1052a0006ffae5853400fb12162902683b9003650e
:1052b000e028f584a3e039f585e5842274f612240c
:1052c000b77900752101752200e978211224129026
:1052d00004b9e05521600709e9c3940840e5740862
:1052e00069700279ff02578fc021e9faa2e05005e8
:1052f0007521038003752100a2e15004780c80021f
:105300007800e84221eaa2e2500478108002780096
:10531000e84521f9d0215392fe02111874f51224a8
:10532000b774fe1224551226eb8921740d12248eb7
:10533000e0f8a3e0f9752300802f852382ae82e890
:105340002ef582e9125e09ec2ef584ed3400f58528
:105350000592e0f5220592e06522c0e0ea2ef58292
:10536000eb125e09d0e0f00523e523c3952140ca86
:105370008532828533831226f3740212243b7f0325
:1053800002258f74f71224b77521008017852182ba
:10539000ae82ec2ef582ed1267d8f8ea2e1267d5b0
:1053a00068f00521e521c39940e302684974f612cb
:1053b00024b774fe1224551226eb8a848b8575213e
:1053c0000875220078211226ff7acd7b04126b5bd0
:1053d00012243b78211226ff7c007d007ad57b04c5
:1053e000125ab412243b7521cd752204782112265d
:1053f000ff7ccd7d04aa84ab85126ab412243b9055
:1054000004cd12540e025781853282853383e0fa2f
:10541000a3e0fb2274f41224b774fe122455122662
:10542000eb8a848b85740e12248ee0f8a3e0f97465
:105430001012248ee0f521a3e0f5229004cdecf0cb
:10544000a3edf0a3e8f0a3e9f075230c7524007830
:10545000231226ff7c007d007ad17b04125ab412fd
:10546000243b78211226ff7ccd7d04aa84ab8502e3
:105470006a9774f41224b774fe1224551226ebeacc
:10548000feebff740e12248ee0f521a3e0f5228cd2
:10549000238d2478231226ff7910900361e02402e3
:1054a00012669faa21ab22121887740212243b783d
:1054b000211226ffac21ad22126ab012243b9004c7
:1054c00071e0a2e050067c797d0480047c737d0449
:1054d00090046de0a2e050047a0080027a0679061a
:1054e000e5212afae5223400fb12188d90046de0c4
:1054f000a2e050057523068003752300790690030a
:1055000063e075f0e4a4faabf0059290043be02a66
:10551000f582a3e03bf5830592a3a3a3a3a3a3a3d2
:10552000a3a3ac82ad83e5212523fae5223400fb59
:1055300012188d78211226ffac21ad22eefaeffb76
:10554000026a9774f61224b774fe1224551226ebe1
:10555000eafeebff740c12248e125adc75210375df
:10556000220078211226ff7acd7b04126b5b122475
:105570003b75210d78211226ff7c007d007ad07bbf
:1055800004125ab412243b7521cd752204782112dd
:1055900026ff7ccd7d04126ab012243b7521037571
:1055a000220078211226ff7ccd7d04aa84ab8512cf
:1055b0006b5b026c5174f61224b774fe1224551200
:1055c00026eb126e35640a7521107522000592785b
:1055d0002160030256701226ff900361e0244212fc
:1055e0005ec012243b7521cd75220478211226ff5e
:1055f00012667a12243b752110752200782112263a
:10560000ff125ac47acd7b04121ebd740212243bd1
:105610008b22ea452260117904eefaeffb1218c9d9
:10562000125e1ce4f0025711126a65eefaeffb12eb
:10563000193575210875220078211226ff12572c82
:10564000125ec012243b12571c8a218b22059278cd
:10565000211226ff125826126ab412243b12575305
:105660001226ff12573612243b125e1c740b80b4b4
:105670001226ff900361e02432125ec012243b75b3
:1056800021cd75220478211226ff900361e0243297
:1056900012668012243b7521107522007821122693
:1056a000ff1266997acd7b04121ebd740212243b50
:1056b0008b22ea45226003025617752108752200e5
:1056c00078211226ff12572c125ec012243b05923d
:1056d000900361e02453125aba059278211226fff2
:1056e000125826aa21ab22126ab412243b12575335
:1056f0001226ff12573612243b125e1c7406f07cf1
:10570000007d000592900363e0f9eefaeffb1217bb
:10571000558532828533835392fe806b05929003c8
:1057200061e024531267ddaa82ab8322126a69907a
:105730000361e0244a227c007d00900361e02af8a6
:10574000a3e03400f9e82453fae93400fb121ec93f
:10575000740222126a84f52195e0f52205927821df
:1057600022126ba31257941226ff8a828b83a30afc
:10577000126b5912243b7c067d00aa84ab8512155e
:10578000ff8532828533831226f3740212243b7f15
:105790000202258ff075211075220078212274f6ff
:1057a0001224b774fe1224551226eb126e356404cf
:1057b0007521107522000592782170211226ff9024
:1057c0000361e02422125ec012243b125826eefa36
:1057d000effb121935125e1c7405f080461226ff8d
:1057e000900361e02412125ec012243b126e4a64e0
:1057f0000970260592900361e02422f521a3e0348c
:1058000000f52278211226ff900361e0243212660f
:105810008012243b12666e80c17408f0eefaeffb32
:105820001217f7025711900361e0244212669f227b
:1058300074f01224b774fe1224551226eb74fa1277
:105840002425853282853383eaf0a3ebf085328408
:105850008533850592e02409125aba125e6b8521c0
:1058600082852283125e5a0592f07a005392fe904e
:10587000618fe0c0e0125e0d2442f582e9125e09fc
:10588000d0e0f00aeac3941040e2752306752400c4
:1058900078231226ffac21ad22900361e0240c1284
:1058a0005ec012243b900361e0240b125f06740279
:1058b0000592125ea4c0e0125e20d0e0125dfbc033
:1058c000e0125e1ca3d0e0f07e1085218285228349
:1058d0000592a3a3a3e0f894105002e8fe74f928ff
:1058e000c3940a400b79061254081218c9025aaf21
:1058f0009004bbe0f8852182852283a385822585db
:105900008326e07009e854046004790280d9852177
:1059100082852283a3a3858223858324e8a2e0c015
:10592000d0e0a2e092f01224a4158182f050081277
:105930005e9f7003125ace125e269004bbe0f854ac
:1059400004600d852582852683e060047f04803015
:10595000852382852483e0a2e250239004b8e0fcf2
:10596000852182852283e075f005a4faabf074e509
:105970002afa74093bfbea2c1267d5ff80027f00ec
:105980009004bae0faeec39a50030258e5e85402d4
:105990006008ef700579030258e7125e50ee059239
:1059a000f0ef70047a0080027a01125e840592f0b2
:1059b000a3e9f012571e74046f75211075220005bb
:1059c00092782170101226ff7cbd7d04126b5b1251
:1059d000243b025a851226ff7c007d00125ab41225
:1059e000243bef7003025a8514600f146032146078
:1059f00009147003025a85025aaf125e1c7403f038
:105a00000592900363e0fff9121ca7900363e06f17
:105a10006005eff91214191254081217f7025aaf61
:105a20007904740212248eaa82ab831219f57402cf
:105a300012248e78251222249009fe782112222425
:105a400078257921122011740212248e78211222d5
:105a50004675210475220078211226ff7404122451
:105a60008e125eb612243b900363e0ff7402122490
:105a70008e122255eff9121cad900363e06f6005a2
:105a8000eff9121419900361e02412f521a3e03418
:105a900000f52278211226ff12667a12243b125a50
:105aa000c4853282853383e0faa3e0126649f0743c
:105ab000060268f9121ec97402221267dd8582216e
:105ac00085832222900361e0241212669f2212181d
:105ad0007b125ad9e90592f022900361e0f584a384
