:020000040000fa
:100000000200de021003000000000002100b0000de
:10001000000000021013000000000002101b00008e
:10002000000000021023000000000002102b00005e
:10003000000000021033000000000002103b00002e
:10004000000000021043000000000002104b0000fe
:10005000000000021053000000000002105b0000ce
:10006000000000021063000000000002106b00009e
:10007000000000021073000000000002107b00006e
:10008000000000021083000000000002108b00003e
:10009000000000020cf41200f0b900030200d8e4e2
:1000a00090000278a579018002f0a3d8fcd9fa90db
:1000b00000a6aa82ab839000f6780979018015e446
:1000c00093a3ac82ad838a828b83f0a3aa82ab8395
:1000d0008c828d83d8e9d9e7120306120d1375d0ef
:1000e0000075813f75188075931e5392fe0200962d
:1000f00079015392fe220010000000000200bb01b3
:1001000002e722c0925392fec082c08389828a8312
:10011000bb0003e08002e493d083d082d09222bb64
:100120000015c0925392fec082c0838a838982f0f8
:10013000d083d082d09222bb0101f722cac0e0e670
:10014000f30908dafad0e0fa22cac0e0e0f208a324
:10015000dafad0e0fa22600c08c6c313c618c61338
:10016000c6d5e0f422700422600d18c6c333c60859
:10017000c633c6d5e0f41822e4735392fed083d080
:10018000822518f8c518c39824fbcef208e520f2a2
:1001900008e9c0e07908e709f208defad0e0f9eff3
:1001a000f208d0e0fed0e0f208eef208e473a818fe
:1001b000e2fe08e208f520e9c0e07908e208f70964
:1001c000dffae208ffd0e0f9e208c0e0e208c0e0b0
:1001d00088185392fe22e584f208e585f222e208af
:1001e000f584e2f585227403800474028000c9c09e
:1001f000e0e518c399f518c912013cd0e0f9227462
:10020000038000c8c0e0e518c398f518c81201497a
:10021000d0e0f8227400f5d374022408f5d253928a
:10022000fe22a2afe433f8c2af5392fe906270e0b8
:10023000a2e740f5e9c333906272f0906270e0d2b9
:10024000e0f0e0a2e740fbe8a2e092af2274fa12ed
:10025000017aa2af33f8c2afed900002f0eca3f048
:10026000a37462f0a37473f0a3e4f0e9a3f0a374a1
:1002700012f0a37442f0eb906272f0ea906271f0b7
:100280007400f5d575d40275d601906270e0d2e1a4
:10029000f0e0a2e740fbe8a2e092af7f010201aeee
:1002a0005392fe906276e05470643070047803805c
:1002b000027807e5c7f988c790ff00e090001af0c0
:1002c00089c7a2e05004788080027800e8f5c6e58e
:1002d0009efce86c70f99062707408f02274fa1257
:1002e000017af9800c8a828b83e029f9a3aa82ab78
:1002f00083ecfeedffee24ff1cef34fffdee4f70ac
:10030000e47f010201ae5392fe900001e090001bd9
:10031000f01202a0e5c7ff75c7007c007d707a006f
:100320007b901202dde924a5fe8fc77f01e5c7f5aa
:10033000088fc77c007d807a007b801202dde92e69
:10034000fe8508c70fefc3940340e2ee7027e59dda
:1003500054186410700890001be0a2e04017900051
:10036000017403f005929000a6e0f582a3e0f58306
:100370000592120178900001e4f012021412062096
:1003800012065075c90890001be0a2e1400675c92d
:10039000a875c9581206b080ed74f812017a1518c4
:1003a0001518a8181201d690620ee0fee4f09062d3
:1003b00011e0f50aa2e450197480f090002374074c
:1003c000f0120593600612059e120178900023e456
:1003d000f0e50aa2e2500b906211e4f0900023f0e5
:1003e000806f900023e0f87402687051906216e00c
:1003f000ff90003a1201ffeff912057a8f08900082
:100400003d1205881205ad12059660047440800205
:100410007448906211f0e84970101205936006125a
:10042000059e120178900023e4f0ee90620ef0a891
:10043000181201de051805187f030201ae74066864
:10044000700612059e120178900023e060030205f9
:1004500013e50aa2e050d3750832750900750a0049
:1004600078081201e6790812057a90003fe4f0a3bb
:10047000f0900032e054e0600e24e0606824a06058
:100480003e24e0606f8030a3e014601c24fe601303
:1004900024fe600a24fc601524fe601680191209ef
:1004a000fb805e1209f680591209f18054120b2a62
:1004b000804f120c58804a9000237404f0804aa3a5
:1004c000e0600e24fa600f24fe601024fe601180ac
:1004d000e612083c802b120a438026120b0480216e
:1004e000120bfa801c90003f74d8f0a37406f0122f
:1004f00006d8800d90003f7492f0a37407f01207a5
:1005000092900023e0640470047460800274409050
:100510006211f0900023e0f8740168704c750a02d3
:1005200090003de0f8a3e0f9c3e89420e99400507e
:1005300007e8ff750a0a80027f2090003a1201ff47
:10054000eff97a207b621206770518051805188fd7
:10055000081205ad120588e50a906211f0efc39408
:1005600020400302042a02041a740568600302048e
:100570002a12059e12017802042a7a207b62120652
:100580005c05180518051822c3e09508f0a3e0944f
:1005900000f02290003fe0f8a3e0f9e8492205923c
:1005a00090003fe0f582a3e0f58305922290003aa7
:1005b000e0f9a3e0faa3e0fbe92508f9ea3400fa40
:1005c00090003ae9f0a3eaf0a3ebf0a322c008c040
:1005d000097800880874242508f58274003400f531
:1005e00083e95392fef008e8c3940540e67800885a
:1005f0000874292508f58274003400f583e9f008b1
:10060000e8c3940540e9d009d008225392fe900037
:100610001c7402f0a3e4f0900023f079030205cdee
:10062000c008c00975082175090078081201ea7c24
:10063000007d007a417b00120d1605180518900008
:100640001c7402f090620f04f0e0a2e750fb80b649
:1006500053f4fed29043fe015392fe22eec0e0120c
:100660000698600c5392fee012011f12068d70f482
:10067000d0e0fe5392fe22eec0e0120698600c120b
:1006800000fe5392fef012068d70f480e3e924011f
:1006900009ea3400fa18e8228a828b83e9f8a9185b
:1006a000e3fc09e3fd09e3feecf9edfaeefbe822d9
:1006b000eec0e05392fe906206e0f8906202e0fe27
:1006c000906204e0e8a2e2500312060beea2e050b2
:1006d00003120399d0e0fe2274f712017a900033de
:1006e000e0700302078214600302077b90001b7412
:1006f00001f0900023e0f87030900038e0f8a3e0bb
:10070000f9e84970059000ac807b90003a7462f083
:10071000a37400f0a3e4f0a3e8f0a3e9f0900023b1
:100720007402f09000ac048063740268704d900015
:1007300034e02440f508a3e03400f509e508541f2f
:10074000701285080a85090b7405780a120156a9ea
:100750000a120222900038e0240354fcf97c627de6
:100760000074047808120165aa08ab0912024d90c2
:100770000023e4f09000ac74058011900023740411
:10078000800a90001b7402f0900023e4f07f0402c2
:1007900001ae5392fe900033e06403701a90003a69
:1007a00074a8f0a37400f0a3e4f0a37406f0a3e42b
:1007b000f090002304f02280009000237404f022c3
:1007c0005392fe9000a2e4f0a3740ff02274fa1288
:1007d000017a15181518a8181201d6eafcebf87a58
:1007e000007b00088030e86045a3e493fdec6d6079
:1007f00039e96d700b05929000a2e0faa3e0fb18b6
:100800005392fe9000a2e02efea3e03400ff900081
:10081000a2eef0a3eff09000a2e0f584a3e0f5854e
:10082000e4059293fe70bfe860047a007b00a8188c
:100830001201de051805187f010201aec008120b77
:10084000ec7011a3e0f8a3e0700aa3e06402700268
:10085000a3e06008900023740402090c900032e0c9
:100860002480600814602a14603780e8e870e590fe
:10087000002fe060047801800278009000a4e8f086
:10088000a3e4f090002ee060689000a4e0440280b1
:100890005c90001ce0640470bb9000a4e4f0a380b2
:1008a0004fe8547ff50890001ce0640470a6e5084a
:1008b000c39406509f741c2508f58274003400f51b
:1008c00083e854806010a3a3a3a3a3a3a3e06403bd
:1008d000701578018013e582240cf582e5833400dd
:1008e000f583e0640360eb78009000a4e8f0a3e4f3
:1008f000f0900023e06404601490003a74a4f0a324
:100900007400f0a3e4f0a37402120c4ff0d008229c
:1009100074f912017a15181518a8181201d6e9faf7
:10092000900038120bf2701090001ce0640460100c
:10093000900036120bf2600890002374040209e064
:10094000900032e0541f600814600d14601580e8b8
:10095000900034e06401600579000209e3ea900048
:100960002e807d900036e0547ff508900034e070d2
:10097000e7e508c3940650c0e50890620ef0741cc9
:100980002508f58474003400f585900036e0548025
:100990006021ea6004741080027440906211f0eaf1
:1009a000600474038001e40592a3a3a3a3a3a3a3fb
:1009b000f08026ea6004742080027480906214f053
:1009c000ea600474038001e4c0e0e584240cf5824d
:1009d000e5853400f583d0e0f05392fe90620ee49a
:1009e000f07901a8181201de051805187f0202012e
:1009f000ae790002091079010209105392fe9000ad
:100a000036120bf27018a3120bf27012900034e041
:100a1000f8a3e0f9e85480fae9fbea4b6002801c95
:100a2000e8906200f090001c6009e06402700c74b1
:100a300003f022e0640370037402f0229000237438
:100a400004f02274f812017a1207c0900034e0fa20
:100a5000a3e0f914600814600d14603080367b0048
:100a60007a0079018032eafb7a007902120aece915
:100a700024020909ea3400fa89828a83e493f8742b
:100a80000193f990003de8f0a3e98019eafb7a00b0
:100a9000790380047b007a00120aeca37b801200a9
:100aa000fea3f0a3e4f090003ae0fca3e0fda3e095
:100ab000feec4d4e900023700474048029e0640421
:100ac0006025900038e0faa3e0fb90003de0f8a339
:100ad000e0f9c3ea98eb99500890003deaf0a3ebe7
:100ae000f09000237401f07f030201ae1207cd9055
:100af000003aeaf0a3ebf0a37480f090003ae0f93a
:100b0000a3e0fa22120bec7010a3120bf2700aa3ee
:100b1000e064017002a3e06003020a3c90003a74b2
:100b20001df0a37400120c45f02274f812017a90a3
:100b3000001ce064026014900036120bf2700ca3eb
:100b4000120bf27006900035e060099000237404e7
:100b5000f0020bdb1207c0900034e060707b007a7b
:100b60000079021207cd8a088b09ae08af09ee4f53
:100b700060d9900034e0f88e828f83a3a3a3a3a34f
:100b8000e493c0e0e8fad0e06a70d290001c7404ec
:100b9000f0e8a3f0750a008e828f83a3a3a3a3e4d9
:100ba00093f8e50ac3985033850a08741e2508f5a2
:100bb0008274003400f583e4f07b007a00120bdecf
:100bc0006007a3a3a3e49370f0050a80ca90001df8
:100bd000f090001c7403f0f91205cd020ae77904c5
:100be0001207cd8a828b83e5824583225392fe9041
:100bf0000034e0f8a3e0f9e8492274f812017a9091
:100c0000001ce064047019900032e06481701112dd
:100c10000bef700c900038e064017002a3e06007f5
:100c20009000237404801a900036e0241ef508a377
:100c3000e03400f50990003ae508f0a3e509120c4c
:100c400045f0020ae7f0a3e4f0a304120c4f22f0ef
:100c5000a3e4f0900023042274f912017a15181508
:100c600018a8181201d690001ce0640470109000bf
:100c700032e064017008900038120bf260079000b7
:100c800023740480671207c07b007a007902120b7c
:100c9000e0600fa3a3a3a3a3e493f890001de06872
:100ca00070e67b007a02120bde60d305929000346e
:100cb000e0f8a3e0f9900036e0faa3e0fb85828437
:100cc000858385a3a3e493fcea6c7001eb600f05b8
:100cd00092a3a3a3e493fce86c7001e970c4741eb2
:100ce0002af58274003bf583e85392fef00209e393
:100cf0005392fe2274fa12017a15181518eafeebc7
:100d0000ffa818eef208eff2aa18ab937901120cc3
:100d1000f080ee02009374fa12017ae5182406f8c6
:100d2000e2fe08e2ffecf88a828b83800be8f0a3f6
:100d3000ee24ff1eef34ffffee4f70f17f01020142
:100d4000aeffffffffffffffffffffffffffffff04
:100d5000ffffffffffffffffffffffffffffffffa3
:100d6000ffffffffffffffffffffffffffffffff93
:100d7000ffffffffffffffffffffffffffffffff83
:100d8000ffffffffffffffffffffffffffffffff73
:100d9000ffffffffffffffffffffffffffffffff63
:100da000ffffffffffffffffffffffffffffffff53
:100db000ffffffffffffffffffffffffffffffff43
:100dc000ffffffffffffffffffffffffffffffff33
:100dd000ffffffffffffffffffffffffffffffff23
:100de000ffffffffffffffffffffffffffffffff13
:100df000ffffffffffffffffffffffffffffffff03
:100e0000fffffffffffffffffffffffffffffffff2
:100e1000ffffffffffffffffffffffffffffffffe2
:100e2000ffffffffffffffffffffffffffffffffd2
:100e3000ffffffffffffffffffffffffffffffffc2
:100e4000ffffffffffffffffffffffffffffffffb2
:100e5000ffffffffffffffffffffffffffffffffa2
:100e6000ffffffffffffffffffffffffffffffff92
:100e7000ffffffffffffffffffffffffffffffff82
:100e8000ffffffffffffffffffffffffffffffff72
:100e9000ffffffffffffffffffffffffffffffff62
:100ea000ffffffffffffffffffffffffffffffff52
:100eb000ffffffffffffffffffffffffffffffff42
:100ec000ffffffffffffffffffffffffffffffff32
:100ed000ffffffffffffffffffffffffffffffff22
:100ee000ffffffffffffffffffffffffffffffff12
:100ef000ffffffffffffffffffffffffffffffff02
:100f000012010002000000205824feff0000010230
:100f1000030109021b0001010480250904000000ef
:100f2000fe01020409210d03e84000010104030948
:100f300004120342006c00750065006700690067d9
:100f400000610016034c006f007700200045006e22
:100f50000065007200670079000a03310032003337
:100f6000003400080344004600550000ffffffff67
:100f7000ffffffffffffffffffffffffffffffff81
:100f8000ffffffffffffffffffffffffffffffff71
:100f9000ffffffffffffffffffffffffffffffff61
:100fa000ffffffffffffffffffffffffffffffff51
:100fb000ffffffffffffffffffffffffffffffff41
:100fc000ffffffffffffffffffffffffffffffff31
:100fd000ffffffffffffffffffffffffffffffff21
:100fe000ffffffffffffffffffffffffffffffff11
:100ff000ffffffffffffffffffffffffffffffff01
:101000000210f7023158ffffffffff023a0affff0d
:10101000ffffff023aa9ffffffffff023b5dffff5b
:10102000ffffff022788ffffffffff0238aaffff35
:10103000ffffff023c42ffffffffff023b01fffffc
:10104000ffffff023a78fffffffffffffffffffff9
:10105000ffffff023131ffffffffffffffffffff39
:10106000ffffffffffffffffffffff0239abffffa7
:10107000ffffff023bd0ffffffffff0239dcffff56
:10108000ffffff02315c7582f175837f74001211de
:1010900012121133b900030210e1e479347802b876
:1010a00000028004f709d8fce490030278857907f0
:1010b0008002f0a3d8fcd9fa900986aa82ab83906b
:1010c000113978bb79028015e493a3ac82ad838a91
:1010d000828b83f0a3aa82ab838c828d83d8e9d9db
:1010e000e775823d7583e474021211127582e3750f
:1010f000837f740012111275d00075813f753180a5
:10110000753202753303759f0075931e5392fe026c
:101110001091c09ff59fe473d09f225392fed0831d
:10112000d082c09fe493c0e0740193c0e074029346
:10113000f59f2279015392fe220300000200006d08
:10114000140102030000ed153efe0e00c3a88ee858
:10115000b19dcf7f5eb98b9f41efb055f401fa008e
:10116000960064004b0032001e001400d6be898e2b
:10117000000106021213151429417671ffc1fbe824
:101180004c90728be7b3518963ab232302841872ae
:10119000aa612f3b51a8e53749fbc9ca0c18532c4b
:1011a000fd45e300400000fffffffffaffffff00e7
:1011b0000080006200000007000000050006000734
:1011c0000000000100010000010001020203000212
:1011d0000000000000020201000240420f0019005e
:1011e0000000093d0000eafffffffb349b5f800029
:1011f00000800010000000000000c34acd4ad74a1a
:10120000e14aeb4af54aff4a094b134b1d4b274b6a
:10121000314b3b4b454b4f4b594b634b6d4b774bd6
:10122000814b8b4b954b9f4ba94bb34bbd4bc74b46
:10123000d14bdb4be54bef4bf94b034c0d4c174cb3
:10124000214c2b4c354c3f4c494c534c5d4c674c1e
:10125000714c7b4c854c8f4c994ca34cad4cb74c8e
:10126000c14ccb4cd54cdf4ce94cf34cfd4c074dfd
:10127000114d1b4d254d2f4d394d434d4d4d574d66
:10128000614d6b4d754d7f4d894d934d9d4da74dd6
:10129000b14dbb4dc54dcf4dd94de34ded4df74d46
:1012a000014e0b4e154e1f4e5f1c651c6b1c711cb6
:1012b000771c7d1cff1b9d1d7f1d511eeb1df11d0d
:1012c0003717f51323196d14fd1da31d1f1d3f1e98
:1012d0003b0601ffffff0000000080ffffffff0053
:1012e000000000010000000400000003000000c036
:1012f00000000012111b11a40212111b29a40212da
:10130000111b61a40212111baea40212111bbaa47c
:101310000212111bdfa40212111b07a50212111bde
:1013200023a50212111b98a50212111bbda50212c2
:10133000111b1aa60212111b98aa0212111b69abeb
:101340000212111b98e50212111bb0e50212111bcb
:10135000ffe50212111b38cd0212111ba0cd0212a3
:10136000111bd7cd0212111bf1cd0212111b1bce86
:101370000212111b35ce0212111b69ce0212111b73
:1013800095ce0212111be2ce0212111b7bcf02126c
:10139000111b9fcf0212111b2fd00212111b81d0e3
:1013a0000212111b9bd00212111bb0d00212111b92
:1013b000e2d00212111b19d10212111bbad1021272
:1013c000111b8bbd0212111bbcbd0212111beabd09
:1013d0000212111bf3bd0212111b4fbe0212111b90
:1013e0000fbf0212111b89bf0212111be6bf0212ae
:1013f000111b09c00212111b73c00212111b78c10c
:101400000212111b83c10212111ba8c10212111b6f
:101410000bc20212111b7ac20212111bacc20212c1
:10142000111b3ce70212111b5ce70212111b85e73e
:101430000212111b15e90212111b4ce90212111bb9
:101440007ee80212111bbeff0112111bd5ff011213
:10145000111bbbe60212111be8e60212111b7a9a5d
:101460000212111bbc9a0212111bd39a0212111bf9
:10147000f39a0212111b3c9b0212111b959b021244
:10148000111be99c0212111b119e0212111bb39e2b
:101490000212111bd79e0212111b199f0212111b5f
:1014a000b39f0212111bf69f0212111b4da00212d4
:1014b000111b60a00212111b50a10212111b74a279
:1014c0000212111be8a20212111b00800112111b53
:1014d000a7810112111b24820112111b87830112a3
:1014e000111bfc830112111b36840112111b0b8589
:1014f0000112111b92850112111b86860112111b0c
:1015000088870112111b6f880112111bbc890112ff
:10151000111b368a0112111b9f8a0112111b138b9a
:101520000112111bc48b0112111b1c8c0112111b07
:10153000c08c0112111b1e8d0112111bb08d0112e6
:10154000111b078e0112111ba28e0112111b4c8f51
:101550000112111b01900112111bbc910112111bf0
:101560002e940112111b7c940112111b1c95011267
:10157000111b6c950112111bba950112111b5a9780
:101580000112111bf4970112111b70980112111b0b
:10159000cc990112111b379a0112111b2c9b0112bd
:1015a000111b1e9c0112111b5d9d0112111bae9e91
:1015b0000112111b88a00112111b51a30112111b52
:1015c000dfa30112111b6da40112111b4ca5011206
:1015d000111bc1a50112111b3baa0112111bb8acb2
:1015e0000112111b8fad0112111bc4af0112111b8f
:1015f000f3b00112111b32b20112111b49b20112d8
:10160000111bc0d10212111bfed10212111b66d296
:101610000212111b92d20212111b69d30212111b6a
:1016200040d40212111babfe0112111beffe01127e
:10163000111b67ff0112111b23b90112111b41b9c4
:101640000112111b5eb90112111b7bb90112111b92
:10165000bcb90112111b52ba0112111b96ba011228
:10166000111bf8ba0112111b3cbb0112111b77bbf5
:101670000112111baabb0112111b0bbc0112111b81
:1016800071bc0112111bfdbc0112111b0bbd01121b
:10169000111b6dbe0112111ba6c00112111b03c14b
:1016a0000112111b35c10112111b5cc20112111b69
:1016b0008cc30112111baac30112111bdbc301123f
:1016c000111b05c40112111bbac70112111beac775
:1016d0000112111b32c80112111bf6cc0112111b91
:1016e00055cd0112111b93cd0112111b1cce0112fd
:1016f000111bfcce0112111b9ad10112111b38d300
:101700000112111badd30112111bcbd50112111bfc
:1017100035d60112111b73d60112111bc3d601124b
:10172000111b10d70112111ba5d70112111bf5d7e0
:101730000112111b50d80112111b5ad80112111b92
:1017400099d90112111b0bda0112111bd3da011204
:10175000111b67db0112111b65dd0112111b87ddf7
:101760000112111b7cdf0112111bb4e00112111bcd
:101770003de10112111b88e10112111bede1011283
:10178000111bc8e30112111bd9e30112111be3e382
:101790000112111bc4e50112111b34e60112111bc9
:1017a0006ae60112111bcee60112111b6ae7011253
:1017b000111be7e70112111b48e80112111b72e827
:1017c0000112111ba9e80112111bdee80112111b05
:1017d000fce80112111b64e90112111b72e90112ec
:1017e000111bb1e90112111b14ea0112111b1ce2b9
:1017f0000212111ba3e20212111bc7e20212111bfb
:1018000012e30212111b4fe30212111b17e802121e
:10181000111becea0112111b18eb0112111b64ebf6
:101820000112111bbeeb0112111b3aec0112111b2c
:1018300087ee0112111b7cef0112111be3f1011263
:10184000111bdaf20112111bbaf30112111b11f56f
:101850000112111b8cf50112111bcdf60112111b87
:10186000e0d60212111b11d70212111ba3d70212cc
:10187000111b95d80212111bf4520012111b1153a7
:101880000012111b3c530012111baf530012111b0d
:10189000db530012111b0f540012111b765400125f
:1018a000111ba0540012111b07550012111b655586
:1018b0000012111b36560012111ba8560012111be4
:1018c0008f580012111b21590012111bfd5b0012d1
:1018d000111be55f0012111b28600012111b7b60b9
:1018e0000012111b12610012111bd0620012111b99
:1018f00074630012111bb9630012111b05640012fe
:10190000111b6d640012111b97640012111bea6415
:101910000012111b1e650012111b7b660012111ba9
:10192000bf670012111bd0670012111b0b69001258
:10193000111b21690012111b67690012111b2b6a10
:101940000012111b406a0012111b726a0012111b57
:10195000d36b0012111b916c0012111bc56c00128d
:10196000111b0c6d0012111bab6d0012111b026ece
:101970000012111bfe6e0012111b6c6f0012111b66
:10198000b06f0012111b88700012111baa72001296
:10199000111bda720012111b79db0212111b86db9c
:1019a0000212111ba9db0212111becdc0212111b2b
:1019b000f9dc0212111b28dd0212111b09c30212ed
:1019c000111b79c30212111ba6c30212111bf0c313
:1019d0000212111bbbc40212111b5ec60212111ba4
:1019e000b8c60212111bc6c60212111bd1c70212c1
:1019f000111b3ac80212111b01e50212111b2be543
:101a00000212111b5be50212111b37d90212111bc6
:101a1000c2d90212111bf8d90212111b69da021283
:101a2000111b0ddb0212111b20db0212111b86d4cd
:101a30000212111b9cd40212111b00800212111bf6
:101a400015800212111b04810212111b1c8102124b
:101a5000111b2b810212111b41810212111b4d819e
:101a60000212111b8d810212111bb8810212111b6f
:101a700013820212111b41820212111ba582021253
:101a8000111bc1820212111bfd820212111b158350
:101a90000212111ba8830212111b1c840212111bbb
:101aa00064840212111b9d840212111b1d850212f7
:101ab000111b58850212111b81850212111be08532
:101ac0000212111b28860212111b4f860212111bd3
:101ad0009c860212111bf7860212111b018702124b
:101ae000111b57870212111ba8870212111be087d6
:101af0000212111b18880212111b4f880212111baf
:101b000077880212111b80880212111b9d88021215
:101b1000111bc8880212111bf1880212111b318996
:101b20000212111b5e890212111baa890212111bdb
:101b3000e3890212111b6f8a0212111b1d8b021204
:101b4000111b6c8b0212111bcc8b0212111bd78b39
:101b50000212111bfa8b0212111b088c0212111bac
:101b6000a58c0212111b1f8d0212111b6d8d02120a
:101b7000111b858d0212111ba38d0212111bc58d25
:101b80000212111be68d0212111b028e0212111b92
:101b9000788e0212111bbb8e0212111b368f02129d
:101ba000111b4f8f0212111bd38f0212111b0290b7
:101bb0000212111b11900212111b59900212111bdb
:101bc00068900212111b80900212111ba990021240
:101bd000111bd9900212111b0a910212111b1d91a7
:101be0000212111b55910212111bbb910212111b03
:101bf000e9910212111b17920212111b2392021279
:101c0000111b29920212111bdd930212111b669403
:101c10000212111bcf940212111b05950212111b07
:101c20004a950212111b8e950212111bd2950212b7
:101c3000111b51960212111bcc960212111b3897e0
:101c40000212111bb8970212111b00980212111bed
:101c5000b2980212111b8a990212111b2fdd021277
:101c6000111b7bdd0212111b91dd0212111ba7dd7e
:101c70000212111bbddd0212111bdedd0212111b4f
:101c8000f4dd0212111b0ade0212111bc7b102128f
:101c9000111be6b10212111b2db20212111b6eb202
:101ca0000212111b8cb20212111b08b30212111b7b
:101cb00075b30212111badb30212111b0bb4021249
:101cc000111b26b40212111b69b40212111bc7b4f6
:101cd0000212111bdeb40212111b00b50212111bfd
:101ce0002bb50212111b4ab50212111b76b5021256
:101cf000111bafb50212111bd6b50212111b09b68a
:101d00000212111b18b60212111b21b60212111b6e
:101d100097b60212111bbfb70212111b79c802122b
:101d2000111b46c90212111b29ca0212111bbbca80
:101d30000212111b1ecb0212111b6acb0212111bc5
:101d40008bcb0212111baccb0212111bc4cb0212a3
:101d5000111bdccb0212111b2ccc0212111b83cce9
:101d60000212111bd7cc0212111ba1e30212111b8c
:101d7000cee30212111b39730012111b967d001263
:101d8000111b497f0012111b80e00212111beee0b3
:101d90000212111b12e10212111b66e10212111b49
:101da000bbe10212111bf9e10212111b12e2021235
:101db000111be9f60112111b06f70112111b21f884
:101dc0000112111b82f80112111b2df90112111bb6
:101dd000acfa0112111b2ffb0112111b76fb011231
:101de000111bddfb0112111b38fc0112111b91fcb0
:101df0000112111b07fd0112111b7ffd0112111ba6
:101e00001efe0112111b95ab0212111bedad021249
:101e1000111b25ae0212111b41ae0212111b88ae1e
:101e20000212111ba2ae0212111bceae0212111b26
:101e3000edae0212111b15af0212111b5caf0212a4
:101e4000111b79af0212111b3eb00212111b72b0ae
:101e50000212111b83b00212111bd9de0212111bd8
:101e600040df0212111ba0df0212111ba2df0212bf
:101e7000111bb8df0212111b05e00212111b2ae62a
:101e80000212111b48e60212111bdeb70212111bcf
:101e9000b7b80212111b9ab90212111ba2b9021291
:101ea000111baab90212111b03ba0212111ba4ba08
:101eb0000212111ba3bb0212111bd6bb0212111b73
:101ec0009dbc0212111bfbbc0212111b86100012da
:101ed000111bace70212111bcde80212111b58e9cd
:101ee00002e066701008a3e066700a08a3e066705e
:101ef0000408a3e06622c3e7960809e7960809e705
:101f0000960809e796a2d265d03322c3e09608a3cb
:101f1000e09608a3e09608a3e096a2d265d033220b
:101f2000c021c3e096f52108a3e096422108a3e072
:101f300096422108a3e0964221a2d265d033e52142
:101f40007001d3d02122c021c3e096f52108a3e07f
:101f500096422108a3e096422108a3e0964521700d
:101f600001d3d02122bb0102e722c0925392fec0ce
:101f700082c08389828a83bb0003e08002e493d01d
:101f800083d082d09222bb0015c0925392fec082b1
:101f9000c0838a838982f0d083d082d09222bb0111
:101fa00001f722080808eac0e0ebc0e086f0e7a4e9
:101fb000fa180986f0e7a42afa180986f0e7a42a95
:101fc000fa180986f0e7a42afa1986f0e7a4fbe5d7
:101fd000f02afa190886f0e7a42bfbe5f03afa1983
:101fe0000886f0e7a42bfbe5f03afa18180986f00a
:101ff000e7a4c5f02bfbe43afa1908e7c5f0c6a43c
:1020000026f6e5f03bfbe43afa1886f0e7a4f6e59d
:10201000f00826f6e43b08f6e43a08f6d0e0fbd0f8
:10202000e0fa22e4cfc0e0e4cec0e0e4cdc0e0e4da
:10203000ccc0e075f020c3e633f608e633f608e6d8
:1020400033f608e633f6181818ec33fced33fdeee2
:1020500033feef33ffc3ec9709ed9709ee9709efd5
:1020600097191919400fffec97fc09ed97fd09ee40
:1020700097fe191906d5f0beecf709edf709eef752
:1020800009eff7191919d0e0fcd0e0fdd0e0fed03f
:10209000e0ff221220fb1818181220231220ea1940
:1020a0001919221220ea191919080808e61818182f
:1020b00020e7e01220231220fb1818182209090932
:1020c000e719191920e7dc080808e618181820e7ae
:1020d000030220231220fb1818181220231220fbc1
:1020e0001818181220ea19191922e4c397f709e4fd
:1020f00097f709e497f709e497f722e4c396f608ff
:10210000e496f608e496f608e496f62260170808c6
:1021100008c6a2e713c618c613c618c613c618c643
:1021200013c6d5e0e9226016080808c6c313c6180e
:10213000c613c618c613c618c613c6d5e0ea227061
:1021400009080808226016181818c6c333c608c63e
:1021500033c608c633c608c633c6d5e0ea22e6272a
:10216000f60809e637f60809e637f60809e637f60d
:1021700022e026f608a3e036f608a3e036f608a328
:10218000e036f622e026f008a3e036f008a3e036b9
:10219000f008a3e036f022c3e697f60809e697f6c2
:1021a0000809e697f60809e697f622c3e0c696f610
:1021b00008a3e0c696f608a3e0c696f608a3e0c614
:1021c00096f622c3e096f008a3e096f008a3e09606
:1021d000f008a3e096f022e056f608a3e056f608d1
:1021e000a3e056f608a3e056f622e056f008a3e076
:1021f00056f008a3e056f008a3e056f022e647f6b2
:102200000809e647f60809e647f60809e647f62210
:10221000e046f008a3e046f008a3e046f008a3e09b
:1022200046f022e066f008a3e066f008a3e066f05e
:1022300008a3e066f022e0f608a3e0f608a3e0f6c3
:1022400008a3e0f622e493f608740193f6087402fa
:1022500093f608740393f622e6f008a3e6f008a3c9
:10226000e6f008a3e6f022e0faa3e0fba3e0fca37b
:10227000e0fd22eaf0a3ebf0a3ecf0a3edf022ca1c
:10228000c0e0e6f0a308dafad0e0fa22cac0e0e043
:10229000a30592f0a30592daf6d0e0ca22cac0e004
:1022a000e493a30592f0a30592daf5d0e0ca225395
:1022b00092fefae9fb7921e7f0a309dafae8f0a344
:1022c000ebf9f0a3ecf0a3edf0a3eef0a3eff0a395
:1022d000e520f0a3e5f0f0a3e592f0a3e584f0a3f8
:1022e000e585f0a3e581f0a3e531f0a3e532f0a3a5
:1022f000e533f0a3d0e0fad0e0f0a3caf0eac0e002
:10230000e0c0e07a007b00225392fecac0e0ebc03e
:10231000e07921e0f7a309dafae0f8a3e0f9a3e015
:10232000fca3e0fda3e0fea3e0ffa3e0f520a3e013
:10233000f5f0a3e0c0e0a3e0f584a3e0f585a3d029
:10234000e0f592d0e0fbd0e0fae0f581a3e0f531d2
:10235000a3e0f532a3e0f533a3d0e0d0e0e0c0e0a5
:10236000a3e0c0e0ea4b70027a0122c3e498f8e4eb
:1023700099f91223ac8026c3e49afae49bfbe92086
:10238000e7e91223ace498f8e499f922c3e498f859
:10239000e499f91223ace498f8e499f9c3e49afac1
:1023a000e49bfb22eb20e7cfe920e7e0b90010bb7c
:1023b0000008e88af084f8aaf022e4fbc8fa22ebcd
:1023c00070227b10c833c8c933c9335007c39ac3be
:1023d000dbf280069a50012adbeac833f4c8c9331d
:1023e000f4c9fa2275f008e4c833c8c933c933c93f
:1023f0009ac99b5004c92ac93bd5f0ecfbc833f4f9
:10240000c8e4c9fa22600d08c6a2e713c618c613ad
:10241000c6d5e0f322600c08c6c313c618c613c69f
:10242000d5e0f422700422600d18c6c333c608c676
:1024300033c6d5e0f41822253210af08f532400239
:1024400015338008f53240021533d2af22c0d025b3
:102450003210af08f532500205338008f5325002d1
:102460000533d2afd0d0222532f58210af08f53235
:10247000400215338008f53240021533d2af853360
:102480008322c5822532c582c583353310af07f557
:10249000338582328007f533858232d2afc58322fd
:1024a0002532f582e43533f583222532f584e4358f
:1024b00033f58522e473c0e0e8c0e0e58124fcf850
:1024c000e6a2e7d0e0f8d0e0225392fe2532c582a2
:1024d000c0e0e53334ffc583c0e0e532c395822414
:1024e000f810af0885833385823280088583338571
:1024f0008232d2afcef0a3e520f0a37821e608f037
:10250000a3defaeff0a3e58124faf8e608f0a3e6eb
:1025100008f0a3e608f0a30808e608f0a3e608f030
:10252000a315811581d0e0fed0e0f8158115811545
:1025300081e8c0e0eec0e0225392fe2532c582c0a1
:10254000e0e53334ffc583c0e0e532c3958224f96a
:1025500010af088583338582328008858333858276
:1025600032d2afcef0a3e520f0a37821e608f0a3a5
:10257000defaeff0a3e58124fbf8e608f0a3e60815
:10258000f0a30808e608f0a3e608f0a3158115817a
:10259000d0e0fed0e0f815811581e8c0e0eec0e0a3
:1025a000225392fe853383853282e0a3fee0a3f5b9
:1025b000207821e0a3f608dffae0a3ffe0a3c0e063
:1025c000e0a3c0e0e0a3c0e0e0a3c0e0e0a3c0e07f
:1025d00010af0885823285833380088582328583f7
:1025e00033d2afd083d0825392fe0211185392fea1
:1025f000853383853282e0a3fee0a3f5207821e0d5
:10260000a3f608dffae0a3ffe0a3c0e0e0a3c0e088
:10261000e0a3c0e0e0a3c0e010af0885823285836c
:10262000338008858232858333d2afd083d0825302
:1026300092fe22c0925392fec0d02532c582c0e0e5
:10264000e53334ffc583c0e0e532c3958224f21040
:10265000af08858333858232800885833385823253
:10266000d2afc8f0a3e9f0a3eaf0a3ebf0a379217d
:10267000e709f0a3d8faecf0a3edf0a3eef0a3ef96
:10268000f0a3d0e0f0a3d0e0f0a3d0e0f0a3e520e9
:10269000f0a3e5f0f0a3d0e0f0225392fe8533835f
:1026a000853282e0c0e0a3e0f9a3e0faa3e0fba357
:1026b0007821e0f608a3dffae0fca3e0fda3e0fe4a
:1026c000a3e0ffa3e0c0e0a3e0c0e0a3e0f5d0a357
:1026d000e0f520a3e0a3f5f0e0a3c0e010af08858b
:1026e00083338582328008858333858232d2afd0ae
:1026f000e0d082d083f592d0e0f8d0e032e584f0eb
:10270000a3e585f022e0a3f584e0f585227404803a
:1027100006740280027401c0e0f404122467d0e061
:1027200012227f227404800a7403800674028002dd
:102730007401c0e0f404122467d0e012228c22d08d
:1027400083d082e9c0e0e493a3c386f0c5f095f09e
:10275000f908e493a386f0c5f095f0700be493a319
:10276000c3994005e9048002a3e475f002a4258220
:10277000f582e5f03583f583d0e0f9e493a3c0e07a
:10278000e493c0e022ffffffc0e074f1122633752e
:102790009800e5a8f8c2af9004c6e0d2e1f0753425
:1027a00000e8a2e792af12132f7f0102269ac0829f
:1027b000c0835392fe906059e0f8900497e028f0af
:1027c000906058e0f8900498e028f090605a122742
:1027d000e790605e1227e790605ce0f890049ae072
:1027e00028f0d083d08222e0f8900499e028f022eb
:1027f000c082c0835392fe900497e4f0a3f0a3f04c
:10280000a380de74f712253879001219959003e938
:10281000122fefeac398f8eb99f9e82404fee934a3
:1028200000ff9003f4e0fca3e0fdc3ee9cef9d40ad
:102830002e9003f2e0fca3e0fd9003f6e02af8a35b
:10284000e03bf9e8c39cf8e99df99003e9122fda1f
:10285000a3ecf0a3edf09003f4ecf0a3ed8028904e
:1028600003e91230009003f4c3e098f0a3e099f07c
:102870009003f4122fef9003eb122fda9003f0e0a5
:1028800070047402800114f07ae77b031237490266
:1028900030ba74f7122538e9600924fe601c146010
:1028a0001980309003eee0a2e350099003f1e0605c
:1028b0002214801e54fb440880189003eee0a2e22c
:1028c000500c9003f1e064086009e004800454f7c0
:1028d0004404f09003efe070089003ed74fff08083
:1028e0004890600a122cc9703d90618fe0c0e09062
:1028f00003f1e0f87408c398f8d0e0b8000280044f
:10290000c313d8fcf52174ff6521700990600ae4b7
:10291000f0a3048010e5212401f8e43400f990606c
:102920000ae8f0a3e9f01228030230ba74f712257e
:102930003874fe1224671226fde924fc600624fe8a
:102940006029800d9004b0e06401705f121701806f
:102950005a90040ce064017012900406e4f07b09c4
:10296000123099fa79001219dd8040900406e07067
:102970000890040474fff0803279001219958a21be
:102980008b22a821a922900408e028faa3e039fbb1
:1029900090618fe0541ff8ea28f8eb3400f99004b6
:1029a00000122fda7afe7b031237490230ac74f73b
:1029b00012253874fe1224671226fd900455122f3a
:1029c000efe82410fce93400fd90605ce060088cc6
:1029d000828d83e0d2e1f0e8242efae93400fbe8ae
:1029e0002430f584e93400f58590605ae070069053
:1029f000605ee060318c828d83e0d2e1f0e405928c
:102a0000f0a3f0e82420f582e9122ca5122e4c74d4
:102a10000378211224248a828b83e521f0a3e52206
:102a2000f079000230ace8241cf582e9122caefeed
:102a3000a3e0ff858482858583e02ef0a3e03ff04c
:102a40008a828b830592e0faa3e0fbc30592e09aa9
:102a5000a3e09b50cc88828983a3a3a3a3a3a3a3b1
:102a60008582848583858c828d83e0a2e150047405
:102a7000088002743e0592f07b0288828983059269
:102a8000a3a3a3a3a3a3122cbb809874f51225388b
:102a900074fe1224671226fd900455e0fea3e0ffa9
:102aa0008e848f850592a3a3a3a3a3a3a3a3e0fc75
:102ab0007003022c79ee242cf582ef122ca5122f34
:102ac000ef8e828f83a3a3a3a3a3a38582218583f3
:102ad000228e828f83a3a3a3a3a3a3a3aa82ab83e3
:102ae000ee2432122cab687003a3e069701b7402f1
:102af0006c7003022c1a74016c607374096c60347e
:102b00008a828b837422f0801dec14606114700340
:102b1000022c1a24fa602a14601a14600914700333
:102b2000022c59022c797b02852182852283122c6a
:102b3000bb022c7b906008e0a2e65003022c798057
:102b4000e5ee2437122c9e801388828983a3a3a3e9
:102b5000e064037003022c7988828983122cc97087
:102b6000e88a828b83e0641370bc74168098ee242c
:102b700053122cb2ee244afcef3400fdea24fff598
:102b800023eb34fff524e523687003e52469704cda
:102b9000ee244bf582ef122ccf8e828f83a3a312eb
:102ba000300090049fe4f0a3f0a3f0a3f09004851c
:102bb000e0a2e04003022c798c828d83e0f875f06e
:102bc000e2a4c8aaf075f004a42af9e824c0f8e940
:102bd0003437f9906064122fda022c79ea687002b7
:102be000eb696003022c79752309752400782312a0
:102bf0002711ee2419122c9112244d900485e0a285
:102c0000e05007eefaeffb12164de40592f07b0858
:102c10008521828522830592805ce8240108e934bd
:102c200000f9ee245a122cab687003a3e0697049d6
:102c30007521057522007821122711ee2455fcef2d
:102c40003400fdee2422122c9112244deefaeffbfb
:102c50001216fbe40592f08020eefaeffb1213351a
:102c6000e40592f00592900485e0a2e0500b7b070a
:102c7000852182852283122cc17900853282853399
:102c8000835392fe122705740212244d7f040225fd
:102c9000edfaef3400fb121ed5740222241cf582db
:102ca000ef12356922123569059222f582ef12354d
:102cb000d422123566e0faa3e0fb22122cc179017e
:102cc00022e0fa79001219dd22122ff3e8492212cc
:102cd0003569122cd622122ff3e8c333f8e933f901
:102ce0002274f812253874fe1224671226fd90040f
:102cf00055e0f584a3e0f585122a8be97048122986
:102d0000aee97042e584242cf582e585122cae24d0
:102d100001f0a3e03400f0906008e0c0e0e5842416
:102d200034f582e585122ca1d0e0f0e584241cf571
:102d300082e585122ccf0592a3a3e028f0a3e03909
:102d4000f00592122fe085328285338312270574b5
:102d50000212244d7f010225ed74f712253874fe0e
:102d60001224671226fd9004a4ea241cf584eb12b9
:102d70002fd2f8a3e0f9e8c333f8e933122e3aacc6
:102d8000f08522f0a42cfc8521f0e9a42cf9059211
:102d9000e028f8a3e039f98a828b83a3a385828493
:102da000858385e80592f0a3e9f090049fe0faa3fb
:102db000e0fb900487e0f521a3e0f522ea8521f00d
:102dc000a4caacf08522f0a42cfc8521f0eba42c45
:102dd000fbe8c39af8e99bf9e824ff18e934fff906
:102de000858284858385e8f0a3e9f09004a1e0f86a
:102df000a3e0122e3a122e2a7a207b4e1223ac88a0
:102e00002189220592e09521f0a3e09522f090041b
:102e1000a6122fef900487122e4ce88521f0a4c84b
:102e2000122e2ae8122fc30230abaaf08522f0a49a
:102e30002afa8521f0e9a42af922f9900487e0f51d
:102e400021a3e0f522e88521f0a4c822e0f521a322
:102e5000e0f5222274f712253874fe122467122638
:102e6000fd900455e0fea3e0ffee2410f584ef1280
:102e70002fd2a2e35008c2e3f00592022fbd8e824a
:102e80008f830592a3a3858221858322906062e0cf
:102e900060107910121995852182852283eaf0a3aa
:102ea000ebf0122a8be96003022fc01229aee96011
:102eb00003022fc0906008e0c0e0ee2434122c9e84
:102ec000d0e0f09061d5e0f89061d7e068059260bd
:102ed00005e0d2e28003e0c2e2f005929004a1e0b6
:102ee00024c0faa3e03437fb906062e0600e123930
:102ef0002f9004a612354f122fc380121239199049
:102f000004a6122cd2906064e028f0a3e039f0ee21
:102f10002429122cab9004a3f0ee241e122c9e1236
:102f20002cc960498e828f83a3a3a3a3a3a3a3a3c9
:102f3000e0703aee2430122cb2ea4b7030ee2437b7
:102f4000122cb2ea4b7026e8240108e93400f9900b
:102f50000487122fda852182852283122fef9004b5
:102f6000a4122fdaeefaeffb122d59804490048759
:102f70007401f0a3e4f0ee122c9c122fefe8c3339f
:102f8000f8e933122ff98521828522830592900476
:102f90009fe0f8a3e0f90592e0c398f8a3e099f95f
:102fa000e824ff18e934fff9852182852283122f56
:102fb000da122fecee242c122c9e123000122fe08d
:102fc0000230ac2440f8e93438f9906064e8f0a3aa
:102fd000e9223400f5850592e022e8f0a3e9f02229
:102fe000900455e0faa3e0fb1237492290048712bf
:102ff0002ff322e0f8a3e0f922f9852182852283cc
:10300000e028f0a3e039f02274f712253874fe129c
:1030100024671226fd803dc2e5f0123087e0f808f3
:10302000089004aee028f0123099c0e0059212300a
:1030300087d0e0f09004aee004f0a3e004f0a3e059
:1030400004f09004b2e0700c7401f07b007a007917
:10305000001219dd9004afe0f890605ae068602536
:103060009004aee004547ff52174802521f874604b
:103070003400f9123099a2e7888289830592e050e2
:1030800096d2e5809480259004aee0547ff8748059
:1030900028f582746012356922900455e02406f503
:1030a00084a3e03400f5850592e022f08532828524
:1030b0003383122705740212244d7f020225ed741a
:1030c000f512253874fe1224671226fd8921059217
:1030d000900455123512858284858385a3a3a3a30a
:1030e000a3a3e0a2e740479004b1e0f8906054e069
:1030f000c398f5229004b1e02522f0ae82af838020
:1031000012ee2437faef3400fb121623ea4b600369
:1031100012180385222374ff2523f5220470e2e5ab
:1031200021a2e640097900eefaeffb121779022c92
:103130007bc0e0c0d075d008c092c082c083c0f010
:103140008535c675a70079501219b3d0f0d083d059
:1031500082d092d0d0d0e03275bf0032c0e0c0d073
:1031600075d008c092c082c084c083c085c0f0857d
:1031700035c6e591fe759b00f4f591eea2e0500393
:10318000123008eea2e55004f91230bfeea2e7506b
:1031900020e5a8f8c2af5392fe9004c6e0d2e01238
:1031a0003897e594a2e24009759403e594a2e250b1
:1031b000faeea2e640030232465392fe906061e0ce
:1031c000f99004afe4f09004b1f0900455122cb5de
:1031d0008a828b83a3a3a3a3a3a3e0240460101477
:1031e000600814700f122892805412292c804f12fc
:1031f0001647804a906060e064806032e0c0e0ea98
:103200002411f582eb122ca1d0e0f0906060e0c0b8
:10321000e0900455e0242af584a3e0122fd2fa743a
:10322000602af5827404122ca1d0e00592f090047b
:1032300085e0a2e05005122e548003122ce11227e3
:10324000ae1216358004a2e75003123788d0f0d0b2
:1032500085d083d08402314f74f712253874fe1262
:1032600024671226fd900455e0fca3e0fd122fec2c
:10327000ec2427f582ed122ca1ec2429f584ed3401
:1032800000f5857401687001e970170592e0f80592
:1032900092e028fac39425400474db2afaea0592e6
:1032a0008025e0f521e88521f0a4f8aaf08521f039
:1032b000e9a42af90592e0fae82af8e93400f97a53
:1032c000257b001223aceaf074075af87401b800a9
:1032d000028004c333d8fcc0e0ea131313541ff870
:1032e000ec28f8ed3400f9e82422f582e9122ca14b
:1032f000d0e0f80592e058702a8005e0cac39afa37
:10330000ec24e3f582ed122caef8eac39850ec8a77
:1033100021ec2521f8ed3400f9e824bef582e9120c
:103320002caefaec242af582ed122ca1ea0230ab85
:1033300074f612253874fe1224671226fd900407d5
:10334000e0906001f09009b9122267906195122215
:103350007312178590040ce0fe74016e90040570e2
:1033600040e05402f97a0d7b0412166b900405e0dc
:10337000a2e050097a917b0475214080077a8b7b0b
:1033800004752100a2e150047e8080027e00752336
:103390000678231227157c0d7d04e5214e4401801b
:1033a00064e0a2e050087a917b04784080067a8b32
:1033b0007b04780005929004321227307c137d0440
:1033c0008e2174bd2521f5827409122ca5e048f9df
:1033d000121671740112244dee600574026e702e87
:1033e000900405e0a2e050087a917b0478408006c2
:1033f0007a8b7b04780005929004521227307c333c
:103400007d04e84404f9121671740112244d9004ed
:1034100005e0a2e0e433f91216657591009061822f
:1034200074c0f0853282853383122705740212241a
:103430004d7f030225edc082c0835392fe9003f0be
:10344000e004f064037002e4f0e02425906000f0f2
:103450009009b91222679061951222739003eee0f1
:103460005420f91216651217859003eee0a2e15080
:1034700004d2f08002c2f0a2f0e43390600cf0902d
:1034800003eee0a2e1503575d90da2e55004784075
:1034900080027800e84403f5d9e0a2e550067a916d
:1034a0007b0480047a8b7b04790612163b740675c4
:1034b000d9001470fae5e170fc75e1957591009002
:1034c000618274c10227e174f812253874fe122457
:1034d000671226fd123554122267906195122273ed
:1034e000123587f584ef3400f585858482858583e0
:1034f00012356e2410122caba2e2501112351005b9
:1035000092a3a3e02402f89061d5e028f0022d46b2
:103510000592e0f582a3e0f5832274f812253812b3
:103520003554122267906195122273123587122c3e
:103530009e12356e122c9c12354f24fcf8e934ff94
:10354000f98e828f83a3a3a3a3122fda022d541224
:103550002cd6e822900455e0fea3e0ff121785ee7a
:10356000241212356622f582ef3400f58322122fe1
:10357000f3ee2435123566e8f0a3e9f07900eefaaf
:10358000effb121779ee22ee24341235d190600849
:10359000f0ee24161235d1906005f0ee24171235a6
:1035a000d1906006f0ee24181235d1906007f090ab
:1035b00060607480f0123258ee242a1235d1906087
:1035c00000f07591009004bbe0906182f0ee24372a
:1035d00022f582ef3400f583e02274f4122538746a
:1035e000fe1224671226fdeafcebfd7e007f007ac6
:1035f0005c7b048c828d83a3a385822185832280ba
:103600000ce5232404f8e5243400122ff98a828b78
:1036100083e0f584a3e0f585e584458570030237f2
:1036200021a884a98588828983a3a38521848522f2
:10363000850592e0f523a3e0f5240592e0c39523e8
:10364000f523a3e09524f524c3e5239404e524940d
:1036500000a2d265d03340398c828d83122fda8c50
:10366000828d83a3a3a3a3858284858385122feff4
:10367000c3e52398e52499500d858482858583e5eb
:1036800023f0a3e524f08a828b83ecf0a3ed0237cc
:1036900031c3e52394fde52494ffa2d265d03340e5
:1036a000478c828d83a3a3a3a3a3a3e0a2e7500327
:1036b00002360188828983a3a3a3a3a3a3e0a2e780
:1036c000502688828983e0f523a3e0f5248a828b43
:1036d00083e523f0a3e524f088828983eef0a3ef4d
:1036e000f0e8fee9ff02360d88828983a3a3a3a335
:1036f000858284858385c3e49523fae49524fbe0e1
:10370000f523a3e0f524c3ea9523eb9524500b851c
:103710008482858583eaf0a3ebf0e8fae9fb0236c0
:103720000d8a828b83ecf0a3edf08c828d83e4f024
:10373000a3f0eefaeffb85328285338312270574fe
:103740000212244d7f050225ed74f712253874fe10
:103750001224671226fdea4b602ba2afe433fec2af
:10376000af1235da8a828b838010aa82ab8385827e
:10377000848583851235101235dae582458370ea37
:10378000eea2e092af0230ac74f512253874fe124e
:1037900024671226fd79001219958a238b24900440
:1037a0005c122fef900455122fdae849701412388a
:1037b00088e594a2e2500375940079771219b30258
:1037c000387c88828983122cb590045ceaf0a3ebe4
:1037d000f088828983a3a3122e4c88828983a3a3b5
:1037e000a3a3e02521f8a3e03522f9e824fdfee9b2
:1037f00034ffffaa21ab2279301219a7eefaeffbb2
:1038000079401219a779541219b31230992404601f
:1038100012146005146007800f123330801c1234bc
:1038200036801712178b80120592900485e0a2e073
:1038300050051234c7800312351ae521c39523f8c9
:10384000e5229524f9c3e89401e99400a2d265d059
:1038500033500c12179de5e170fc75e121801d903d
:103860000369e0a2e04012aa21ab221219a1900440
:103870009b122273123888800312179d12186f85cd
:103880003282853383022c84e5a8f8c2af9004c647
:10389000e0c2e012389722f0753400e8a2e792af58
:1038a00022000000853487c2af22c0e0c0d075d0ae
:1038b00010c092c082c083c0f074fc1224375392af
:1038c000fe9004c7e0601712165f900369e0541180
:1038d000700375c6879004c7e4f0c2c78026c2c7cc
:1038e000853282853383aa82ab83121797e96401fc
:1038f00070129004c77401f08532828533831222de
:1039000067121863753400740412244dd0f0d0830c
:10391000d082d092d0d0d0e03275c3007420c39a48
:10392000fa744e9bfbeaf5a2ebf5a35392fe22c07c
:103930002175c301e5a2f521e5a375c300f9e521d1
:103940002420f8e9344ef9e8c39af8e99bf9e8f540
:10395000a2e9f5a3d0215392fe22c082c08374fc59
:10396000122437e5a8f8c2afe59585328285338306
:103970005392fef0e596c0e074011224a0d0e0f06e
:10398000e597c0e074021224a0d0e0f0e8a2e7922c
:10399000af74031224a0e4f08532828533831222af
:1039a00067740412244dd083d08222c0e074f112d7
:1039b000263312395a90060c122273e58955ab90c2
:1039c0000610f0e580900613f07b007a007906126d
:1039d00019dd758900c2c57f0102269ac0e074f125
:1039e00012263312395a90060c122273e58a558d2d
:1039f000900611f0e590900614f07b017a007906ac
:103a00001219dd758a00c2eb80cdc0e074f0122679
:103a1000339061a9e4f090061ae0640f7012e5c7d4
:103a2000f890036ae0f5c790ff1ce0f4f5ae88c794
:103a3000e5bbf9e5bafae9fb90061ae0c333f8e40e
:103a400033f9741b28f582740639f583eaf0a3eb89
:103a5000f090061ae02410fb7a0079061219dde5d1
:103a6000a8f8c2af9004c6e0c2e2f0753400e8a244
:103a7000e792af7f0202269ac0e0c0d075d008c09e
:103a800092c082c083c0f0e5d1f875d100c2c0a257
:103a9000e350097b037a0079041219ddd0f0d0835a
:103aa000d082d092d0d0d0e032c0e0c0d075d01853
:103ab000c092c021c022c082c083c0f05392fe9049
:103ac00007f9123bc2602b9007b4e0700c7401f050
:103ad0007b007a0079041219ddee9007f9f0e5c158
:103ae000c0e074fb2521f58274073400f583d0e033
:103af000800be5c4a2e650069007b37401f0023bc8
:103b0000b1c0e0c0d075d018c092c021c022c08220
:103b1000c083c0f0c2e95392fe9007b6e0fa900766
:103b2000b5e09a543ff860258a2174b72521f582c3
:103b30007407123c369007b6f089c19007f7e06829
:103b400070197b027a0079041219dd800ee5a8f85d
:103b5000c2af9004c6e0c2e3123c2c8054c0e0c067
:103b6000d075d018c092c021c022c082c083c0f0de
:103b70005392fe900883123bc2602a90083ee07088
:103b80000b7401f07b00fa79041219ddee900883c2
:103b9000f0e5f9c0e074852521f58274083400f55c
:103ba00083d0e0800be5fba2e6500690083d74014f
:103bb000f0d0f0d083d082d022d021d092d0d0d0fb
:103bc000e032e0f52174012521543ffea3e06e228e
:103bd000c0e0c0d075d018c092c021c022c082c041
:103be00083c0f0c2ea5392fe900840e0fa90083f8a
:103bf000e09a543ff860258a2174412521f58274aa
:103c000008123c36900840f089f9900881e068700d
:103c1000197b027a0179041219dd800ee5a8f8c239
:103c2000af9004c6e0c2e4123c2c8085f0753400ed
:103c3000e8a2e792af223400f583e0f974012a5438
:103c40003f22c0e074f0122633906206e0f890083c
:103c5000dbe048f0906202e0543ff52175220074e9
:103c60000478211224249008dbe04521f0a3e045ec
:103c700022f0906204e0543ef52175220074097828
:103c8000211224249008dce04522f09008dbe05467
:103c9000046007e054fbf0121e0f9008dce05401b2
:103ca0006013e054fef09008eae060097b037a00bc
:103cb00079071219dd121e399008dce05420600dde
:103cc000e054dff07b027a0079071219dd758b0072
:103cd000c2e87f0202269a033f0000030004280d79
:103ce00098089007900194011b0195111b08f00999
:103cf00039821f0ea4fecd82210622fb3818181629
:103d00002118f0ef3818f2ed3828f2eb3868f0039c
:103d1000392a1fe73f08f00428ba3868f0393c0810
:103d2000f1053c88f1173ca8f10e3ce09f2c1f01e7
:103d300028104a291fd63f15d0033827d00938004c
:103d40009004289f3f0128154101980128014a2528
:103d5000d01f38041f831f0ea4fecd042205381483
:103d600021202807a0083f0628681527d0e9392018
:103d70002807d0f238832178f10238042188f1082d
:103d80003d0628a14001f004288438042807a00536
:103d9000284d1528f1163c68f1143d77cf12405993
:103da0009202d80f3912d00739699222d00439799a
:103db0009242d004380528ef151e3fc09f04286c9e
:103dc0003f08f1233c88f1203d094028f1103d4592
:103dd00040f7c759f2083d9303131183e1b9f00f7f
:103de0003c23e00d3f09d8ea38f9c30b3f68f103e3
:103df0003d59f2f23c09d8f9390528bd150528f0de
:103e00001501900128214a051f48f00c3c08f10ad1
:103e10003868f1033c98f106390c960528f915022b
:103e200028843f47a00c960528f315531f0528e367
:103e30001507288ced0528ec1501280195711b014b
:103e4000280ce40528e515511f88f10b3808f10707
:103e50003868f109390128214201f00b3947d009ae
:103e6000383521063f28f1033838f10339351f343e
:103e70001f04280ce047d0033903280ce80528c8a4
:103e800015571f28f00638561f811f021f38f006ed
:103e90003930215b9005283b15fd3f88f1033d0437
:103ea00028f7150528811547d0133808f10f392c4c
:103eb000470cf00c38c403b4125c110c3e04f00a39
:103ec00038c103802801a0411b063f3021043f0771
:103ed000284ced4c1b5b9047d0173827d00328e8bf
:103ee000390ea4fecd02220d39002208381021001f
:103ef0002914e00328dd3c4c1bf13f05289e15eefc
:103f00003f46181221033f0528021588f130390574
:103f10002811150128fb41302100291be00a3d042e
:103f200028f61505280715f6c35192166a3b906bc3
:103f3000080428ed150428fe150bf0fb3917d004f2
:103f4000382d1f0128c43f0328214701f0083903f9
:103f500028314701f00439a2958090033fc29500b3
:103f6000920328b615201b54900128b33f08f10591
:103f700039052111900128214a38f1033900210225
:103f80003f302110216a030428c2156b03314122fe
:103f90004128f1093d02f00239f29101f00b39ff9d
:103fa00028f191083f02f00239529201f00339ffe3
:103fb00028f193f7cb1b06023907a4b20c073d4743
:103fc000d003286e3824900328753f1690b6080455
:103fd00028b115a6030428ae153be0f7ce28f170f2
:103fe0003c012807a0f090a00668f1323d14903003
:103ff000f0053938f103285e38073f50f003285a9e
:104000003958f10328573838f104380328ab150321
:104010003f0328891503287515012807d0033907a0
:10402000a1563f424130f00c3907a112d0033807a6
:10403000d84e3887a0c14041d04a38f7ce483f38e3
:10404000f1033822d0443807d8423907a1403f78dd
:10405000f1123847d02d3800f0033860f00639c12e
:104060004011d0073887a0113f10f0033820f0ab83
:104070003977cf0b3f00f0033810f0a5394141816b
:10408000d0043903285015093f03286c1568f10541
:1040900039414141d0023907b810f00639032831bf
:1040a00015012807d0033807d8123907a1103f405f
:1040b000f00228fc390328141507d8f838083fa166
:1040c0000383403112310511d0023907a14bf006ac
:1040d0003c04281d1504282e15fa3f042818151b2a
:1040e000f0fd3d38f103380328a115f7cd03282151
:1040f0004701f005390328314701f0033807a2f7db
:10410000ce224082d00a380603042814150693767e
:10411000062611960404280e157103411200287119
:10412000c021070438e7cf4198043f17d004395124
:10413000980728214817d00538f295202800901daf
:104140003f07d20438c2950092183f07d10438d2f5
:10415000950094133f07d40438e29500980e3f80f1
:104160009028f10a3d3190a10631f0063903a4b23e
:10417000950228aa1500a1a2950228a615201b28a1
:10418000f1633d08f10a39012807d00739072851a2
:10419000411128c14a012807a017d20539e3cf8a67
:1041a000d0023813a007d20539b3cf4ad002384322
:1041b000a083d01e3931031112310521d0073931c6
:1041c0009907282148002915e0133f529502287cc1
:1041d00015454003d10d39429502287615281f2137
:1041e000990728214803d20438629502286d157377
:1041f000cf834808f1093977cf17d0063907d203a2
:10420000390ad1023887a0349007d2073807d8037b
:10421000383090543f07a8023ff7c718f15a3927a2
:10422000d04c39314011d0493987d0073917d045a2
:104230003907d203390ad1413805f04b39414001e1
:10424000f0483850903b3f68f1153878f139381410
:104250009017d03d3907d23d3987d0033834903993
:104260003f07d1373911900128214a409003286e29
:1042700015253f47d01c38249007d30c39119001e5
:1042800028214a87d008385144002911e0043a51c6
:104290004c023877cf17d01b3987d00338349019a8
:1042a0003f07d31739c14021d01438073f17d00f2b
:1042b0003907d303383090023f009044900a3f24de
:1042c0009017d0053907d305393490033fa09f4498
:1042d000900221c190511b8121342124f0083927fb
:1042e000d004390c9cfd2bae3f10904490b7cf34d6
:1042f000f00e3953210328e195711b541f0f28cc70
:104300009506282141f1c081111c09143f019051eb
:104310001b0728f19f711b802114f0012886385457
:10432000f0fd2b0a380128ad3f541f0328641510f7
:1043300028cced03286d1576217821501f0128a285
:104340009a217001b2218001b221802ce303286000
:104350001574210128ace408f1073c88f1033d0203
:1043600028971503282115011f0128349d03285083
:1043700015201f002168f0093d069058f003390709
:1043800028364102289315fa3f0728504078f10457
:1043900039331f321f0421500000dc01287c3828eb
:1043a000f1103d8340f7cb31031112310521d003c9
:1043b0003903d1033900d8103807a41b901a90167e
:1043c0003f00d80128683998f107394b700128e27d
:1043d000412b0800288e3f102807a04b701bf0fcd3
:1043e0002bed3c4a70224128f1303d02f00239f2b7
:1043f0009112e0b20cfc2be23c419031061111ff0e
:104400002be29f3204520022111a042a0432400087
:104410002862c018f1033927d00d3922f009390775
:10442000280141b109002921e0093a0aa1073f42c8
:10443000f00339face033f62f0f93818f1253977e5
:10444000cf0ad1223887a0203f02f00239529212bf
:10445000e0b20cfc2bb33c68f1123d38f115388703
:10446000d013390128314201f00f38402807a00746
:1044700028914231c0c1a00728914a063f02280175
:1044800090710621121a04ff2bf29fb2084be0a68e
:104490000302280c1526030228091568f1293cfba4
:1044a000f0273c6290467002280115d2370428603c
:1044b0009662904670062d0128f915c23778f118da
:1044c00039d04000d81538dbf0133c82904670019b
:1044d00028ed15d237764400d40338060e023f0685
:1044e0000d41700128e315417086120128df153255
:1044f00090b20c053d46700128d915fb3f08f10626
:104500003941721128c14a012807a0ef28f7cf28a6
:10451000f11e3d83403090a0063103111231052178
:10452000d003398295043f30f0043972950028cccd
:104530001553c843d0023823a007d4023803a13052
:10454000f0023903a2834892950028be1506900b0d
:10455000f005380128ab15591ffb3f0ea4fecd0115
:1045600022043902286a15fa3f551f1121031f241e
:104570009008f10f390ad1033987d024383140111e
:10458000d0213905f02139414001f01e3850901bef
:104590003f48f1073828f1033858f1063987d0141d
:1045a0003877cf1490113f78f10539119001282107
:1045b0004a093f98f10939829500288a15281f5425
:1045c00090033f009044900ea4fecd0322043902d4
:1045d000283415fa3f13212c1801210321741ff1ef
:1045e000900000f1370190511b0728f19f711b804b
:1045f0002132210728914231c00728914abf28f76c
:10460000cf28f1063c88f1043d92955e15281f44a1
:10461000f0383814f00a3854f0fb2b8e3801280c8f
:10462000e40128f615fc2b023f0128901500902785
:10463000d0283902d8083838f1243932900128922c
:1046400015e237193f19e089f2043c38f11a39595b
:104650009238f1033901288615124091030029513f
:10466000e2120e12d0f038012886150128b9151271
:1046700040012891153199072821482c18fe2b5507
:104680003f0128104a0028a915fb2b2b3ff09f045f
:104690003fd09f023fb09f0028d0152c1ff23f282b
:1046a000f1053c68f1033d1490053f2090023f1056
:1046b00090449041980728214838f1fe2b0a380091
:1046c00028b515fe2b063f217011e0218002000164
:1046d00028214107282148217811e021880200f78c
:1046e000c7761571033112a10501d4023907a80458
:1046f00028649631150238f7c70428c4f6fb3c023b
:1047000000fe28f7cf641551417111a10501d803ae
:1047100039012807a064911f150338fe28f7cfc47c
:10472000f1fb3c0200f7c753155141022807a00acc
:10473000d40339fd28f7cf5111a10501d40239075f
:10474000a8c4910428659607150238f7c756312486
:10475000f2fb3c02000028db150028ec15412d1669
:104760000c0200f7c73415d032d332234268f10966
:10477000394141904041d0043850000306023f03c4
:10478000033142022807a00ad404395100fd28f75a
:10479000cf13064492042865960028b9150028ca4c
:1047a000155631ff28e19f4070060c023813068e23
:1047b000a0810064e044f5f83c0029f4e2a4f2eda5
:1047c0003c03f0023807a8d32fd02f02009bf00241
:1047d0003c020007a12de0020098f10938102807db
:1047e000d0033908f1043831990728214808f10c21
:1047f00039012807d00938072851411128c0420142
:104800000c0338072850491190082807d0053806ae
:1048100028b148f728f7cf042807d005380628a183
:1048200048fb28f7cf3021291f0200311fff28f154
:104830009f411b301f31210200022101210321531e
:104840002309380628d14001d11238419807282180
:10485000480b3f54230c385021f1910000f137747c
:104860001ff1900000f13768f0023c2b1f019051be
:104870001b81210728f19f711b802107289142315c
:10488000c00728914abf28f7cf32213421020008ff
:104890002807d007390628b14001f0043808280756
:1048a000a0020004280d98fe2bf43f402807d00ded
:1048b000390ea4fecd012204390028bf15fa3f6647
:1048c0001b112100291be002000728a64a0ea4fea6
:1048d000cd012204390028b115fa3f01283142b137
:1048e0000941e0053a08384bf00c38ea3d0728a1a9
:1048f00042611be73f0728914271cf0728914af791
:104900003f0728914281a20728914ada3f0ea4fe70
:10491000cd0222043900289115fa3f4618122100d1
:10492000291be01bf00639581f0628e0400128002b
:104930004a020017d00a393122063817a0419807d9
:10494000282148033f0728a6480200124038f109f1
:104950003802d807399103002941e2120e120d12d4
:1049600048020047a07b280c9c10215215ff2b5eab
:1049700015b7cf020059f203396391083f69f2037a
:1049800039e392043f79f203394396020004280d7b
:1049900098fa2b143f02d407389103002901e21141
:1049a0007006286148020088f10a3c01283141075d
:1049b00028814ab1460328314fa1460f3f07288975
:1049c0004a28f1063d31440328314f5140053f55f7
:1049d0002851950328314f81110328214f0200e30c
:1049e000f3033cf190033f23e051920628614a060d
:1049f00028434802007b21772141900000f1377065
:104a00002175217a218cee0415521f801f02004c63
:104a10001b001f47d0033827d009390ea4fecd0054
:104a20002203390b15f73f1021020004280d983896
:104a3000f1fe2b2738fe2b3c3fd232021801192100
:104a40000601d41a381218162162f003392a1f2dd4
:104a50003f12f2153822f22838fe2bef1568f006c7
:104a60003c61900128114afe2bb81530212803041f
:104a7000280d98f92b373f01d1143814212028072d
:104a8000d00d3878f1123904231038714401f00246
:104a9000398144002911e0714c083f202807a00506
:104aa0003f01d20538152127a0d22f020011d006d0
:104ab00038102104280d98fd2bf33ff2ce5200123e
:104ac0001bf43f0001000002000000d31a000000a8
:104ad0000100000000fd1a00000002000000000fad
:104ae0001b0003000324000000f11a00020004046c
:104af000000000f71a00000005000000003f1b0046
:104b000000000600000000a51b00050007260000ad
:104b100000571b0000000800000000e11b0002001d
:104b20000982000000391b0007000a2a000000e784
:104b30001b0007000b2a000000ed1b0000000c000a
:104b4000000000f31b0002000d220000002d1b00de
:104b500003000e22020000331b00000100000000d1
:104b600000511b0000010100000000d51b000001e6
:104b70000200000000451b000301038400000063e5
:104b80001b00020104040000005d1b00020105047b
:104b90000000004b1b0001010602000000031b0087
:104ba00003010784000000091b0004020024080020
:104bb00000b11b00040201440000008b1a00020235
:104bc0000204000000911a00030203220800007f83
:104bd0001a0002020422000000851a0001030002ec
:104be0000000006d1a0001030102000000db1b0041
:104bf00009030242440400671a0001030302000093
:104c000000eb1a0001030402000000d91a0002039d
:104c10000582000000df1a0001030602000000e523
:104c20001a0001030702000000611a000203088253
:104c3000000000371a0008040042440800731a00fc
:104c400006040142840000971a0006040242840010
:104c500000a31a00050403420400009d1a00030487
:104c60000442000000a91a0004040542080000b52f
:104c70001a0004040642080000cd1a0001040702cd
:104c8000000000791a0003040842000000af1a0077
:104c900006040942840000bb1a0002040a22000034
:104ca00000c11a0002040b82000000c71a000205ae
:104cb0000022000000271b0001050102000000b7d0
:104cc0001b0001050202000000c31b0003050322b4
:104cd000020000bd1b0005050462000000c91b00a6
:104ce000000505000000009f1b00010506080000ec
:104cf000006f1b0002060022000000691b00020674
:104d000001220000007b1b0001060202000000815e
:104d10001b000f06032a444400931b0000060400f6
:104d2000000000991b0008060544440000871b0092
:104d3000030606220200008d1b0005060744020040
:104d4000001b1b0005060844020000211b00020690
:104d50000982000000151b0007060a2a00000075e2
:104d60001b00030700220200000b1c00060701269f
:104d7000020000171c0003070222020000111c00a1
:104d8000020703220000001d1c000207042200008d
:104d900000231c0003070522020000291c00030752
:104da00006220200002f1c00020707220000003527
:104db0001c0006070822222200471c000207098265
:104dc0000000004d1c0003070a220200003b1c00eb
:104dd00003070b22080000411c0001070c02000021
:104de00000ab1b0005070d22420000531c00030806
:104df0000022020000431a000108010200000049dd
:104e00001a00000802000000004f1a00000803000a
:104e1000000000551a00000804000000005b1a00a2
:104e2000010805080000003d1a0000000000000015
:104e300000f91b0000000100000000f91b00060043
:104e4000020a000000f91b0002000304000000f940
:104e50001b0003000424000000f91b0005000522cc
:104e6000220200f91b0001000602000000f91b00ed
:104e700005000786000000f91b000c0008444424cc
:104e800002f91b0002000904000000f91b000200e7
:104e90000a04000000f91b0002000b04000000f9e6
:104ea0001b0000000c00000000f91b0003000d8433
:104eb000000000f91b0002000e04000000f91b00b6
:104ec00000010000000000f91b00000101000000cb
:104ed00000f91b0000010200000000f91b000201a4
:104ee0000304000000f91b0003010484000000f922
:104ef0001b0000010500000000f91b000201060470
:104f0000000000f91b0000010700000000f91b0071
:104f100002020004000000f91b00070201448400a3
:104f200000f91b0005020244080000f91b00000202
:104f30000300000000f91b0000020400000000f95b
:104f40001b0003030042000000f91b0002030132b2
:104f5000000000f91b0003030242000000f91b00df
:104f600003030342000000f91b0002030482000057
:104f700000f91b0003030542000000f91b000303b6
:104f80000642000000f91b0001030702000000f9bf
:104f90001b0001030802000000f91b00030400428b
:104fa000000000f91b0003040142000000f91b008f
:104fb00003040242000000f91b0003040342000046
:104fc00000f91b0003040442000000f91b00030465
:104fd0000542000000f91b0003040642000000f92e
:104fe0001b0002040704000000f91b000304084230
:104ff000000000f91b0003040942000000f91b0037
:1050000003040a42000000f91b0003040b420000e5
:1050100000f91b0003050042000000f91b00000519
:105020000100000000f91b0002050204000000f965
:105030001b0000050300000000f91b00020504042a
:10504000000000f91b0001050502000000f91b002b
:1050500000050600000000f91b000006000000002b
:1050600000f91b0002060104000000f91b00020603
:105070000204000000f91b0003060324000000f9ed
:105080001b0002060404000000f91b0003060524af
:10509000000000f91b0002060604000000f91b00d6
:1050a00002060704000000f91b00020608040000c5
:1050b00000f91b0002060904000000f91b000206ab
:1050c0000a04000000f91b0002070004000000f9b8
:1050d0001b0002070104000000f91b000207020484
:1050e000000000f91b0002070304000000f91b0088
:1050f00002070404000000f91b0002070504000079
:1051000000f91b0002070604000000f91b00040759
:105110000724020000f91b0002070804000000f940
:105120001b0004070924080000f91b0003070a8478
:10513000000000f91b0001070b02000000f91b0032
:1051400000070c00000000f91b0002070d0400001e
:1051500000f91b0000080000000000f91b00000817
:105160000100000000f91b0002080204000000f921
:105170001b0000080300000000f91b0001080408e0
:10518000000000f91b0001080508000000f91b8061
:105190000c000044442402f91b80010001080000b7
:1051a00000f91b8002000222000000f91b800200af
:1051b0000322000000f91b8004000444000000f9f1
:1051c0001b8000000500000000f91b800301008423
:1051d000000000f91b8007020022440800f91b8030
:1051e00006020142240000f91b8003020224000091
:1051f00000f91b80100300222a4424f91b800603b7
:105200000122440000f91b8002030282000000f921
:105210001b8002030382000000f91b800303044289
:10522000000000f91b8003040042000000f91b800d
:1052300005040142040000f91b80060402428400b8
:1052400000f91b8007040342240800f91b800404b2
:105250000442080000f91b8005040542820000f9a1
:105260001b8002040682000000f91b800305002257
:10527000080000f91b8003050142000000f91b80b3
:1052800005050262000000f91b8001050302000011
:1052900000f91b8004050422220000f91b800b0684
:1052a00000232a8200f91b8002060122000000f977
:1052b0001b8007070026220000f91b80010701025e
:1052c000000000f91b8003070252000000f91b00d8
:1052d000000000000000000000470a0f650a087582
:1052e0000a057f0a09910a0ca90a07b70a0bcd0a19
:1052f0000ee90a0674f71224c99004d1e0f5217969
:1053000000800774ff2521522109e52170f502690b
:105310006274f61224c9e99004d37006e054fbf0dd
:105320008017e04404125885122711eafcebfd7a3d
:10533000d57b04126c7412244d02588074f7122429
:10534000c974fe1224671226fde975f075a4f8a948
:10535000f01253a02469125f27125501ea4b703de9
:10536000e5842467125f27e4f0a3f0900365e0284a
:10537000faa3e039fbea2469f582eb125f2b742370
:10538000f0a37419f01253a02467fce5853400fde6
:10539000e584246ffae5853400fb1216290269546e
:1053a000900365e028f584a3e039f585e58422744f
:1053b000f61224c97900752101752200e9782112bd
:1053c00024249004d1e05521600709e9c3940840e2
:1053d000e5740869700279ff025880c021e9faa2d9
:1053e000e050057521038003752100a2e150047887
:1053f0000c80027800e84221eaa2e2500478108092
:10540000027800e84521f9d0215392fe0211187468
:10541000f51224c974fe1224671226fd8921740d29
:105420001224a0e0f8a3e0f9752300802f852382e1
:10543000ae82e82ef582e9125f2bec2ef584ed3476
:1054400000f5850592e0f5220592e06522c0e0eacc
:105450002ef582eb125f2bd0e0f00523e523c395f8
:105460002140ca85328285338312270574021224b3
:105470004d7f030225a174f71224c97521008017fe
:10548000852182ae82ec2ef582ed1268f1f8ea2ecb
:105490001268ee68f00521e521c39940e3026962d4
:1054a00074f61224c974fe1224671226fd8a848bb6
:1054b0008575210875220078211227117ae57b0471
:1054c000126c7412244d78211227117c007d007a11
:1054d000ed7b04125bcb12244d7521e57522047817
:1054e000211227117ce57d04aa84ab85126bcd12b5
:1054f000244d9004e512550102587285328285339d
:1055000083e0faa3e0fb2274f41224c974fe12248f
:10551000671226fd8a848b85740e1224a0e0f8a3fe
:10552000e0f974101224a0e0f521a3e0f522900424
:10553000e5ecf0a3edf0a3e8f0a3e9f075230c751a
:10554000240078231227117c007d007ae97b041265
:105550005bcb12244d78211227117ce57d04aa84af
:10556000ab85026bb074f41224c974fe1224671266
:1055700026fdeafeebff740e1224a0e0f521a3e065
:10558000f5228c238d247823122711791090036142
:10559000e024021267b8aa21ab22121893740212f7
:1055a000244d7821122711ac21ad22126bc912248f
:1055b0004d900489e0a2e050067c917d0480047c3b
:1055c0008b7d04900485e0a2e050047a0080027a8a
:1055d000067906e5212afae5223400fb1218999093
:1055e0000485e0a2e0500575230680037523007949
:1055f00006900363e075f0e4a4faabf00592900422
:1056000053e02af582a3e03bf5830592a3a3a3a36d
:10561000a3a3a3a3a3ac82ad83e5212523fae522ae
:105620003400fb1218997821122711ac21ad22ee1b
:10563000faeffb026bb074f61224c974fe122467f1
:105640001226fdeafeebff740c1224a0125bf57526
:10565000210375220078211227117ae57b04126c50
:105660007412244d75210d78211227117c007d00c4
:105670007ae87b04125bcb12244d7521e575220478
:1056800078211227117ce57d04126bc912244d7517
:10569000210375220078211227117ce57d04aa845c
:1056a000ab85126c74026d6a74f61224c974fe1212
:1056b00024671226fd126f4e640a752110752200b0
:1056c000059278216003025763122711900361e06d
:1056d0002442125fd912244d7521e57522047821e8
:1056e00012271112679312244d752110752200782c
:1056f00021122711125bdd7ae57b04121ecf7402a2
:1057000012244d8b22ea452260117904eefaeffb58
:105710001218d5125f3ee4f0025802126b7eeefac8
:10572000effb12194175210875220078211227110b
:1057300012581d125fd912244d12580d8a218b2246
:1057400005927821122711125917126bcd12244d90
:1057500012584412271112582712244d125f3e741a
:105760000b80b4122711900361e02432125fd9122a
:10577000244d7521e57522047821122711900361cb
:10578000e0243212679912244d7521107522007899
:10579000211227111267b27ae57b04121ecf740220
:1057a00012244d8b22ea4522600302570a75210814
:1057b000752200782112271112581d125fd9122468
:1057c0004d0592900361e02453125bd1782112279a
:1057d00011125917aa21ab22126bcd12244d125867
:1057e0004412271112582712244d125f3e7406f0fe
:1057f0007c007d000592900363e0f9eefaeffb1266
:10580000175b8532828533835392fe806b059290bd
:105810000361e024531268f6aa82ab8322126b82e2
:10582000900361e0244a227c007d00900361e02a1d
:10583000f8a3e03400f9e82453fae93400fb121e1f
:10584000db740222126b9df52195e0f5220592781a
:105850002122126cbc1258851227118a828b83a3d5
:105860000a126c7212244d7c067d00aa84ab85124c
:1058700015ff853282853383122705740212244d69
:105880007f020225a1f07521107522007821227473
:10589000f61224c974fe1224671226fd126f4e649c
:1058a00004752110752200059278217021122711ac
:1058b000900361e02422125fd912244d125917ee91
:1058c000faeffb121941125f3e7405f08046122771
:1058d00011900361e02412125fd912244d126f63fc
:1058e000640970260592900361e02422f521a3e06b
:1058f0003400f5227821122711900361e02432123e
:10590000679912244d12678780c17408f0eefaef90
:10591000fb121803025802900361e024421267b898
:105920002274f01224c974fe1224671226fd74fa40
:10593000122437853282853383eaf0a3ebf0853277
:10594000848533850592e02409125bd1a3a3a3a328
:10595000e0f974fc597014852182852283a3a3a3e6
:10596000a3a3ae82af83e054fc6010790a85328233
:10597000853383e0fa1218d5025bc6125f86125f88
:105980007c0592f07a005392fe90618fe0c0e012a5
:105990005f2f2442f582e9125f2bd0e0f00aeac3c0
:1059a000941040e27523067524007823122711ac69
:1059b00021ad22900361e0240c125fd912244d9096
:1059c0000361e0240b12601f74020592125fbdc0d8
:1059d000e0125f42d0e0125f1dc0e0125f3ea3d034
:1059e000e0f07e108521828522830592a3a3a3e0a7
:1059f000f894105002e8fe74f928c3940a4008791c
:105a0000061254fb0259759004d3e0f88521828573
:105a10002283a3858225858326e07009e8540460eb
:105a200004790280dc852182852283a3a3858223d9
:105a3000858324e8a2e0c0d0e0a2e092f01224b670
:105a4000158182f05008125fb87003125be7125f95
:105a5000489004d3e0f85404600d852582852683a0
:105a6000e060047f048030852382852483e0a2e205
:105a700050239004d0e0fc852182852283e075f0dc
:105a800005a4faabf0740e2afa740a3bfbea2c1256
:105a900068eeff80027f009004d2e0faeec39a50d5
:105aa000030259ffe854026008ef70057903025ab7
:105ab00001125f72ee0592f0ef70047a0080027ab4
:105ac00001125f9d0592f0a3e9f012580f74046f64
:105ad0007521107522000592782170101227117c13
